:020000040800F2
:10000000182A00204501000815280008FB1B0008DD
:10001000ED260008751200081749000800000000CE
:100020000000000000000000000000006D2E00082D
:10003000D512000800000000D92C0008E1370008A4
:100040005F0100085F0100085F0100085F01000810
:100050005F0100085F0100085F0100085F01000800
:100060005F0100085F0100085F0100085F010008F0
:100070005F0100085F0100085F0100085F010008E0
:100080005F0100085F0100085F0100085F010008D0
:100090005F0100085F0100085F0100085F010008C0
:1000A0005F0100085F0100085F0100085F010008B0
:1000B000913A0008A93A0008C13A00085F01000817
:1000C0005F0100085F0100085F0100085F01000890
:1000D0005F010008ED420008F143000805470008F1
:1000E0005F0100085F0100085F0100085F01000870
:1000F0005F0100085F0100085F0100085F01000860
:100100005F0100085F010008D93A00085F0100089C
:100110005F0100085F010008F13A00088D3C00080B
:100120005F0100085F0100085F0100085F0100082F
:10013000DFF80CD000F030FC004800479553000871
:10014000182A00200648804706480047FEE7FEE7D9
:10015000FEE7FEE7FEE7FEE7FEE7FEE7FEE7FEE777
:10016000F13700083101000800487047D86B0008DB
:10017000D2B201E000F8012B491EFBD270470022E9
:10018000F6E710B513460A4604461946FFF7F0FF96
:10019000204610BD10B5044604E00B7800F8013B82
:1001A00003B1491C521EF8D2204610BD10B50022E2
:1001B00000E0521C835C8C5CA34201D1002BF8D17F
:1001C000D8B2E1B2401A10BDF0B480EA0102D40FF7
:1001D0004200B2EB410F02D20246084611464A00E5
:1001E00042D0C30DDDB2C1F3C752AD1A202D35DAAE
:1001F000C1F3160141F4000204B15242C5F12006D8
:1002000002FA06F12A411044B3EBD05F23D0C4B107
:10021000012DA0EBC35009DCF0BC4FF0004202EA14
:10022000C352DBB200F5000000F02BBB400000F130
:10023000807000EBC350A0F1807040EAD17049009B
:1002400009E0490841EAC071A0EBC35000F5000085
:10025000400800EBC350F0BC00F00ABB6142012231
:1002600002EB4101001BF6E7F0BC704781F0004152
:10027000AAE780F00040A7E780EA010210B502F08B
:100280000043400022D04A001FD0010E01EB126152
:10029000C0F35600C2F3560240F4000042F40002DC
:1002A000A0FB022000047F39140400D0401C50EA57
:1002B000124001D44000491EC2B20C0604EBD0101B
:1002C000401C4008802A02D003E0002010BD20F02E
:1002D0000100002900DA0020184310BD30B480EA84
:1002E000010202F0004530F0004221F0004013D03E
:1002F00090B1C30DD40DC2F31601C0F31600E41A79
:1003000041F4000140F400027D34914201D3641CA9
:1003100000E04900002C02DA30BC002070474FF4A6
:1003200000000023914201D3891A034340084FEA99
:100330004101F7D151B1914202D14FF0004105E0A6
:1003400002D24FF0010101E06FF0010103EBC45054
:10035000284430BC00F08CBA2DE9FE4F804681EA7B
:100360000300C00F0C46009021F0004123F000452F
:10037000B8EB0200A94105D24046214690461C46F2
:100380000B46024623F00040104347D0270DC7F329
:100390000A00C3F30A510290401A019040286BDA18
:1003A000C3F3130040F4801B0098924620B1002351
:1003B000D2EB030A63EB0B0B01985946C0F14002E4
:1003C000504600F024FA06460D4650465946019A1A
:1003D00000F03CFA10EB08006141002487EA11525A
:1003E00084EAE7731A4340D0009A62B3019A012A63
:1003F0004FEA075215DC001B61EB02014FF000428F
:1004000002EA0752CDE90042001C41F58011324654
:100410002B4600F073FA03B0BDE8F08F404621464A
:10042000F9E7001B61EB0201001C41F58013001885
:100430005B412018A2F5001747EB030140EAD57095
:10044000B6196D4111E06D084FEA360645EAC075F0
:100450004FEA0752001B61EB0201001C41F58011BD
:1004600049084FEA30000019514132462B4603B08B
:10047000BDE8F04F00F033BA00980122400000239D
:10048000D0EB020263EBE073009821464FEAE07480
:10049000B8EB000061EB0401E9E783F000435BE7A0
:1004A00081F0004158E72DE9FE4F81EA030404F092
:1004B000004421F0004100944FF0000B23F0004372
:1004C00050EA01045ED052EA03045BD0C3F30A543D
:1004D000C1F30A552C44A4F2F3340194A0FB025456
:1004E000C1F3130141F48011C3F3130343F48013E8
:1004F00001FB024400FB034E840A970A44EA81543C
:1005000047EA8357A4FB076802958D0A05FB078518
:100510004FEA932C04FB0C542705029D4FEA065822
:1005200047EA1637B5EB08056EEB070C870E920EFF
:1005300047EA811742EA8312A7FB0201B6EB0B01DF
:1005400064EB00042B0D43EA0C335E1844EB1C50A3
:10055000DA465146E7FB0201C5F313044FEA0B33B9
:1005600043EA14534FEA0432019C43EA0603A4F120
:100570000C040294009CCDE900B400F0BFF903B074
:10058000BDE8F08F00200146F9E72DE9F04D81EA42
:10059000030404F0004B21F0004514464FF0000A1C
:1005A00023F0004150EA050220D054EA01021DD098
:1005B000C5F30A570246C5F31303C1F31300C1F391
:1005C0000A5640F4801543F48013A7EB0608101B6D
:1005D000D64608F2FD3873EB050002D308F1010896
:1005E00001E092185B41B8F1000F03DA00200146E8
:1005F000BDE8F08D00204FF48011064684460EE0E1
:10060000171B73EB050705D3121B63EB05030643AA
:100610004CEA010C49084FEA300092185B4150EA5D
:100620000107EDD152EA030012D082EA040083EA06
:100630000501084305D0101BAB4106D2012200235F
:1006400006E000224FF0004302E06FF00102531079
:100650001AEB06004CEB085110EB0A0041EB0B01C2
:10066000BDE8F04D00F03BB9C10F80EAE0700844EE
:10067000CA079623002100F004B9962300221146F0
:1006800000F0FFB80EB5C10F80EAE0700844CA0759
:10069000002140F233438DE80E000A460B4600F07D
:1006A0002DF903B000BD0EB540F233410291002197
:1006B000CDE900110A460B4600F020F903B000BD59
:1006C00000F0004220F00040C10DC0F3160040F4DD
:1006D00000007F2901DA00207047962903DCC1F170
:1006E0009601C84001E096398840002AF4D0404283
:1006F000704720F00040C10DC0F3160040F4000028
:100700007F2901DA00207047962903DCC1F19601A8
:10071000C8407047963988407047C1F30A5210B5F7
:10072000C1F3130140F2FF3341F480119A4201DA20
:10073000002010BD40F233439A42A2F2334203DC60
:10074000524200F073F810BD904010BD01F000431C
:1007500030B421F0004150EA010206D00A0DA2F5A2
:100760006072C1F31301002A02DC30BC0020704724
:10077000440F44EAC104C100E01830BC00EBC25091
:1007800000F076B8002801DBC0F10040002901DB51
:10079000C1F1004181427047002801DBC0F10040F7
:1007A000002901DBC1F10041884270472DE9F05F6B
:1007B0000546002092469B468846064681464024D0
:1007C0001BE0284641464746224600F02FF8534694
:1007D0005A46C01A914110D311461846224600F0DD
:1007E00016F82D1A67EB01084F462246012000211A
:1007F00000F00DF817EB00094E41201EA4F1010492
:10080000DFDC484631462A464346BDE8F09F202AB1
:1008100004DB203A00FA02F1002070479140C2F157
:10082000200320FA03F3194390407047202A04DB89
:10083000203A21FA02F00021704721FA02F3D04059
:10084000C2F120029140084319467047202A06DB76
:10085000CB17203A41FA02F043EAE07306E041FA8E
:1008600002F3D040C2F1200291400843194670477C
:100870000029A8BF7047401C490008BF20F00100B4
:10088000704710B4B0FA80FC00FA0CF050EA010492
:1008900004BF10BC704749B1CCF1200421FA04F424
:1008A00011FA0CF118BF012121430843A3EB0C01FD
:1008B000CB1D4FEA00614FEA102042BF002010BC60
:1008C000704700EBC35010440029A4BF10BC704710
:1008D000401C490008BF20F0010010BC704710B553
:1008E000141E73F1000408DA401C41F10001921853
:1008F0005B411A4301D120F0010010BD2DE9F04DFC
:1009000092469B4611B1B1FA81F202E0B0FA80F250
:1009100020329046FFF77BFF04460F4640EA0A006C
:1009200041EA0B0153465A46084313D0114653EA95
:10093000010019D0C8F140025046FFF777FF054685
:100940000E46504659464246FFF761FF084305D020
:10095000012004E020463946BDE8F08D0020054323
:1009600046EAE0762C4337430A986305E40AA0EB95
:1009700008000022FD0A44EA47540A3002D500204C
:100980000146E9E7010510196941DDE9084500194B
:100990006941BDE8F04DA2E7064C074D06E0E0686E
:1009A00040F0010394E8070098471034AC42F6D3B6
:1009B000FFF7C2FBDC6B0008FC6B000870B58C18FD
:1009C00010F8015B15F0070301D110F8013B2A1163
:1009D00006D110F8012B03E010F8016B01F8016B50
:1009E0005B1EF9D12B0705D40023521E0DD401F84C
:1009F000013BFAE710F8013BCB1A921C03E013F815
:100A0000015B01F8015B521EF9D5A142D8D3002049
:100A100070BD000000B587B00121102002F07AF906
:100A20000121480202F076F94FF4004002F056F935
:100A300000208DF81B000220ADF8180003208DF86F
:100A40001A0006A9164800F02DFF00208DF80800B6
:100A50008DF8090004904FF460200390002001906D
:100A600001208DF8140001A90E4800F049F8012179
:100A70000C4800F019F80B4800F0C6F800BF094810
:100A800000F034F80028FAD1064800F0CDF800BF95
:100A9000044800F014F80028FAD107B000BD0000A7
:100AA000001001400024014021B1826842F001029F
:100AB000826003E0826822F0010282607047014692
:100AC00000208A6802F004020AB1012000E0002040
:100AD00070470146C86C80B2704702460020136818
:100AE0000B400BB1012000E00020704701460020C0
:100AF0008A6802F008020AB1012000E00020704775
:100B000030B502460020002350680F4C20400D797C
:100B10000C6844EA05242043506090680B4C204048
:100B2000D1E902542C434D7944EA450420439060B6
:100B3000D06A20F470000C7C641EE4B2234340EAC7
:100B40000350D06230BD0000FFFEF0FFFDF7F1FF63
:100B5000F0B504460D4600200021092D11DDE068A6
:100B6000A5F10A0606EB4607072606FA07F18843B1
:100B7000A5F10A0606EB460603FA06F10843E06013
:100B80000CE0206905EB4507072606FA07F18843C4
:100B900005EB450603FA06F108432061072A0FDA40
:100BA000606B561E06EB86071F2606FA07F1884380
:100BB000561E06EB860605FA06F10843606322E03E
:100BC0000D2A0FDA206BD61F06EB86071F2606FAC2
:100BD00007F18843D61F06EB860605FA06F108439F
:100BE000206310E0E06AA2F10D0606EB86071F26DF
:100BF00006FA07F18843A2F10D0606EB860605FA10
:100C000006F10843E062F0BD816841F008018160AF
:100C1000704721B1826842F4A002826003E08268DA
:100C200022F4A00282607047816841F00401816073
:100C3000704700002DE9F04F87B002210B2000F033
:100C4000C5FF6C49088008460088FFF72CFD074661
:100C50004FF06632684BFFF726FC0022674BCDE968
:100C60000001FFF720FC0022654BCDE90201FFF7F0
:100C70001AFC0022634BCDE90401FFF786FC054610
:100C8000FFF74BFD604908600846006800EB400133
:100C9000C1EBC01042F21071C1EBC0001B21B0FBD0
:100CA000F1FABAF1640F01DD4FF0640A57490868A0
:100CB0005749FFF7E1FA0546FFF702FD0446002C0D
:100CC00000DA6442534908685149FFF7D5FA0546EE
:100CD000FFF7F6FC8146B9F1000F01DAC9F100090E
:100CE0004D48007808B9012000E000204A4908700A
:100CF0004A480078012862D149480078012845D146
:100D000048480078022815D147480068FFF7D8FC0A
:100D1000054646480068FFF7D3FC0646444800688D
:100D2000FFF7CEFC07462B463246394641A003F07A
:100D3000D9FE40E03B48007801283CD1414800689A
:100D4000FFF7BEFC054640480068FFF7B9FC0646C1
:100D50003E480068FFF7B4FC07463D480068FFF7CF
:100D6000AFFC80463B480068FFF7AAFC83463A4840
:100D70000068FFF7A5FC43465A460146CDE90076D8
:100D80000295059035A003F0ADFE14E039480068E7
:100D9000FFF796FC054638480068FFF791FC0646C9
:100DA00036480068FFF78CFC07462B46324639462A
:100DB00020A003F097FE00201849087016E016489E
:100DC000007838B909F0FF02E1B253462CA003F0D5
:100DD00089FE0BE027480068FFF772FC054609F022
:100DE000FF03E2B229462AA003F07CFE07B0BDE86B
:100DF000F08F00000400002066660A4000002640D4
:100E0000000059400000B04008000020CC25002020
:100E10000000C842D82500203401002049000020ED
:100E20000D0000200C0000202400002028000020DD
:100E3000200000207B4325643A25643A25647D2404
:100E4000000000003C00002040000020380000208E
:100E500030000020340000202C0000207B4325645B
:100E60003A25643A25643A25643A25643A25647D36
:100E700024000000440000201C0000201800002076
:100E80007B4125643A25643A25647D2400000000F6
:100E90007B4225643A25643A25647D2400000000E5
:100EA0002DE9F05F04460D4629462046FFF7E1F99B
:100EB00030490860084601682F480068FFF784F948
:100EC0002D4908602D492C480068FFF765FC03D2C6
:100ED0002A482949086008E0294927480068FFF79F
:100EE00051FC02D22648244908602648016821485E
:100EF0000068FFF7BBF98146234801684846FFF7C1
:100F0000BBF980461D49FFF7E9F906461A48016812
:100F10001E480068FFF7B0F982461D49FFF7DEF969
:100F200080461C48006880F0004B12480168584613
:100F3000FFF7A2F982461649FFF7D0F981464146EC
:100F4000FFF794F907463146FFF790F91249086018
:100F5000084800680B4908601048006803F0C3F9AE
:100F6000012802D10020044908600B480068BDE850
:100F7000F09F0000040100200C01002000007A44D2
:100F800000007AC410010020280000202400002066
:100F90000050C34720000020080100200800002066
:100FA0000748007850B100200549087005490870CD
:100FB0000549086005490860054908607047000058
:100FC0009C0000209D0000208C000020900000204C
:100FD000940000201FB500201B4908701B490870B1
:100FE0004FF4FA701A49086000201A49086001217C
:100FF000202001F07FFE40F2E730ADF808004720E6
:10100000ADF804000020ADF80A00ADF8060001A913
:10101000114803F00DF9012211460F4802F075FF47
:1010200037208DF8000001208DF8010000208DF898
:10103000020001208DF80300684601F0EDFB01215C
:10104000054802F0B5FE1FBD9C0000209D00002059
:10105000A0000020A40000200014004010B50121D1
:10106000144802F0E1FE18B30121124802F09DFE7F
:1010700011480068401C104908601048007820B1F1
:101080000F480068401C0E4908600B480068B0F526
:10109000FA7F0DD30948007850B100200749087045
:1010A000084908700849086008490860084908604C
:1010B00010BD000000140040A00000209C00002093
:1010C000A40000209D0000208C0000209000002043
:1010D000940000200EB55C480078002872D103F01F
:1010E00005FB00286FD0684603F078F900205749C7
:1010F00008605748007830BBBDF802001E2807DBA7
:10110000BDF800001E2803DBBDF804001E2811DA1C
:1011100001204F49087002204E49087000204E49B6
:1011200008604E484E49086000204E4908604E490C
:10113000086081E04D484A4908600020494908603C
:101140004949086078E043480078022804D0032821
:1011500018D0042861D116E03F480068B0F5487FF8
:101160000FD3BDF80000BDF80410884203DD032052
:101170003849087002E004203649087000203649DA
:10118000086058E000BF34480068B0F5966F2AD375
:10119000BDF802001E2817DDBDF800001E2813DD73
:1011A000BDF804001E280FDD0020294908702949D8
:1011B00008702E482A49086000202A4908602A49F8
:1011C000086029E039E03DE0022022490870002053
:1011D000214908602148224908600020214908600F
:1011E0002149086018E01B48007803280AD12048EC
:1011F0001B4908604FF07C501A49086000201A49CA
:10120000086009E01A48164908604FF03F40154948
:1012100008600020144908600DE000200C490870A7
:101220000C49087011480E49086000200D490860FB
:101230000D49086000BF00BF04E00548007808B110
:10124000FFF7AEFE0EBD0000B1000020A0000020A0
:101250009C0000209D000020A40000209A9999BEC7
:101260008C0000209000002094000020CDCCCC3ECB
:10127000CDCC4C3E00BFFEE710B502460B46002029
:10128000012B08D1002104E0084C645C60404C1C38
:10129000E1B29142F8DB43B9002104E0044C645C04
:1012A00060404C1CE1B29142F8DB10BD44050020C7
:1012B0003801002000B5002200BF05E00449885C29
:1012C00004F030F9501CC2B2182AF7DB00BD000050
:1012D00044050020704700002DE9F04704460D4604
:1012E00029462046FEF7C5FF2E49086008460168DA
:1012F0002D480068FEF768FF2B4908602B492A48F3
:101300000068FFF749FA03D228482749086008E037
:10131000274925480068FFF735FA02D224482249B8
:101320000860244801681F480068FEF79FFF814657
:10133000214801684846FEF79FFF80461F49FEF797
:10134000CDFF0646184801681D480068FEF794FF67
:1013500082461A49FEF7C2FF8046124801681948C2
:101360000068FEF789FF82461449FEF7B7FF814601
:101370004146FEF729FF07463146FEF725FF124991
:101380000860084800680B4908601048006802F0CF
:10139000AAFF012802D10020034908600A4800681A
:1013A000BDE8F087240100202C01002000007A44D1
:1013B00000007AC430010020340000200000C84240
:1013C000300000202C000020280100200800002010
:1013D0002DE9F04706460D461746464C3A46294643
:1013E000304602F049F94448066845688768434832
:1013F000016843480068FEF7E7FE82463946FEF77B
:101400003BFF804629463046FEF7DEFE81464146D8
:10141000FEF72CFF3B49886038480168384800686F
:10142000FEF7D2FE82463946FEF726FF804685F05B
:10143000004A31465046FEF7C7FE81464146FEF758
:1014400015FF314988602D4801682D480068FEF776
:10145000BBFE82463946FEF70FFF804629463046DE
:10146000FEF7B2FE81464146FEF7AEFE2749886090
:101470002248016822480068FEF7A6FE82463946E7
:10148000FEF7FAFE804685F0004A31465046FEF7E8
:101490009BFE81464146FEF797FE1D49886084F019
:1014A0000048184922468868414604F026F8154944
:1014B000886084F00048144922468868414604F058
:1014C0001CF81149886084F0004810492246886859
:1014D000414604F012F80D49886084F000480C4938
:1014E00022468868414604F008F809498860BDE84A
:1014F000F0870000000060400C260020140000204F
:1015000010000020CC250020D8250020E425002054
:10151000F025002000B587B001210D2001F0FAFB75
:101520000121084601F0E6FB0121274800F046FAB8
:101530004FF40040ADF8180004208DF81B0006A9F8
:10154000224800F0AFF90820ADF8180006A920489D
:1015500000F0A8F903A802F0BDFE0020ADF80C00D1
:101560004FF6FF70ADF810000020ADF81200ADF896
:101570000E0003A94FF0804002F05AFE00231A46E5
:1015800003214FF0804002F02EFC684602F0B4FCCC
:101590000A20ADF808006946400702F057FC012117
:1015A000880702F0FFFB01221146900702F0ADFC14
:1015B00000214FF0804002F00CFE0121880702F06C
:1015C000F7FB07B000BD0000000118000008014053
:1015D000000C014000B587B00121042001F09AFB06
:1015E0000121022001F086FBC020ADF81800042084
:1015F0008DF81B0006A91C4800F054F903A802F05E
:1016000069FE0020ADF80C004FF6FF70ADF8100039
:101610000020ADF81200ADF80E0003A9134802F047
:1016200007FE00231A460321104802F0DCFB68463F
:1016300002F062FC0A20ADF8080069460B4802F08F
:1016400005FC0121094802F0ADFB012211460748C3
:1016500002F05BFC0021054802F0BBFD01210348BC
:1016600002F0A6FB07B000BD0008014000040040E6
:1016700000B587B00121082001F04CFB01210420B6
:1016800001F038FBC020ADF8180004208DF81B00D5
:1016900006A91C4800F006F903A802F01BFE002072
:1016A000ADF80C004FF6FF70ADF810000020ADF85B
:1016B0001200ADF80E0003A9134802F0B9FD002393
:1016C0001A460321104802F08EFB684602F014FC13
:1016D0000A20ADF8080069460B4802F0B7FB01216B
:1016E000094802F05FFB01221146074802F00DFC99
:1016F0000021054802F06DFD0121034802F058FB6E
:1017000007B000BD000C01400008004000B587B0E4
:101710000121042001F0FEFA0121082001F0EAFA7B
:101720000320ADF8180004208DF81B0006A91C4802
:1017300000F0B8F803A802F0CDFD0020ADF80C00D1
:101740004FF6FF70ADF810000020ADF81200ADF8B4
:101750000E0003A9134802F06BFD00231A46032173
:10176000104802F040FB684602F0C6FB0A20ADF8C4
:10177000080069460B4802F069FB0121094802F0A4
:1017800011FB01221146074802F0BFFB002105486A
:1017900002F01FFD0121034802F00AFB07B000BD63
:1017A00000080140000C00402DE9F04704460D46BA
:1017B00029462046FEF75DFD2F490860084601686E
:1017C0002E480068FEF700FD2C4908602C492B4884
:1017D0000068FEF7E1FF03D229482849086008E0C5
:1017E000284926480068FEF7CDFF02D22548234944
:1017F00008602548016820480068FEF737FD8046EC
:10180000224923480068FEF769FD81464146FEF7FC
:1018100033FD06461D491F480068FEF75FFD8246FE
:10182000164801685046FEF727FD804617491A48BA
:101830000068FEF753FD82460F4801685046FEF7E8
:101840001BFD81464146FEF7BFFC07463146FEF7C9
:10185000BBFC12490860084800680B490860104842
:10186000006802F040FD012802D100200349086011
:101870000A480068BDE8F087140100201C01002020
:1018800000007A4400007AC4200100200000C84211
:10189000400000203C0000203800002018010020FB
:1018A000080000202DE9F041024600250026002016
:1018B00000230024002791F803C00CF00F0591F8D5
:1018C00003C00CF0100CBCF1000F03D091F802C063
:1018D0004CEA050591F800C0BCF1000F31D0146846
:1018E00000202BE04FF0010C0CFA00F3B1F800C01F
:1018F0000CEA03069E4220D183004FF00F0C0CFA35
:1019000003F7BC4305FA03FC4CEA040491F803C056
:10191000BCF1280F06D14FF0010C0CFA00FCC2F804
:1019200014C00AE091F803C0BCF1480F05D14FF094
:10193000010C0CFA00FCC2F810C0401C0828D1D3DE
:101940001460B1F800C0BCF1FF0F34DD5468002012
:101950002EE000F1080C4FF0010808FA0CF3B1F882
:1019600000C00CEA03069E4221D183004FF00F0C09
:101970000CFA03F7BC4305FA03FC4CEA040491F8A3
:1019800003C0BCF1280F05D100F1080C08FA0CF8CF
:10199000C2F8148091F803C0BCF1480F07D100F1E0
:1019A000080C4FF0010808FA0CF8C2F81080401C2F
:1019B0000828CED35460BDE8F0810000F0B50A4697
:1019C000002300240021002500F00046B6F1004F5E
:1019D00002D11D4EF16901E01B4E7168C0F3034551
:1019E00083B200F44016B6F5401F08D121F07061B3
:1019F000154E766826F07066134F7E6012E000F494
:101A00008016B6F5801F06D1032606FA05F4A14319
:101A100041F0706106E0460D360103FA06F6B14367
:101A200041F0706122B1460D360103FA06F63143EA
:101A300000F00046B6F1004F02D1034EF16101E023
:101A4000014E7160F0BD000000000140416170472F
:101A500010B504460723012221460948FFF778F80C
:101A600001210748FFF7D5F800BF02210448FFF71E
:101A700034F80028F9D00248FFF72BF810BD000019
:101A8000002401402DE9FF5F052001F0BDF9474921
:101A90000860032001F0B8F944494860042001F0CF
:101AA000B3F942498860022001F0AEF93F49C860AD
:101AB000084600680390084640680290084680681F
:101AC00001900846C06800906422039901FB02F06F
:101AD000FEF7D8FD82464FF03332354BFEF7E3FC7C
:101AE00080464FF0C042334BFEF7DDFC0646002235
:101AF000314BFEF74AFD0446FEF728FE2F490860E9
:101B00006422029901FB02F0FEF7BCFD06464FF08D
:101B10003332274BFEF7C7FC04464FF0C042254B3B
:101B2000FEF7C1FC80460022234BFEF72EFD8246C5
:101B3000FEF70CFE224908606422019901FB02F0C5
:101B4000FEF7A0FD80464FF03332194BFEF7ABFC99
:101B500006464FF0C042174BFEF7A5FC0446002294
:101B6000154BFEF712FD8246FEF7F0FD15490860A1
:101B70006422009901FB02F0FEF784FD80464FF0DD
:101B800033320B4BFEF78FFC06464FF0C042094B39
:101B9000FEF789FC04460022074BFEF7F6FC82465E
:101BA000FEF7D4FD08490860BDE8FF9FFC25002032
:101BB0003333B33FFB21094000409340CC25002044
:101BC000D8250020E4250020F02500202DE9F04153
:101BD00007460C460025002608E03846FFF738FF88
:101BE0000544052003F080FB701CC6B2A642F4DB5E
:101BF000B5FBF4F080B2BDE8F08100BFFEE7000065
:101C00002DE9F04704460D4629462046FEF731FBF4
:101C10001E490860084601681D480068FEF72CFB55
:101C200080461C48016819480068FEF71FFB814682
:101C3000194801684846FEF71FFB07464146FEF774
:101C4000C3FA0646154801683046FEF7BDFA134947
:101C50000860134911480068FEF79EFD02D2104843
:101C60000E4908600F490D480068FEF78BFD02D24F
:101C70000C480A490860054800680649086007489A
:101C80000068FEF71DFDBDE8F0870000D4000020CD
:101C90001C000020DC00002018000020D8000020DC
:101CA0000000E1450000E1C52DE9F04704460D467E
:101CB00029462046FEF7DDFA1E49086008460168FD
:101CC0001D480068FEF7D8FA80461C48016819488C
:101CD0000068FEF7CBFA8146194801684846FEF7CE
:101CE000CBFA07464146FEF76FFA064615480168EB
:101CF0003046FEF769FA1349086013491148006835
:101D0000FEF74AFD02D210480E4908600F490D48FF
:101D10000068FEF737FD02D20C480A490860054802
:101D200000680649086007480068FEF7C9FCBDE87E
:101D3000F0870000E00000201C000020E8000020E8
:101D400018000020E40000200000E1450000E1C58B
:101D50002DE9F04704460D4629462046FEF789FA4C
:101D60001E490860084601681D480068FEF784FAAD
:101D700080461C48016819480068FEF777FA8146DA
:101D8000194801684846FEF777FA07464146FEF7CC
:101D90001BFA0646154801683046FEF715FA134946
:101DA0000860134911480068FEF7F6FC02D210489B
:101DB0000E4908600F490D480068FEF7E3FC02D2A7
:101DC0000C480A4908600548006806490860074849
:101DD0000068FEF775FCBDE8F0870000EC0000200D
:101DE0001C000020F400002018000020F00000205B
:101DF0000000E1450000E1C52DE9F04704460D462D
:101E000029462046FEF735FA1E4908600846016853
:101E10001D480068FEF730FA80461C4801681948E2
:101E20000068FEF723FA8146194801684846FEF724
:101E300023FA07464146FEF7C7F9064615480168EA
:101E40003046FEF7C1F9134908601349114800688C
:101E5000FEF7A2FC02D210480E4908600F490D4857
:101E60000068FEF78FFC02D20C480A49086005485A
:101E700000680649086007480068FEF721FCBDE8D5
:101E8000F0870000F80000201C0000200001002066
:101E900018000020FC0000200000E1450000E1C522
:101EA00001480078704700009C0000200146490668
:101EB000084A926942F00102064B9A61064A52684A
:101EC00022F0E062044B5A601A4652680A435A6094
:101ED00070470000001002400000014008B50121D9
:101EE000082000F017FF4FF40040ADF80000482034
:101EF0008DF8030069460248FFF7D4FC08BD0000D6
:101F0000000C014010B50024322003F055F80446BF
:101F1000012C0FD11848007801282CD117480078DF
:101F2000401C1649087008460078032823D1002079
:101F3000087020E0022C1ED10F48007860B9012003
:101F40000D49087000200D4908700D4908600D49C1
:101F500008600D4908600EE00748007801280AD1A2
:101F600000200749086007490860074908600249DE
:101F700008700249087010BD0D0000200C00002000
:101F80008C000020900000209400002008B5012162
:101F9000082000F0BFFE4FF48040ADF80000102094
:101FA0008DF8030003208DF8020069460148FFF711
:101FB00079FC08BD000C01400448006808B9012004
:101FC00000E000200149086070470000B88121420C
:101FD0002DE9F04100262B482B49086000242AE017
:101FE0002A4901EBC40148682949FEF7D5FB21D2F3
:101FF000264901EBC40148682649FEF7C3FB19D204
:102000002548006848B9214830F834002349086061
:1020100021480068401C204908601C4830F83410F2
:102020001E4800686430814204D2701CC6B2174852
:1020300030F83450641CB4F5E17FD1DB17480068F8
:10204000FEF71BFB07462846FEF717FB804639467E
:10205000FEF726FF124908600A480B490860002075
:10206000104908601EB90E4908600E4908600D4805
:1020700002680B48016804480068FFF7A9F9BDE849
:10208000F08100009A99993E8C0000207405002090
:102090000000864300008843C0000020BC000020F0
:1020A00090000020940000202DE9F0470024002536
:1020B0000026002700BF58E0434901EBC4014868EF
:1020C0004249FEF769FB07D33F4901EBC401486869
:1020D0003F49FEF757FB47D23B4830F83400002811
:1020E00042DD394830F83400B0F5E17F3CDA681C55
:1020F000C5B2354901EBC40148683549FEF742FBDA
:102100000FD23046FEF7B0FA81462F4800EBC400EC
:1021100041684846FEF758F88046FEF7D1FA064671
:102120001AE0294901EBC40148682849FEF734FB4D
:1021300012D2254901EBC40148682649FEF796F8FA
:1021400081463046FEF790FA82464946FEF73CF853
:102150008046FEF7B5FA06461B4830F83400B0F565
:10216000967F01DA781CC7B2641CB4F5E17FA3DB6B
:1021700019481A4908601DB900201949086018E07B
:10218000082F06DD1748154908600020144908602B
:102190000FE0002E07DD0020104908604FF07E5050
:1021A0000F49086005E000200C4908600E480C4902
:1021B00008600B4802680D48016808480068FFF78E
:1021C00007F9BDE8F0870000740500200000964381
:1021D000000070420000B4439A99993E8C000020A0
:1021E000940000209A9999BE000080BF90000020C2
:1021F0002DE9F04100264FF6FF75002419E06C48E8
:1022000030F83400642813DD694830F83400B0F544
:10221000C86F0DDA761C664830F83400A84207DA39
:10222000634830F8345000EBC400406861490860EE
:10223000641CB4F5E17FE2DB5F495E480068FEF7AD
:10224000ABFA06D25D495B480068FEF70FF85949C2
:1022500008605B48016857480068FEF707F80746C2
:102260005849FEF799FA0AD3554801685148006861
:10227000FDF7FCFF07465449FEF784FA0ED2534897
:102280000078401CC0B2514908701E280DDD0020A6
:102290000870484800684A49086006E000204B4939
:1022A00008704448006846490860062E12DA48481B
:1022B0000088282804DA46480088401C44490880E1
:1022C00043480088282868DB0020424908604249CA
:1022D000086062E000203E49088040493D480068AF
:1022E000FEF75AFA05D33E493A480068FEF74AFA23
:1022F00020D2B5F52F7F13DA3A4931480068FEF74E
:102300004BFA05D338492E480068FEF73BFA07D24E
:102310002B4801683548FDF7AFFF2F4908600CE0F6
:10232000002127480068FFF73FFA80F000402A4963
:10233000086002E00020284908602D491D48006817
:10234000FEF72AFA05D32B491A480068FEF71AFA55
:1023500012D22846FEF791F907462749FEF7BCFF3F
:1023600080F000401B490860154801681F48FDF7D0
:1023700083FF1949086008E02846FEF77EF9074602
:102380001D49FEF7A9FF134908601C4A1C49114862
:10239000006803F0B2F80F4908600F480268194856
:1023A00001680C480068FFF713F8BDE8F0810000F1
:1023B00074050020C8000020000034430000B4432E
:1023C000CC00002000002041000020C1D0000020EF
:1023D000C40000208C000020940000208FC2753DB6
:1023E0008FC275BD00007042000070C2211FF4BC96
:1023F00000001643000016C30000C8439A99193F15
:102400009A9919BF9000002010B50020114908705A
:102410001149087011490870114908701149087074
:102420001149087011490860114908601149086094
:10243000642002F059FF00F01BFD012240F22551FB
:102440000D4802F0CDF90DA002F044F914A002F0FD
:1024500041F910BDB2000020B3000020B4000020FC
:10246000B5000020B6000020B70000208C0000203E
:102470009000002094000020004800404C696E65E8
:1024800020466F6C6C6F7765722053656E736F7248
:1024900020496E697469616C697A65640D0A00008F
:1024A0004D6F64653A204175746F204C6576656C9C
:1024B000202831290D0A000030B58DB04E48007833
:1024C00040B900204D4908604D4908604D490860F9
:1024D0000DB030BD4C48007800286ED04B480078D5
:1024E00002F0FDFF04464AA002F0F4F807250BE0D5
:1024F0000120A840204018B149A002F0EBF802E00A
:1025000048A002F0E7F86D1E002DF1DA23463F489F
:10251000027845A1684602F0F5FA684602F0DAF85A
:10252000FF2C00D054B900203449086034490860B9
:102530003449086042A002F0CDF857E004F01800DA
:1025400018280CD14FF07C502C49086000202C49F1
:1025500008602C4908603EA002F0BCF846E004F098
:10256000E00060B10020254908603E482449086029
:102570000020244908603CA002F0ACF836E004F0EA
:10258000070060B100201D4908603C481C490860F4
:1025900000201C4908603AA002F09CF826E0802C3C
:1025A0000CD1002015490860154908603A481549C2
:1025B00008603AA002F08EF818E01BE0012C0BD165
:1025C00000200E4908600E4908603A480D4908602D
:1025D00039A002F07FF809E00020084908600849A6
:1025E0000860084908603AA002F074F80020064923
:1025F000087000BF00BF6BE7B10000208C00002016
:102600009000002094000020B3000020B2000020C1
:1026100053656E736F72204C6576656C733A20005B
:10262000312000003020000028307825303258203A
:102630002D3E20307825303258290D0A0000000048
:10264000416374696F6E3A2053746F700D0A000015
:10265000416374696F6E3A20466F72776172640DE0
:102660000A000000CDCCCC3E416374696F6E3A2005
:102670005475726E204C6566740D0A00CDCCCCBECC
:10268000416374696F6E3A205475726E20526967A7
:1026900068740D0A00000000000020404163746966
:1026A0006F6E3A20537472616665204C6566740DD6
:1026B0000A000000000020C0416374696F6E3A2078
:1026C0005374726166652052696768740D0A000070
:1026D000416374696F6E3A20556E6B6E6F776E2032
:1026E0002D2053746F700D0A0000000000BFFEE73C
:1026F00000200349086003490860034908607047E7
:102700008C000020900000209400002008B501F00B
:1027100051FE30B101F05AFE0090684600F066FCB0
:1027200000BF08BD08B50121382000F0F3FA1020E1
:102730008DF8030003208DF802004FF44C70ADF8C3
:10274000000069461148FFF7ADF84FF44C710F488F
:10275000FFF77CF947F20400ADF8000069460C4829
:10276000FFF7A0F847F204010948FFF76FF90420CA
:10277000ADF8000069460748FFF794F804210548C2
:10278000FFF764F900200449086008BD000C01400F
:1027900000100140001401408801224210B500BF22
:1027A00000201749086017490880091D0880091D85
:1027B0000880091D08801449C1F8B80110492C315E
:1027C000086012490860091F08600D492831086037
:1027D0000F4908600D4910390860091F086000BFE3
:1027E000C82002F081FD012005490860002005494C
:1027F0000880091D0880091D0880091D088010BD7A
:10280000880122423434014000002242A481214246
:10281000888122427047000070B5002100230F22FA
:10282000C47804B3154C246804F4E064C4F5E0648F
:10283000210AC1F10403CA40447804FA03F1847800
:102840001440214309010E4C0678A155047804F088
:102850001F050124AC4005786D11AD0005F1E025A0
:10286000C5F8004109E0047804F01F050124AC40DC
:10287000044D0678761145F8264070BD0CED00E059
:1028800000E400E080E100E002490143024A1160F7
:10289000704700000000FA050CED00E030B50024A0
:1028A0000CE0002506E00020074901EBC5010855B2
:1028B000681CC5B2802DF6DB601CC4B2082CF0DBAE
:1028C00000F0F8F830BD000044010020F0B51446D7
:1028D00000267F2801DC3F2900DDF0BD0B46CF1725
:1028E00001EB5777FF10C7F10707FAB2CF1701EBDB
:1028F0005777FF10A1EBC707FDB2C5F1070701230A
:10290000BB40DEB24CB10A4B03EBC0039B5C3343CC
:10291000074F07EBC007BB5408E0054B03EBC003B0
:102920009B5CB343024F07EBC007BB5400BFD4E727
:102930004401002008B50220FFF7B8FA0120FFF794
:10294000B5FA0121082000F0E5F90121142000F07A
:10295000E1F94FF40050ADF8000010208DF80300AD
:1029600003208DF8020069464D48FEF79BFF4FF4A7
:102970008050ADF8000010208DF8030003208DF882
:10298000020069464648FEF78DFF1020ADF80000B2
:102990008DF8030003208DF8020069464148FEF7D8
:1029A00081FF2020ADF8000010208DF803000320E7
:1029B0008DF8020069463C48FEF774FF00203B4951
:1029C0000860642002F090FC01203949C1F89001B0
:1029D0000021AE2000F054F90021D52000F050F97C
:1029E0000021502000F04CF90021A82000F048F907
:1029F00000213F2000F044F90021D32000F040F9ED
:102A00000021084600F03CF90021402000F038F990
:102A100000218D2000F034F90021142000F030F95D
:102A20000021202000F02CF90021022000F028F9DC
:102A30000021A12000F024F90021C02000F020F99D
:102A40000021DA2000F01CF90021122000F018F912
:102A50000021812000F014F90021EF2000F010F98E
:102A60000021D92000F00CF90021F12000F008F934
:102A70000021DB2000F004F90021302000F000F9F3
:102A80000021A42000F0FCF80021A62000F0F8F8B6
:102A90000021AF2000F0F4F8FFF700FF08BD0000B0
:102AA000000C01400010014000080140900122424A
:102AB0000000224230B500241CE004F1B001C8B28D
:102AC000002100F0DDF80021084600F0D9F80021CF
:102AD000102000F0D5F8002508E0084901EBC501F9
:102AE000085D012100F0CCF8681CC5B2802DF4DB34
:102AF000601CC4B2082CE0DB30BD000044010020A3
:102B00002DE9F04F80460C4615461E46A346A5F11A
:102B10002000C5B200273EE00C2E07D105EB450092
:102B20001F4901EB800010F8079004E01D4800EBFE
:102B3000051010F807904FF0000A26E009F0800019
:102B400028B121464046099AFFF7C0FE09E00998DE
:102B500008B9012000E00020024621464046FFF768
:102B6000B5FE4FEA49604FEA1069601CC4B2A4EB9D
:102B70000B00B04205D15C4608F1010000F0FF08EF
:102B800006E00AF1010000F0FF0ABAF1080FD5DBF8
:102B900000BF781CC7B2B742BEDBBDE8F08F0000B3
:102BA00040550008B45900082DE9FF4F81B0074691
:102BB00091461E460E9D4FF0000A002439E0301B5E
:102BC000401EC1B20A2002F07FFCB9FBF0F00A21DE
:102BD000B0FBF1F201FB1208BAF1000F16D1701E22
:102BE000A04213DDB8F1000F0ED10120AB4605EB7A
:102BF000DB71491001FB04710090C8B22B46202202
:102C00000299FFF77DFF12E04FF0010A0120AB4669
:102C100005EBDB71491001FB04710090C8B208F1AB
:102C20003001CAB22B460299FFF76AFF00BF601C51
:102C3000C4B2B442C3DB05B0BDE8F08F78B5054639
:102C40000E46144618E07A2D03DD002506F110002B
:102C5000C6B23A2E04DD002005460646FFF71EFEEA
:102C60000120009022780C2331462846FFF748FFC8
:102C700005F10800C5B2641C20780028E3D178BDB6
:102C800010B50A461AB10123114C236002E000235B
:102C90000F4C2360002114E000230E4C236000F051
:102CA00080031BB10123241F236003E00023094C90
:102CB000241F23600123074C23604306180E4B1C7E
:102CC000D9B20829E8DB0123014C236010BD0000C4
:102CD00094012142B4812142704700000146002046
:102CE000034A506820F44040084350607047000099
:102CF0000010024029B1064AD2690243044BDA614E
:102D000004E0034AD2698243014BDA617047000054
:102D10000010024029B1064A92690243044B9A61AD
:102D200004E0034A92698243014B9A6170470000B4
:102D30000010024030B500210022002400232D4D58
:102D40006D6805F00C0121B1042905D0082923D1B3
:102D500005E0294D056022E0274D05601FE0254D67
:102D60006D6805F47012234D6D6805F480340225FA
:102D700005EB92421CB9214D554305600BE01D4DFA
:102D80006D6805F400351DB11C4D5543056002E02A
:102D9000194D5543056002E0174D056000BF00BFA7
:102DA000144D6D6805F0F0010909154D6B5C05685F
:102DB000DD4045600F4D6D6805F4E061090A104D76
:102DC0006B5C4568DD4085600A4D6D6805F46051B7
:102DD000C90A0B4D6B5C4568DD40C560054D6D68EB
:102DE00005F44041890B074D6B5CC568B5FBF3F5F5
:102DF000056130BD0010024000127A0000093D005C
:102E00006C0000207C0000200146022906D0032926
:102E10000DD0042912D005291ED116E04FF08042B2
:102E2000928C10B200224FF080439A8416E00C4A34
:102E3000128810B200220A4B1A800FE0094A128849
:102E400010B20022074B1A8008E0074A128810B21D
:102E50000022054B1A8001E0002000BF00BF704730
:102E60002404004024080040240C00407047000067
:102E700010B588B055208DF81800AA208DF81900DB
:102E800001208DF81A0000208DF81B00FE208DF81F
:102E90001C0011A001F01EFC002416E006A8025D33
:102EA00014A101A801F02EFE01A801F013FC06A850
:102EB000015D124801F02BFD00BF80210F4801F099
:102EC00058FC0028F9D0601CC4B2052CE6DB0CA02D
:102ED00001F000FC08B010BD53656E64696E672098
:102EE0006175746F206D6F646520636F6D6D616EC9
:102EF000643A20002530325820000000004800408D
:102F00000D0A000010B500F001F810BD0CB500204E
:102F1000019000903348006840F4803031490860E7
:102F200000BF3048006800F4003000900198401C59
:102F30000190009818B90198B0F5A06FF1D1294817
:102F4000006800F4003010B10120009001E0002082
:102F500000900098012843D12348006840F01000F9
:102F6000214908600846006820F003000860084610
:102F7000006840F0020008601A484068194948603B
:102F80000846406848600846406840F480604860F1
:102F90000846406820F47C1048600846406840F4C9
:102FA000E81048600846006840F08070086000BF84
:102FB0000C48006800F000700028F9D0094840680B
:102FC00020F00300074948600846406840F00200CE
:102FD000486000BF0348406800F00C000828F9D1A1
:102FE0000CBD0000001002400020024010B5044655
:102FF00000201C49086028E01B481A4A126800EBB0
:1030000002112046FDF7D2F8D0B9FDF7C9FF1648E6
:103010001449096800EB011040681449086012481F
:103020001049096800EB01108068114908600E48DA
:103030000C49096800EB0110C0680E49086010BD1A
:1030400008480068401C07490860064800681728BF
:10305000D2D3002005490860054908600549086089
:1030600000BFECE798000020E46900088C00002015
:10307000900000209400002030B500280ADA0124D6
:103080002F4D2C6000242F4DC5F8B44144422E4DE5
:103090002C8008E000242A4D2C600124294DC5F81D
:1030A000B441294D288000290BDA0124274D2C60DA
:1030B0000024274DC5F8A0414C42234D2D1D2C80E6
:1030C00009E00024214D2C600124214DC5F8A041C8
:1030D0001D4D2D1D2980002A0CDA0124184D083DB4
:1030E0002C6000241B4DC5F888415442164D083D04
:1030F0002C800AE00024124D083D2C600124154D5F
:10310000C5F88841104D083D2A80002B0CDA0124B7
:103110000E4D103D2C6000240D4DC5F890415C42D1
:10312000094D2D1F2C800AE00024084D103D2C6015
:103130000124074DC5F89041034D2D1F2B8030BD54
:10314000B8012242000022423C340140A4812142C5
:103150000080214200802242F8B54FF48061FA4895
:10316000FDF70DF8F9A200210846FFF767FDF848C2
:10317000007828B9F7A200215020FFF75FFD08E092
:10318000F3480078012804D1F4A200215020FFF771
:1031900055FDF4A20A210020FFF750FDF24908680E
:1031A0000021FDF7F9FA16D2F0A20A211220FFF74A
:1031B00045FDED490868EE49FDF75EF80546FDF767
:1031C00098FA04460C20052322460A2100901E206E
:1031D000FFF7EAFC18E0E7A20A211220FFF72EFD14
:1031E000E148006880F00046E1493046FDF744F8C8
:1031F0000546FDF77EFA04460C20052322460A21E7
:1032000000901E20FFF7D0FCD74988680021FDF709
:10321000C3FA16D2D5A20A214E20FFF70FFDD249DC
:103220008868D349FDF728F80546FDF762FA044699
:103230000C20052322460A2100905A20FFF7B4FCF7
:1032400018E0CCA20A214E20FFF7F8FCC64880689F
:1032500080F00046C6493046FDF70EF80546FDF7FA
:1032600048FA04460C20052322460A2100905A20E1
:10327000FFF79AFCC0A214210020FFF7DFFCBF4932
:1032800008680021FDF788FA16D2B8A2142112208E
:10329000FFF7D4FCB9490868B549FCF7EDFF0546CE
:1032A000FDF727FA04460C2005232246142100903E
:1032B0001E20FFF779FC18E0AEA214211220FFF7C0
:1032C000BDFCAE48006880F00046A9493046FCF7D6
:1032D000D3FF0546FDF70DFA04460C2005232246D0
:1032E000142100901E20FFF75FFCA449886800218C
:1032F000FDF752FA16D29DA214214E20FFF79EFC34
:103300009E4988689A49FCF7B7FF0546FDF7F1F931
:1033100004460C2005232246142100905A20FFF772
:1033200043FC18E093A214214E20FFF787FC93483A
:10333000806880F000468E493046FCF79DFF0546C8
:10334000FDF7D7F904460C200523224614210090EE
:103350005A20FFF729FC8AA21E210020FFF76EFCED
:10336000884908680021FDF717FA16D27FA21E21AE
:103370001220FFF763FC834908687D49FCF77CFF56
:103380000546FDF7B6F904460C20052322461E210A
:1033900000900846FFF708FC18E076A21E211220D4
:1033A000FFF74CFC7748006880F0004670493046D3
:1033B000FCF762FF0546FDF79CF904460C20052347
:1033C00022461E2100900846FFF7EEFB6D498868F3
:1033D0000021FDF7E1F916D264A21E214E20FFF76D
:1033E0002DFC684988686249FCF746FF0546FDF7F1
:1033F00080F904460C20052322461E2100905A2005
:10340000FFF7D2FB18E05BA21E214E20FFF716FC4F
:103410005C48806880F0004655493046FCF72CFF38
:103420000546FDF766F904460C20052322461E21B9
:1034300000905A20FFF7B8FB53A228210020FFF785
:10344000FDFB524908680021FDF7A6F916D247A2F4
:1034500028211220FFF7F2FB4C4908684449FCF789
:103460000BFF0546FDF745F904460C2005232246CF
:10347000282100901E20FFF797FB18E03DA228218D
:103480001220FFF7DBFB4148006880F00046384916
:103490003046FCF7F1FE0546FDF72BF904460C20FB
:1034A00005232246282100901E20FFF77DFB374987
:1034B00088680021FDF770F916D22CA228214E2031
:1034C000FFF7BCFB314988682949FCF7D5FE054662
:1034D000FDF70FF904460C20052322462821009011
:1034E0005A20FFF761FB18E022A228214E20FFF7A7
:1034F000A5FB2648806880F000461D493046FCF751
:10350000BBFE0546FDF7F5F804460C2005232246D0
:10351000282100905A20FFF747FB0D48007890B90A
:103520001B480078012805D11AA232210020FFF79C
:1035300085FB58E016480078A0BB18A23221002075
:10354000FFF77CFB4FE02EE0440100204D65630057
:103550000D00002020202020200000004C69646124
:1035600072000000413A0000CC2500202B00000032
:1035700000007A442D000000423A0000D8250020C7
:10358000433A0000E4250020443A0000F0250020E2
:103590000C0000204150502020200000524F5320AA
:1035A000202000000BE02748007801281BD1264886
:1035B000007828B925A232210020FFF73FFB12E056
:1035C00021480078022805D122A232210020FFF7ED
:1035D00035FB08E01C480078012804D11FA23221E5
:1035E0000020FFF72BFB1FA232213620FFF726FB1E
:1035F0001E4800686421B0FBF1F40C20022322462F
:10360000322100905420FFF7CFFA19A23221602016
:10361000FFF714FB154800686421B0FBF1F201FBD1
:1036200012040C2002232246322100906620FFF76C
:10363000BBFA10A232217220FFF700FBFFF73AFA23
:10364000F8BD00000D0000200C00002041766F69DD
:1036500064200000416C6F6E67200000466F6C6C48
:103660006F770000566F6C3A0000000008000020E1
:103670002E000000560000002DE9F04706460C46DB
:103680001546544F00213046FDF786F807D25249BF
:1036900008683946FCF798FD4F49086018E000219A
:1036A0003046FDF76FF807D24B4908683946FCF7FA
:1036B000DDFD494908600BE000213046FDF762F866
:1036C00006D1454908684549FCF7D6FD42490860DE
:1036D00000212046FDF760F807D23F494868394687
:1036E000FCF772FD3C49486018E000212046FDF7D8
:1036F00049F807D2384948683946FCF7B7FD3649DA
:1037000048600BE000212046FDF73CF806D1324925
:1037100048683249FCF7B0FD2F494860002128462F
:10372000FDF73AF807D22C4988683946FCF74CFD7A
:103730002949886018E000212846FDF723F807D2C0
:10374000254988683946FCF791FD234988600BE0DC
:1037500000212846FDF716F806D11F4988681F4941
:10376000FCF78AFD1C498860304601F0F9FD81466E
:10377000304601F0F5FD80F0004817494A460868D8
:10378000414601F0BAFE14490860204601F0E8FD08
:103790008146204601F0E4FD80F000480E494A468B
:1037A0004868414601F0A9FE0B494860284601F0EF
:1037B000D7FD8146284601F0D3FD80F00048064938
:1037C0004A468868414601F098FE03498860BDE892
:1037D000F0870000CDCCCC3D0C2600206666663F0D
:1037E00002480068401C0149086070474C000020F6
:1037F00010B51348006840F0010011490860084600
:103800004068104908400E494860084600680E4963
:1038100008400B4908600846006820F480200860D2
:103820000846406820F4FE0048604FF41F0088609E
:10383000FFF768FB4FF000600449086010BD00000E
:10384000001002400000FFF8FFFFF6FE08ED00E068
:10385000F0B50C46154600220021068C4FF6FE7787
:103860003E400684028B018C4FF60C7632407E1C63
:1038700006EA03162E433243104EB0420ED0104ECD
:10388000B0420BD0B0F1804F08D00E4EB04205D000
:103890000D4EB04202D00D4EB04206D14FF6FD762D
:1038A000314044F00106314305E04FF6F5763140F2
:1038B00044F00106314302830184F0BD002C014035
:1038C000003401400004004000080040000C0040AB
:1038D000F0B50C461546002200210026078C4FF655
:1038E000EF7C07EA0C070784028B018C4FF6FF7709
:1038F00007EA041640F6FF473A404FF6FF7707EA1B
:1039000003373A434FF6FF7707EA05273A43114F4B
:10391000B8420ED0104FB8420BD0B0F1804F08D053
:103920000E4FB84205D00E4FB84202D00D4FB842EC
:1039300006D14FF6DF77394046F01007394305E0EE
:103940004FF65F77394044F0100739430283018412
:10395000F0BD0000002C0140003401400004004094
:1039600000080040000C0040F0B50C46154600224F
:1039700000210026078C4FF6FF6C07EA0C0707842E
:10398000828B018C4FF6FF7707EA04264FF60C77FF
:103990003A404FF6FF7707EA03172F433A43114F98
:1039A000B8420ED0104FB8420BD0B0F1804F08D0C3
:1039B0000E4FB84205D00E4FB84202D00D4FB8425C
:1039C00006D14FF6FF57394046F48077394305E07A
:1039D0004FF2FF57394044F48077394382830184A2
:1039E000F0BD0000002C0140003401400004004004
:1039F00000080040000C0040F0B50C4615460022BF
:103A000000210026078C4EF6FF7C07EA0C0707848E
:103A1000828B018C4FF6FF7707EA043640F6FF47AA
:103A20003A404FF6FF7707EA05273A434FF6FF770C
:103A300007EA03373A43114FB8420ED0104FB8424D
:103A40000BD0B0F1804F08D00E4FB84205D00E4FCA
:103A5000B84202D00D4FB84206D14DF6FF7739403B
:103A600046F48057394305E047F6FF57394044F4A0
:103A70008057394382830184F0BD0000002C01404F
:103A8000003401400004004000080040000C0040E9
:103A90004FF08040008A4FF08040008A20F0010003
:103AA0004FF080410882704704480088034800882E
:103AB00020F0010001490880704700001004004018
:103AC000044800880348008820F00100014908806C
:103AD0007047000010080040044800880348008830
:103AE00020F001000149088070470000100C0040E0
:103AF0002DE9F0410121424800F096F900287BD0E1
:103B000001213F4800F051F93E480068401C3D4902
:103B1000086008460068642801DB00200860FDF7A3
:103B2000B1FFFEF7EFF93848007840B9374802682E
:103B30003748016837480068FDF74AFC16E032480C
:103B40000078012812D13448007810B9FEF7ACFA99
:103B50000CE031480078022802D1FEF739FA05E07E
:103B60002D480078012801D1FEF742FB2B48006860
:103B700000F0B9FB38BB2A4A91681068FEF740F89C
:103B80000446FCF771FD26494860264A9168106892
:103B9000FEF78AF80446FCF767FD22494860224A8E
:103BA00091681068FEF7D4F80446FCF75DFD1E49E5
:103BB00048601E4A91681068FEF71EF90446FCF73B
:103BC00053FD1A49486019494868FCF779FD0446D5
:103BD00015494868FCF774FD054612494868FCF72A
:103BE0006FFD06460E494868FCF76AFD0746234606
:103BF0002A463146FFF740FA0020BDE8F081000078
:103C000000100040B80000200D00002094000020AB
:103C1000900000208C0000200C00002008000020F4
:103C2000CC250020D8250020E4250020F025002008
:103C30007FB505460C4601211020FFF75BF8ADF873
:103C40000850ADF804400020ADF80600ADF80A00B9
:103C500001A90D4800F0ECFA012211460A4800F0D3
:103C600054F936208DF8000002208DF80100012063
:103C70008DF802008DF803006846FEF7CDFD0121A6
:103C8000014800F095F87FBD0010004010B5FDF729
:103C9000E5F910BD30B589B005460C460121480351
:103CA000FFF738F801211020FFF734F84FF4707057
:103CB000ADF8200010208DF8230003208DF822009D
:103CC00008A93048FDF7EEFD4FF470712D48FDF75F
:103CD000BDFEADF81850ADF814400020ADF81A0044
:103CE000ADF8160005A9284800F0A2FA6020ADF84A
:103CF00004000120ADF806000020ADF80800ADF882
:103D00000A00ADF80C00ADF80E00ADF81000ADF8EB
:103D1000120001A91C4800F001F901A91A4800F09D
:103D200053F901A9184800F0AFF901A9164800F0AD
:103D300005FA0821144800F03DF90821124800F066
:103D400095F90821104800F0EFF908210E4800F01D
:103D500033FA01210C4800F019F818208DF82300DF
:103D600008A90848FDF79EFD0121074800F020F84A
:103D70000121054800F028F800200349243108807B
:103D800009B030BD001001400034014021B102886B
:103D900042F08002028004E002884FF67F731A40EE
:103DA00002807047CA4302827047CA43028270474A
:103DB00021B1028842F00102028004E002884FF63D
:103DC000FE731A400280704731B1B0F8442042F4CB
:103DD0000042A0F8442005E0B0F84420C2F30E02EF
:103DE000A0F844207047F0B50C4615461E46002149
:103DF000002200230189028B038C4FF6F8773940AB
:103E000021434FF6FC473A4040F201173A434FF640
:103E1000DD773B404FF6FF7707EA06172F433B431A
:103E2000018102830384F0BD30B5024600200023E7
:103E30000024158A05EA0103958905EA010413B1F6
:103E40000CB1012000E0002030BD000070B5054637
:103E50000C46244885420ED0234885420BD0B5F14C
:103E6000804F08D02148854205D02148854202D0A4
:103E70002048854200D100E000BF208850B9238946
:103E8000A28861882846FFF7E3FCE188284600F015
:103E9000A2F925E0208804280AD12389A288618814
:103EA0002846FFF715FDE188284600F09DF917E048
:103EB000208808280AD12389A28861882846FFF72C
:103EC00053FDE188284600F09CF909E02389A28887
:103ED00061882846FFF790FDE188284600F09AF9AE
:103EE00070BD0000002C014000340140000400407F
:103EF00000080040000C00400021018041800121A9
:103F000081800021C180018170471AB183890B43F0
:103F1000838102E083898B438381704770B50024DD
:103F200000220023058C4FF6FE7635400584028C76
:103F30008388048B4FF68F752C40B51E2C400D885E
:103F40002C43751E2A400D892A434D882A43144D5F
:103F5000A8420BD0134DA84208D0134DA84205D05B
:103F6000124DA84202D0124DA84213D14FF6F77558
:103F70002A404D892A434FF6FB752A408D882A43F3
:103F80004FF6FF652B404FF6FF552B408D892B4395
:103F9000CD892B4383800483CD888586028470BDC0
:103FA000002C014000340140004001400044014029
:103FB000004801400A460021018B4FF6F773194073
:103FC000114301837047000070B5002400220023D4
:103FD000058C4FF6EF7635400584028C8388048B80
:103FE00048F6FF752C404FF6FF452C400D884FF6E4
:103FF000FF7606EA05252C434FF6DF752A400D892A
:1040000006EA05152A434D8806EA05152A43154D8B
:10401000A84202D0144DA8421DD14FF67F752A4008
:104020004D894FF6FF7606EA05152A434FF6BF7510
:104030002A408D8806EA05152A434FF6FF352B40A6
:104040004FF2FF752B408D8906EA85052B43CD89FC
:1040500006EA85052B4383800483CD880587028487
:1040600070BD0000002C0140003401400A460021D0
:10407000018B4FF2FF7319404FF6FF7303EA0223DF
:10408000194301837047000070B50024002200230B
:10409000058C4FF6FF6635400584028C8388848B3F
:1040A0004FF68F752C404FF6FC752C400D882C4335
:1040B0004FF6FF552A400D894FF6FF7606EA052593
:1040C0002A434D8806EA05252A43154DA84202D009
:1040D000144DA8421DD14FF2FF752A404D894FF66D
:1040E000FF7606EA05252A434FF6FF352A408D88DC
:1040F00006EA05252A434EF6FF752B404DF6FF755F
:104100002B408D8906EA05152B43CD8906EA051556
:104110002B4383808483CD888587028470BD000013
:10412000002C0140003401400A460021818B4FF6EB
:10413000F7731940114381837047000070B5002266
:1041400000230024058C4EF6FF7635400584038C51
:104150008488828B48F6FF752A404FF6FF452A4037
:104160000D884FF6FF7606EA05252A434DF6FF75C2
:104170002B400D8906EA05352B434D8806EA0535A7
:104180002B430B4DA84202D00A4DA84208D14BF652
:10419000FF752C408D894FF6FF7606EA85152C4376
:1041A00084808283CD88A0F84050038470BD0000D5
:1041B000002C0140003401400A460021818B4FF25F
:1041C000FF7319404FF6FF7303EA022319438183FB
:1041D000704781847047028B4FF6F3731A40028355
:1041E000028B0A4302837047028B4FF2FF331A405F
:1041F0000283028B4FF6FF7303EA01231A43028303
:104200007047828B4FF6F3731A408283828B0A4386
:1042100082837047828B4FF2FF331A408283828BF6
:104220004FF6FF7303EA01231A43828370470000AD
:10423000002202881D4B98420ED01D4B98420BD095
:10424000B0F1804F08D01B4B984205D01A4B9842D2
:1042500002D01A4B984204D14FF68F731A404B8804
:104260001A43174B984207D0164B984204D04FF68A
:10427000FF431A40CB881A4302808B8883850B88C2
:1042800003850A4B98420BD0094B984208D00E4B3D
:10429000984205D00D4B984202D00D4B984201D167
:1042A0000B7A03860123838270470000002C0140B3
:1042B000003401400004004000080040000C0040B1
:1042C0000010004000140040004001400044014044
:1042D000004801404FF6FF71818000210180C180BC
:1042E00041800172704701460020704710B540F2CE
:1042F0002551284800F04AFA002848D040F22551BC
:10430000244800F01BFA234800F0FCFAC4B222480B
:104310002249097844547B2C03D020480078002897
:1043200005DD1E480078401C1C49087002E0002092
:104330001A490870194800780B2828D1002017491D
:1043400008701548807A7D2821D100210920FCF7CA
:1043500093FF1149497A884219D100201049087009
:10436000104908700C4A1179D07800F08BFB0E4987
:104370000860094A9179507900F084FB0B49086084
:10438000054A117AD07900F07DFB094908600020C8
:1043900010BD0000003801403801002088000020D6
:1043A0000D0000200C0000208C0000209000002058
:1043B000940000200448007820B1002002490870D1
:1043C000012070470020FCE7B000002008B502483B
:1043D0000068009008BD0000AC00002003490A6896
:1043E00002604A684260896881607047BE2500208B
:1043F00010B540F22551334800F0C8F9002860D0CC
:10440000304800F07FFAC4B240F225512D4800F048
:1044100095F90A2C01D00D2C37D12B4800780028B3
:104420002FDD00202949284A12788854FBF79CFE8A
:10443000006826490978405C202813D1224800787A
:1044400001280BD121480078382803D01F48007874
:10445000392803D101201E49087012E001201D49AE
:1044600008700EE0FBF780FE006818490978405C90
:1044700000F0980028B11848007810B901201449BC
:1044800008700020104908701AE00F4800783F2893
:1044900016D2FBF769FE0068005D202808D02C2C9E
:1044A00006D0FBF761FE0068005D00F0980038B1AF
:1044B000054801780078401C034A107003484454B2
:1044C00000BF10BD00440040A80000207E25002051
:1044D000AA000020A9000020B100002000B587B08C
:1044E00001210520FEF716FC01214804FEF702FC1D
:1044F0000420ADF8180018208DF81B0003208DF85B
:104500001A0006A91C48FDF7CDF90820ADF81800DF
:1045100004208DF81B0006A91748FDF7C3F94FF4D6
:10452000E13002900020ADF80C00ADF80E00ADF8BF
:104530001000ADF814000C20ADF8120002A90F48CD
:1045400000F074F926208DF8040000208DF8050095
:104550008DF8060001208DF8070001A8FEF75CF930
:10456000012240F22551054800F03AF901210348A3
:1045700000F0F3F807B000BD00080140004400401F
:104580003EB53F480078002840D03E4800230093C5
:1045900001930293002100221AE00378302B0FDBF5
:1045A0000378392B0CDC0378303B3DF8114004EBE9
:1045B000840403EB44039BB22DF81130012206E082
:1045C00003782C2B03D112B14B1CD9B20022401C12
:1045D00003780BB10629E0DBBDF800302A4C2380BC
:1045E000BDF802306380BDF80430A380BDF806300A
:1045F000E380BDF808302381BDF80A3063810123D0
:10460000224C237000231E4C237000BF20480078EA
:10461000002833D003221B491E48FBF7BBFD0020B6
:104620001C49C8701CA11B48FBF7C0FD60B90120E4
:104630001A49087000201A4908601A4908601A4986
:104640000860FDF7B9FC16E018A11248FBF7AEFDB3
:1046500058B90020114908701149086011490860D3
:1046600011490860FDF7A8FC05E00C48007810B976
:1046700001200F4908700020054908703EBD000068
:10468000A90000207E250020BE250020AB000020D0
:10469000AA000020AC00002038000000B10000207B
:1046A0008C000020900000209400002039000000C1
:1046B000B000002010B504462146054800F027F957
:1046C00000BF8021024800F054F80028F9D010BD46
:1046D0000044004010B5044603E014F8010BFFF756
:1046E000E9FF20780028F8D110BD000004480078C8
:1046F00020B1002002490870012070470020FCE72B
:10470000AB00002010B540F22551094800F03EF8FA
:1047100068B1074800F0F6F8C4B2064804700120FA
:104720000549087040F22551014800F007F810BD16
:1047300000480040B2000020B300002010B5002265
:10474000002340F66A14A14200D100BF0A120124DE
:104750009440A3B2DC43048010BD21B1828942F4AD
:104760000052828104E082894DF6FF731A408281F3
:10477000704702460020B1F5007F00D100BF1388CA
:104780000B400BB1012000E00020704770B50246DD
:10479000002400230025002040F66A16B14200D113
:1047A00000BFC1F3421501F01F03012606FA03F30F
:1047B000012D02D19689334006E0022D02D1168ADE
:1047C000334001E0968A33400C12012606FA04F4C5
:1047D0001688344013B10CB1012000E0002070BDF8
:1047E000F0B50346002400260025002040F66A1795
:1047F000B94200D100BF1846C1F3421401F01F06B0
:10480000012707FA06F5012C01D10C3004E0022C37
:1048100001D1103000E014301AB107682F4307604F
:1048200002E00768AF430760F0BD00002DE9F047E4
:1048300086B005460E460024A24600BFA1460027CA
:10484000B08900B100BF2F462C8A4CF6FF7004409F
:10485000F08804432C82AC894EF6F3100440B088F3
:1048600031890843718908430443AC81AC8A4FF60F
:10487000FF400440B0890443AC8201A8FEF75AFA15
:104880001F48874202D1DDF810A001E0DDF80CA03E
:10489000A88900F4004040B10AEBCA0000EB0A10FE
:1048A00031684900B0FBF1F807E00AEBCA0000EB01
:1048B0000A1031688900B0FBF1F86420B8FBF0F011
:1048C00004012009642101FB1089A88900F400403B
:1048D00040B1322000EBC900B0FBF1F000F007005E
:1048E000044308E0322000EB09106421B0FBF1F032
:1048F00000F00F0004432C8106B0BDE8F0870000F3
:104900000038014001468888C0F308007047C1F3B1
:1049100008028280704700BFFEE7000010B586B035
:104920000446012144F20400FEF7F4F94FF400704C
:10493000ADF8140003208DF8160018208DF817002C
:1049400005A91C48FCF7AEFF4FF48060ADF81400D9
:1049500004208DF8170005A91648FCF7A3FF019461
:104960000020ADF80800ADF80A00ADF80C00ADF875
:1049700010000C20ADF80E0001A90F48FFF756FFFC
:1049800025208DF8000001208DF801008DF802002F
:104990008DF803006846FDF73FFF012240F22551E4
:1049A0000548FFF71DFF01210348FFF7D6FE06B0BB
:1049B00010BD0000000801400038014010B586B06D
:1049C000044601218804FEF795F901211120FEF724
:1049D000A1F901212848FCF7F1FF4FF48060ADF800
:1049E000140003208DF8160018208DF8170005A973
:1049F0002248FCF757FF4FF40060ADF81400042084
:104A00008DF8170005A91D48FCF74CFF0194002004
:104A1000ADF80800ADF80A00ADF80C00ADF81000D4
:104A20000C20ADF80E0001A91548FFF7FFFE272066
:104A30008DF8000001208DF801008DF802008DF83E
:104A400003006846FDF7E8FE012240F225510C48BC
:104A5000FFF7C6FE272000F01F0201219140420906
:104A6000920002F1E022C2F8001100BF01210448C7
:104A7000FFF773FE06B010BD1000140000100140D7
:104A8000004800402DE9FF5F0446894609EB0420F9
:104A90000FFA80FA4FF47A709AFBF0F100FB11AB39
:104AA0005846FBF7EFFD07460C4A0D4BFBF7FBFCA6
:104AB00005460E464FF47A709AFBF0F73846FBF73E
:104AC000E1FD2A463346CDE90001FBF745FCCDE97F
:104AD0000201FBF73BFE04B0BDE8F09FFCA9F1D258
:104AE0004D62503F0FB4054B10B503A9044A02981C
:104AF00000F02CF810BC5DF814FB0000795300089E
:104B0000680000200FB4084B10B504A902AA03984E
:104B100000F01CF8044602A9002000F048FA2046E4
:104B200010BC5DF814FB0000AF4F000802E008C89D
:104B3000121F08C1002AFAD170477047002001E017
:104B400001C1121F002AFBD1704700002DE9FF4F61
:104B50008DB00F460546002606E025280BD0DDE97E
:104B60000F1290476D1C761C28780028F5D111B0E3
:104B70003046BDE8F08F0024A246A1460122EC4950
:104B800000E0044315F8013F203B02FA03F008421D
:104B9000F7D128782A2810D06FF02F022878A0F1BA
:104BA0003001092914D80AEB8A0102EB410144F0D3
:104BB000020400EB010A6D1CF0E701CF5FEA000A76
:104BC00003D544F40054CAF1000A44F002046D1CF9
:104BD00028782E2817D115F8010F44F004042A284C
:104BE0000ED06FF02F022878A0F1300109290AD8E1
:104BF00009EB890102EB410100EB01096D1CF2E7B1
:104C000057F8049B6D1C28786C280FD006DC4C28C4
:104C100017D068280DD06A2814D104E0742810D069
:104C20007A280FD10DE044F400140AE044F4801413
:104C300001E044F440146978814202D104F5801403
:104C40006D1C6D1C2A786E2A1FD00CDC632A31D0B3
:104C500004DC002A8BD0582A11D1A3E0642A68D042
:104C6000692A0CD165E0732A2ED004DC6F2A73D038
:104C7000702A04D19BE0752A6FD0782A6ED0104636
:104C8000DDE90F129047761C50E1C4F30250022870
:104C900006D0032809D0042801CF09D0066045E1D9
:104CA00001CFF117C0E9006140E101CF06803DE18D
:104CB00006703BE117F8040B8DF8000000208DF81A
:104CC0000100EB46012003E057F804BB4FF0FF3032
:104CD00061074FF0000102D40DE008F101018846A0
:104CE00049450FDA8045F8DB1BF808100029F4D19C
:104CF00008E008F1010188468142FADB1BF8081040
:104D00000029F6D1DDE90F23AAEB080081462146F0
:104D100000F036F9304400EB080604E0DDE90F123C
:104D20001BF8010B9047B8F10108F7D2214648461D
:104D3000F7E00A21C4F302534FF0000B0891022B55
:104D400004D001CFC117032B09D00AE0FF1D27F0C3
:104D50000707F7E8020108E032E01FE020E000B2B8
:104D6000C117042B01D140B2C117031E71F100031A
:104D700007DA4FF0000CD0EB0C006CEB01012D2397
:104D800002E0230504D52B238DF82430012303E012
:104D9000E30701D02023F7E7984658E00A2110E006
:104DA00010210EE010204FF0000B08900CE01021B5
:104DB0004FF0000B44F004044FF00809089103E0A1
:104DC00008214FF0000B0891C4F30253022B04D0CA
:104DD00001CF0021032B06D006E0FF1D27F00707B7
:104DE000F7E8020103E080B2042B00D1C0B24FF01B
:104DF000000823072BD5702A07D0DDF820C08CF0DF
:104E0000100C5CEA0B0C05D00EE040238DF824302A
:104E1000012308E050EA010306D030238DF8243046
:104E20008DF8252002239846DDF820C08CF0080C70
:104E30005CEA0B0C0BD150EA010301D1630706D5E4
:104E400030238DF824304FF00108A9F10109582AC8
:104E500004D038A20B9208AA0A920BE03AA2F9E712
:104E60005B46089AFBF7A2FC0B9B9B5C0A9A521EBE
:104E70000A92137050EA0102F2D10A98ADEB0000D9
:104E800000F1200B600702D524F4803401E04FF0DC
:104E90000109D94502DDA9EB0B0000E0002000EB81
:104EA0000B0141440890AAEB010AE00306D4DDE9B6
:104EB0000F232146504600F063F806444FF00009E6
:104EC00008E009A911F80900DDE90F12904709F17E
:104ED0000109761CC145F4DBE0030CD5DDE90F23A5
:104EE0002146504600F04CF8064404E0DDE90F127C
:104EF00030209047761C0899481E08900029F5DC60
:104F000008E00A980A990078491C0A91DDE90F1215
:104F10009047761CBBF10001ABF1010BF1DC21469F
:104F20005046DDE90F2300F019F806446D1C1BE61E
:104F3000092801003031323334353637383961626F
:104F40006364656600000000303132333435363733
:104F50003839414243444546000000002DE9F04104
:104F6000044600251E461746880404D405E0394649
:104F70002020B0476D1C641EF9D52846BDE8F0819D
:104F80002DE9F041044600251E469046C80301D590
:104F9000302700E02027880404D505E04146384644
:104FA000B0476D1C641EF9D52846BDE8F0810A683B
:104FB000531C0B601070704701462D48006828B9DB
:104FC0002C480088401C2B4A108002E00020294A0F
:104FD00010802748006828B92748007810B90120B8
:104FE000254A107025480078B0B923480078012878
:104FF00007D123480078401C214A107001201F4A25
:1050000010701F480078022806D100201C4A10703A
:105010001C4A10800220704715480068012804D1FE
:105020000020154A1070154A1070154800780128A4
:105030001CD114480088401C124A10801046008879
:1050400088420ADD0B480088884206DA00200C4AB4
:1050500010700C4A10800120DDE706480088884265
:1050600004DD0020064A1070064A10800020D2E7B6
:105070003C81214286000020810000208200002027
:1050800083000020840000202DE9F05F7B207C4914
:1050900008767D217A4880F82E107A4A11687A4A7B
:1050A0001068FBF791F88046784801684046FBF7A6
:1050B0008BF80746764801683846FBF785F80646C0
:1050C0004FF08141FBF70AF905467249FBF7D4F826
:1050D0000446FBF7F5FA01B269484183694A116851
:1050E000694A1068FBF7C2F8804668480168404684
:1050F000FBF76AF80746664801683846FBF7B6F8DA
:1051000006464FF08141FBF7E9F805466149FBF798
:10511000B3F80446FBF7D4FA01B2594881835E48DC
:1051200001685E480068FBF74FF883465648006800
:1051300080F0004A534801685046FBF797F88146D3
:10514000524801684846FBF73FF8804650480168DE
:105150004046FBF739F807464FF08141FBF7BEF8B0
:1051600006465946FBF7BAF805464A49FBF784F864
:105170000446FBF7A5FA01B24148C1834848018CB7
:105180003F4841844648C08B404201B23C4881843C
:105190004348418C3A48C1844148418B3848018595
:1051A0003F48008B404201B2354841853C48818BE5
:1051B000334841853B48008800EB8000400001B245
:1051C0002F480184007E2E49087000204870084650
:1051D000408B000A88700846807EC8700846808B25
:1051E000000A08710846007F48710846C08B000A13
:1051F00088710846807FC8710846408C000A087292
:10520000084690F8220048720846808C000A88728E
:10521000084690F82400C8720846C08C000A08733B
:10522000084690F8260048730846008D000A8873E7
:10523000084690F82800C8730846408D000A087494
:10524000084690F82A0048740846808D000A887441
:10525000084690F82C00C8740846008C000A0875AF
:10526000084690F82000487501211620FCF704F844
:1052700003498875084690F82E00C875BDE8F09F70
:1052800044050020D8250020CC250020E42500205E
:10529000F025002000007A441400002010000020B7
:1052A000EE240020080000204FF0E021096921F0E1
:1052B00004014FF0E0221161C21700EB5272C2F3F9
:1052C000C702074B1A701946097801EB4102C2EB7D
:1052D000C1114FF6FF7202EAC101024A1180704704
:1052E000640000206600002001460D4A12884A43EF
:1052F0004FF0E0235A6100229A6101221A6100BF37
:105300004FF0E022106900F001021AB100F480327F
:10531000002AF5D000224FF0E0231A619A6170470D
:105320006600002001460D4A12784A434FF0E02300
:105330005A6100229A6101221A6100BF4FF0E022F7
:10534000106900F001021AB100F48032002AF5D091
:1053500000224FF0E0231A619A6170476400002038
:1053600010B5044600212046FBF716FA01D8204666
:1053700010BD84F00040FBE700BF054A128802F030
:105380004002002AF9D0C2B2014B1B1D1A8070479F
:1053900000380140FEF72CFA4FF4A060FDF774FAD4
:1053A0004820FFF781FFFDF7BDF94FF49670FFF736
:1053B0009BFFFCF7AFF8FCF70DF9FCF759F9FCF788
:1053C000A5F9FCF7E3FDFBF725FBFCF787FD4FF4A0
:1053D000E130FFF7A3FAFFF781F84FF4E130FFF770
:1053E000EDFAFDF7A7FA42F20F714720FEF720FC15
:1053F000FDF7D4F9002141F61F40FEF74BFC0020D9
:105400002B4908702B490870FDF772F9FBF7E2FD94
:10541000FCF7FAFF284800684FF47A72B0FBF2F10B
:10542000B1F1807F00D31DE021F07F40401E4FF09E
:10543000E022506150170F22002807DA13071D0ED3
:105440001E4B00F00F04241F1D5503E013071C0E14
:105450001B4B1C5400BF00204FF0E022906107203E
:10546000106100BF22E0FFF78BF816480078A0B962
:10547000FBF730FEFCF714FD08B9FDF747F9FCF720
:105480000FFD60B90A48007848B90A48007830B979
:10549000FFF7FAFDFBF70EFF01E0FDF70DF8FDF752
:1054A0005BFEFBF7C7FB6420FFF73CFFDBE7000078
:1054B0000D0000200C0000205000002018ED00E03E
:1054C00000E400E0B100002010B50246012000E039
:1054D00050430B1EA1F10104E1B2F9D110BD014608
:1054E0000020002206E04306180E01F001031843D5
:1054F0004910521C082AF6DB704770B506460D4667
:10550000144629463046FBF73DF901D2284670BDC6
:1055100021463046FBF740F901D22046F7E73046F6
:10552000F5E700000549088000BF0449091F098804
:1055300001F040010029F8D0704700000438014014
:10554000000000000000000000000000000000005B
:105550003F4000000000000000003000400030002C
:105560004000000009000BC03D000BC03D000900D9
:1055700018C024407FE0224031800000180024C081
:105580001B000D803240018003801C4027401C809E
:105590000740004010006000000000000000000014
:1055A0000000000000001F8020404020000040203C
:1055B00020401F8000000000090006001F80060038
:1055C00009000000040004003F8004000400000003
:1055D0000010006000000000000000000400040053
:1055E000040004000400000000000040000000006F
:1055F00000000000002001C006003800400000004C
:105600001F802040204020401F80000000001040EC
:105610003FC000400000000018C02140224024404C
:105620001840000010802040244024401B800000CF
:1056300002000D0011003FC0014000003C802440EA
:1056400024402440238000001F8024402440344014
:10565000038000003000200027C038002000000038
:105660001B802440244024401B8000001C0022C0DA
:10567000224022401F80000000000000084000007F
:1056800000000000000000000460000000000000B6
:10569000000004000A0011002080404009000900B9
:1056A00009000900090000000000404020801100AE
:1056B0000A00040018002000234024001800000005
:1056C0001F802040274029401F400000004007C0A5
:1056D00039000F0001C0004020403FC0244024405A
:1056E0001B8000001F8020402040204030800000B0
:1056F00020403FC0204020401F80000020403FC08D
:1057000024402E4030C0000020403FC024402E00E6
:10571000300000000F001080204022403380020043
:1057200020403FC0040004003FC0204020402040F3
:105730003FC02040204000000060202020203FC0CB
:105740002000200020403FC024400B0030C02040FB
:1057500020403FC020400040004000C03FC03C000F
:1057600003C03C003FC0000020403FC00C4023006D
:105770003FC020001F802040204020401F800000AC
:1057800020403FC024402400180000001F8021401A
:10579000214020E01FA0000020403FC02440260000
:1057A00019C0004018C0244024402240318000002D
:1057B000300020403FC020403000000020003F80EB
:1057C000004000403F80200020003E0001C0070054
:1057D00038002000380007C03C0007C03800000037
:1057E000204039C0060039C0204000002000384069
:1057F00007C0384020000000304021C0264038401B
:1058000020C00000000000007FE040204020000099
:10581000000070000C0003800040000000004020E9
:1058200040207FE000000000000020004000200039
:105830000000000000100010001000100010001008
:105840000000000040000000000000000000028096
:105850000540054003C0004020003FC00440044014
:105860000380000000000380044004400640000064
:1058700000000380044024403FC00040000003803B
:105880000540054003400000000004401FC02440C4
:1058900024402000000002E005500550065004207E
:1058A00020403FC00440040003C00040000004400A
:1058B00027C000400000000000100010041027E086
:1058C0000000000020403FC00140070004C0044029
:1058D000204020403FC000400040000007C00400BE
:1058E00007C0040003C00000044007C004400400D7
:1058F00003C0004000000380044004400380000017
:10590000041007F0045004400380000000000380EE
:105910000440045007F00010044007C00240040097
:1059200004000000000006400540054004C00000DF
:10593000000004001F8004400040000004000780B5
:105940000040044007C000400400070004C001807C
:1059500006000400060001C0070001C006000000A8
:10596000044006C0010006C00440000004100710F7
:1059700004E00180060004000000044005C0064069
:10598000044000000000000004007BE04020000014
:10599000000000000000FFF00000000000004020B8
:1059A0007BE0040000000000400080004000200078
:1059B0002000400000000000000000000000000087
:1059C000000000000000000000001FCC000C0000E0
:1059D00000000000000008003000600008003000F7
:1059E00060000000022003FC1E20022003FC1E2099
:1059F0000220000000000E1811043FFF10840C78F4
:105A0000000000000F0010840F3800C007781884D1
:105A10000078000000780F8410C411240E9800E470
:105A2000008400080800680070000000000000000A
:105A30000000000000000000000007E0181820042B
:105A400040020000000040022004181807E0000097
:105A5000000000000240024001800FF0018002407F
:105A6000024000000080008000800FF8008000806D
:105A7000008000000001000D000E0000000000008A
:105A80000000000000000080008000800080008096
:105A9000008000800000000C000C000000000000EE
:105AA00000000000000000060018006001800600F1
:105AB00018002000000007F008081004100408086F
:105AC00007F000000000080408041FFC00040004A4
:105AD0000000000000000E0C10141024104411846B
