:020000040800F2
:10000000682A0020450100082D270008671C000809
:100010001D250008851200085B4C00080000000048
:10002000000000000000000000000000092E000891
:100030004513000800000000F12B00088539000876
:100040005F0100085F0100085F0100085F01000810
:100050005F0100085F0100085F0100085F01000800
:100060005F0100085F0100085F0100085F010008F0
:100070005F0100085F0100085F0100085F010008E0
:100080005F0100085F0100085F0100085F010008D0
:100090005F0100085F0100085F0100085F010008C0
:1000A0005F0100085F0100085F0100085F010008B0
:1000B000353C00084D3C0008653C00085F01000825
:1000C0005F0100085F0100085F0100085F01000890
:1000D0005F0100087D45000885460008494A000880
:1000E0005F0100085F0100085F0100085F01000870
:1000F0005F0100085F0100085F0100085F01000860
:100100005F0100085F0100087D3C00085F010008F6
:100110005F0100085F010008953C00080D3F0008E2
:100120005F0100085F0100085F0100085F0100082F
:10013000DFF80CD000F04AFC00480047B95800082E
:10014000682A00200648804706480047FEE7FEE789
:10015000FEE7FEE7FEE7FEE7FEE7FEE7FEE7FEE777
:10016000953900083101000800487047FC7200080A
:1001700040EA01039B0703D009E008C9121F08C029
:10018000042AFAD203E011F8013B00F8013B521EA9
:10019000F9D27047D2B201E000F8012B491EFBD220
:1001A00070470022F6E710B513460A460446194682
:1001B000FFF7F0FF204610BD10B5044604E00B78B1
:1001C00000F8013B03B1491C521EF8D2204610BD75
:1001D000421C10F8011B0029FBD1801A704710B592
:1001E000002200E0521C835C8C5CA34201D1002BF6
:1001F000F8D1D8B2E1B2401A10BDF0B480EA0102E1
:10020000D40F4200B2EB410F02D20246084611461B
:100210004A0042D0C30DDDB2C1F3C752AD1A202D42
:1002200035DAC1F3160141F4000204B15242C5F1BE
:10023000200602FA06F12A411044B3EBD05F23D026
:10024000C4B1012DA0EBC35009DCF0BC4FF000425B
:1002500002EAC352DBB200F5000000F02CBB400004
:1002600000F1807000EBC350A0F1807040EAD170C3
:10027000490009E0490841EAC071A0EBC35000F50C
:100280000000400800EBC350F0BC00F00BBB614223
:10029000012202EB4101001BF6E7F0BC704781F040
:1002A0000041AAE780F00040A7E780EA010210B50C
:1002B00002F00043400022D04A001FD0010E01EBA3
:1002C0001261C0F35600C2F3560240F4000042F43B
:1002D0000002A0FB022000047F39140400D0401C5F
:1002E00050EA124001D44000491EC2B20C0604EB91
:1002F000D010401C4008802A02D003E0002010BD2E
:1003000020F00100002900DA0020184310BD30B4AD
:1003100080EA010202F0004530F0004221F0004086
:1003200013D090B1C30DD40DC2F31601C0F3160063
:10033000E41A41F4000140F400027D34914201D3FB
:10034000641C00E04900002C02DA30BC0020704739
:100350004FF400000023914201D3891A034340085F
:100360004FEA4101F7D151B1914202D14FF0004122
:1003700005E002D24FF0010101E06FF0010103EB53
:10038000C450284430BC00F08DBA2DE9FE4F8046A1
:1003900081EA0300C00F0C46009021F0004123F0D9
:1003A0000045B8EB0200A94105D2404621469046DF
:1003B0001C460B46024623F00040104347D0270D51
:1003C000C7F30A00C3F30A510290401A0190402873
:1003D0006BDAC3F3130040F4801B0098924620B1FF
:1003E0000023D2EB030A63EB0B0B01985946C0F1D3
:1003F0004002504600F025FA06460D465046594642
:10040000019A00F03DFA10EB08006141002487EAF0
:10041000115284EAE7731A4340D0009A62B3019AFA
:10042000012A4FEA075215DC001B61EB02014FF075
:10043000004202EA0752CDE90042001C41F580115A
:1004400032462B4600F074FA03B0BDE8F08F404608
:100450002146F9E7001B61EB0201001C41F5801306
:1004600000185B412018A2F5001747EB030140EA92
:10047000D570B6196D4111E06D084FEA360645EAB0
:10048000C0754FEA0752001B61EB0201001C41F5E9
:10049000801149084FEA30000019514132462B467D
:1004A00003B0BDE8F04F00F034BA009801224000DC
:1004B0000023D0EB020263EBE073009821464FEA81
:1004C000E074B8EB000061EB0401E9E783F000435E
:1004D0005BE781F0004158E72DE9FE4F81EA030414
:1004E00004F0004421F0004100944FF0000B23F091
:1004F000004350EA01045ED052EA03045BD0C3F328
:100500000A54C1F30A552C44A4F2F3340194A0FB1D
:100510000254C1F3130141F48011C3F3130343F4F4
:10052000801301FB024400FB034E840A970A44EA4D
:10053000815447EA8357A4FB076802958D0A05FB9F
:1005400007854FEA932C04FB0C542705029D4FEAC4
:10055000065847EA1637B5EB08056EEB070C870E11
:10056000920E47EA811742EA8312A7FB0201B6EB1B
:100570000B0164EB00042B0D43EA0C335E1844EBD3
:100580001C50DA465146E7FB0201C5F313044FEA5B
:100590000B3343EA14534FEA0432019C43EA060347
:1005A000A4F10C040294009CCDE900B400F0C0F961
:1005B00003B0BDE8F08F00200146F9E72DE9F04DCA
:1005C00081EA030404F0004B21F0004514464FF08B
:1005D000000A23F0004150EA050220D054EA01024B
:1005E0001DD0C5F30A570246C5F31303C1F3130028
:1005F000C1F30A5640F4801543F48013A7EB0608B4
:10060000101BD64608F2FD3873EB050002D308F143
:10061000010801E092185B41B8F1000F03DA0020F5
:100620000146BDE8F08D00204FF480110646844657
:100630000EE0171B73EB050705D3121B63EB0503D5
:1006400006434CEA010C49084FEA300092185B411E
:1006500050EA0107EDD152EA030012D082EA040009
:1006600083EA0501084305D0101BAB4106D20122E5
:10067000002306E000224FF0004302E06FF0010289
:1006800053101AEB06004CEB085110EB0A0041EB3B
:100690000B01BDE8F04D00F03CB9C10F80EAE070FD
:1006A0000844CA079623002100F005B996230022CA
:1006B000114600F000B90EB5C10F80EAE0700844A1
:1006C000CA07002140F233438DE80E000A460B466C
:1006D00000F02EF903B000BD0EB540F23341029197
:1006E0000021CDE900110A460B4600F021F903B0C4
:1006F00000BD00F0004220F00040C10DC0F3160024
:1007000040F400007F2901DA00207047962903DCBD
:10071000C1F19601C84001E096398840002AF4D022
:100720004042704720F00040C10DC0F3160040F475
:1007300000007F2901DA00207047962903DCC1F10F
:100740009601C8407047963988407047C1F30A52F5
:1007500010B5C1F3130140F2FF3341F480119A4206
:1007600001DA002010BD40F233439A42A2F2334234
:1007700003DC524200F074F810BD904010BD01F04F
:10078000004330B421F0004150EA010206D00A0DC6
:10079000A2F56072C1F31301002A02DC30BC002014
:1007A0007047440F44EAC104C100E01830BC00EBBC
:1007B000C25000F077B80000002801DBC0F1004013
:1007C000002901DBC1F1004181427047002801DBB3
:1007D000C0F10040002901DBC1F1004188427047AF
:1007E0002DE9F05F0546002092469B468846064666
:1007F000814640241BE0284641464746224600F0F9
:100800002FF853465A46C01A914110D31146184644
:10081000224600F016F82D1A67EB01084F462246D3
:100820000120002100F00DF817EB00094E41201EB9
:10083000A4F10104DFDC484631462A464346BDE8C0
:10084000F09F202A04DB203A00FA02F100207047D2
:100850009140C2F1200320FA03F3194390407047FE
:10086000202A04DB203A21FA02F00021704721FA05
:1008700002F3D040C2F1200291400843194670476C
:10088000202A06DBCB17203A41FA02F043EAE07354
:1008900006E041FA02F3D040C2F120029140084341
:1008A000194670470029A8BF7047401C490008BF7F
:1008B00020F00100704710B4B0FA80FC00FA0CF090
:1008C00050EA010404BF10BC704749B1CCF12004C8
:1008D00021FA04F411FA0CF118BF01212143084355
:1008E000A3EB0C01CB1D4FEA00614FEA102042BF81
:1008F000002010BC704700EBC35010440029A4BF77
:1009000010BC7047401C490008BF20F0010010BC1B
:10091000704710B5141E73F1000408DA401C41F151
:10092000000192185B411A4301D120F0010010BD73
:100930002DE9F04D92469B4611B1B1FA81F202E0E9
:10094000B0FA80F220329046FFF77BFF04460F4654
:1009500040EA0A0041EA0B0153465A46084313D0C5
:10096000114653EA010019D0C8F140025046FFF782
:1009700077FF05460E46504659464246FFF761FF4F
:10098000084305D0012004E020463946BDE8F08D3B
:100990000020054346EAE0762C4337430A98630576
:1009A000E40AA0EB08000022FD0A44EA47540A309A
:1009B00002D500200146E9E7010510196941DDE98A
:1009C000084500196941BDE8F04DA2E7064C074D06
:1009D00006E0E06840F0010394E80700984710340F
:1009E000AC42F6D3FFF7A8FB0073000820730008A1
:1009F00000B587B00121102002F018F9012148024A
:100A000002F014F94FF4004002F0F4F800208DF8E1
:100A10001B000220ADF8180003208DF81A0006A96B
:100A2000164800F077FF00208DF808008DF80900C7
:100A300004904FF4602003900020019001208DF875
:100A4000140001A90E4800F049F801210C4800F0FB
:100A500019F80B4800F0C6F800BF094800F034F858
:100A60000028FAD1064800F0CDF800BF044800F095
:100A700014F80028FAD107B000BD000000100140B2
:100A80000024014021B1826842F00102826003E04B
:100A9000826822F0010282607047014600208A6865
:100AA00002F004020AB1012000E000207047014674
:100AB000C86C80B270470246002013680B400BB12F
:100AC000012000E000207047014600208A6802F003
:100AD00008020AB1012000E00020704730B502464C
:100AE0000020002350680F4C20400D790C6844EA28
:100AF00005242043506090680B4C2040D1E90254FB
:100B00002C434D7944EA450420439060D06A20F498
:100B100070000C7C641EE4B2234340EA0350D062B0
:100B200030BD0000FFFEF0FFFDF7F1FFF0B5044619
:100B30000D4600200021092D11DDE068A5F10A060F
:100B400006EB4607072606FA07F18843A5F10A06D1
:100B500006EB460603FA06F10843E0600CE0206964
:100B600005EB4507072606FA07F1884305EB45061E
:100B700003FA06F108432061072A0FDA606B561E5C
:100B800006EB86071F2606FA07F18843561E06EB7A
:100B9000860605FA06F10843606322E00D2A0FDAA3
:100BA000206BD61F06EB86071F2606FA07F188433F
:100BB000D61F06EB860605FA06F10843206310E00F
:100BC000E06AA2F10D0606EB86071F2606FA07F17A
:100BD0008843A2F10D0606EB860605FA06F10843E6
:100BE000E062F0BD816841F008018160704721B189
:100BF000826842F4A002826003E0826822F4A002CC
:100C000082607047816841F0040181607047000094
:100C10002DE9F04F87B002210B2001F00DF86C494F
:100C2000088008460088FFF757FD07464FF06632F8
:100C3000684BFFF751FC0022674BCDE90001FFF73D
:100C40004BFC0022654BCDE90201FFF745FC002279
:100C5000634BCDE90401FFF7B1FC0546FFF776FDD4
:100C6000604908600846006800EB4001C1EBC01015
:100C700042F21071C1EBC0001B21B0FBF1FABAF1D6
:100C8000640F01DD4FF0640A574908685749FFF7C0
:100C90000CFB0546FFF72DFD0446002C00DA6442EC
:100CA000534908685149FFF700FB0546FFF721FD4E
:100CB0008146B9F1000F01DAC9F100094D48007809
:100CC00008B9012000E000204A4908704A4800782D
:100CD000012862D149480078012845D14848007868
:100CE000022815D147480068FFF703FD054646482E
:100CF0000068FFF7FEFC064644480068FFF7F9FC71
:100D000007462B463246394641A004F05FF940E0E1
:100D10003B48007801283CD141480068FFF7E9FCD6
:100D2000054640480068FFF7E4FC06463E48006878
:100D3000FFF7DFFC07463D480068FFF7DAFC804616
:100D40003B480068FFF7D5FC83463A480068FFF748
:100D5000D0FC43465A460146CDE9007602950590FF
:100D600035A004F033F914E039480068FFF7C1FCFE
:100D7000054638480068FFF7BCFC06463648006860
:100D8000FFF7B7FC07462B463246394620A004F051
:100D90001DF900201849087016E01648007838B987
:100DA00009F0FF02E1B253462CA004F00FF90BE06A
:100DB00027480068FFF79DFC054609F0FF03E2B2F3
:100DC00029462AA004F002F907B0BDE8F08F000020
:100DD0000400002066660A400000264000005940DA
:100DE0000000B04008000020F82500200000C842A4
:100DF000042600200C010020490000200D000020E6
:100E00000C000020240000202800002020000020EA
:100E10007B4325643A25643A25647D240000000064
:100E20003C0000204000002038000020300000205E
:100E3000340000202C0000207B4325643A25643ACE
:100E400025643A25643A25643A25647D240000002F
:100E5000440000201C000020180000207B41256475
:100E60003A25643A25647D24000000007B42256415
:100E70003A25643A25647D24000000002DE9F05FE6
:100E800004460D4629462046FFF70CFA3049086013
:100E9000084601682F480068FFF7AFF92D49086040
:100EA0002D492C480068FFF791FC03D22A482949B4
:100EB000086008E0294927480068FFF77DFC02D256
:100EC0002648244908602648016821480068FFF741
:100ED000E6F98146234801684846FFF7E6F980466F
:100EE0001D49FFF714FA06461A4801681E480068B3
:100EF000FFF7DBF982461D49FFF709FA80461C48D7
:100F0000006880F0004B124801685846FFF7CDF9A1
:100F100082461649FFF7FBF981464146FFF7BFF9C4
:100F200007463146FFF7BBF91249086008480068D8
:100F30000B4908601048006803F015FB012802D136
:100F40000020044908600B480068BDE8F09F0000DD
:100F5000DC000020E400002000007A4400007AC495
:100F6000E800002028000020240000200050C34793
:100F700020000020E0000020080000200748007842
:100F800050B10020054908700549087005490860FE
:100F90000549086005490860704700009C00002072
:100FA0009E0000208C000020900000209400002073
:100FB0001FB500201C4908701C4908701C490870A6
:100FC0004FF4FA701B49086000201B49086001219A
:100FD000202001F01BFE40F2E730ADF8080047206A
:100FE000ADF804000020ADF80A00ADF8060001A934
:100FF000124803F05DFA01221146104803F0C5F8CB
:1010000037208DF8000001208DF8010000208DF8B8
:10101000020001208DF80300684601F089FB0121E0
:10102000064803F005F81FBD9C0000209E0000202C
:101030009D000020A0000020A4000020001400401B
:1010400000B502460AB1012000E000200349087003
:101050000846007808B9FFF791FF00BD9D00002009
:1010600010B50121144803F01FF818B301211248EC
:1010700002F0DBFF11480068401C1049086010486E
:10108000007820B10F480068401C0E4908600B48EA
:101090000068B0F5FA7F0DD30948007850B1002000
:1010A000074908700849087008490860084908603D
:1010B0000849086010BD000000140040A000002096
:1010C0009C000020A40000209E0000208C00002036
:1010D00090000020940000200EB55E48007800B912
:1010E0000EBD5D480078002872D103F0A1FC0028F5
:1010F0006FD0684603F0BCFA002058490860584891
:10110000007830BBBDF802001E2807DBBDF80000E8
:101110001E2803DBBDF804001E2811DA0120504907
:10112000087002204F49087000204F4908604F485E
:101130004F49086000204F4908604F49086081E02E
:101140004E484B49086000204A4908604A490860F7
:1011500078E044480078022804D0032818D00428F6
:1011600061D116E040480068B0F5487F0FD3BDF864
:101170000000BDF80410884203DD032039490870DF
:1011800002E004203749087000203749086058E021
:1011900000BF35480068B0F5966F2AD3BDF802004D
:1011A0001E2817DDBDF800001E2813DDBDF8040061
:1011B0001E280FDD00202A4908702A4908702F4890
:1011C0002B49086000202B4908602B49086029E062
:1011D00039E03DE0022023490870002022490860E0
:1011E00022482349086000202249086022490860FB
:1011F00018E01C48007803280AD121481C490860DF
:101200004FF07C501B49086000201B49086009E032
:101210001B48174908604FF03F40164908600020FE
:10122000154908600DE000200D4908700D4908704F
:1012300012480F49086000200E4908600E490860F6
:1012400000BF00BF04E00648007808B1FFF796FE33
:1012500000BF45E79D000020AF000020A000002057
:101260009C0000209E000020A40000209A9999BEB6
:101270008C0000209000002094000020CDCCCC3EBB
:10128000CDCC4C3E00BFFEE710B502460B46002415
:10129000002104E0505C2044C4B2481CC1B2994211
:1012A000F8DBE043C0B210BD10B50020094908606A
:1012B000094908600949086001F064FD01F06AFD10
:1012C00000200749087048708870C8700549087088
:1012D00010BD00008C000020900000209400002031
:1012E000B9000020BD00002010B502460B460020CA
:1012F000012B08D1002104E0084C645C60404C1CC8
:10130000E1B29142F8DB43B9002104E0044C645C93
:1013100060404C1CE1B29142F8DB10BD1C0500207E
:101320001001002000B5002200BF05E00449885CE0
:1013300004F08AFC501CC2B2182AF7DB00BD000082
:101340001C050020704700002DE9F04704460D46BB
:1013500029462046FEF7A6FF2E4908600846016888
:101360002D480068FEF749FF2B4908602B492A48A1
:101370000068FFF72BFA03D228482749086008E0E5
:10138000274925480068FFF717FA02D22448224966
:101390000860244801681F480068FEF780FF814606
:1013A000214801684846FEF780FF80461F49FEF746
:1013B000AEFF0646184801681D480068FEF775FF35
:1013C00082461A49FEF7A3FF804612480168194871
:1013D0000068FEF76AFF82461449FEF798FF8146CF
:1013E0004146FEF70AFF07463146FEF706FF12495F
:1013F0000860084800680B4908601048006803F05E
:10140000B2F8012802D10020034908600A480068A8
:10141000BDE8F087FC0000200401002000007A44B1
:1014200000007AC408010020340000200000C842F7
:10143000300000202C0000200001002008000020C7
:101440002DE9F04706460D461746464C3A462946D2
:10145000304602F0E3F94448066845688768434827
:10146000016843480068FEF7C8FE82463946FEF729
:101470001CFF804629463046FEF7BFFE81464146A6
:10148000FEF70DFF3B49886038480168384800681E
:10149000FEF7B3FE82463946FEF707FF804685F029
:1014A000004A31465046FEF7A8FE81464146FEF707
:1014B000F6FE314988602D4801682D480068FEF726
:1014C0009CFE82463946FEF7F0FE804629463046AD
:1014D000FEF793FE81464146FEF78FFE274988605E
:1014E0002248016822480068FEF787FE8246394696
:1014F000FEF7DBFE804685F0004A31465046FEF797
:101500007CFE81464146FEF778FE1D49886084F0E6
:101510000048184922468868414604F081FB154975
:10152000886084F00048144922468868414604F0E7
:1015300077FB1149886084F000481049224688688A
:10154000414604F06DFB0D49886084F000480C4969
:1015500022468868414604F063FB09498860BDE87B
:10156000F0870000000060403826002014000020B2
:1015700010000020F825002004260020102600205E
:101580001C26002000B587B001210D2001F04EFB84
:101590000121084601F03AFB0121274800F046FAF4
:1015A0004FF40040ADF8180004208DF81B0006A988
:1015B000224800F0AFF90820ADF8180006A920482D
:1015C00000F0A8F903A802F0C5FF0020ADF80C0058
:1015D0004FF6FF70ADF810000020ADF81200ADF826
:1015E0000E0003A94FF0804002F062FF00231A466C
:1015F00003214FF0804002F036FD684602F0BCFD4A
:101600000A20ADF808006946400702F05FFD01219D
:10161000880702F007FD01221146900702F0B5FD90
:1016200000214FF0804002F014FF0121880702F0F2
:10163000FFFC07B000BD00000001180000080140D9
:10164000000C014000B587B00121042001F0EEFA42
:101650000121022001F0DAFAC020ADF818000420C0
:101660008DF81B0006A91C4800F054F903A802F0ED
:1016700071FF0020ADF80C004FF6FF70ADF81000C0
:101680000020ADF81200ADF80E0003A9134802F0D7
:101690000FFF00231A460321104802F0E4FC6846BD
:1016A00002F06AFD0A20ADF8080069460B4802F016
:1016B0000DFD0121094802F0B5FC01221146074841
:1016C00002F063FD0021054802F0C3FE012103483A
:1016D00002F0AEFC07B000BD00080140000400406D
:1016E00000B587B00121082001F0A0FA01210420F3
:1016F00001F08CFAC020ADF8180004208DF81B0012
:1017000006A91C4800F006F903A802F023FF0020F8
:10171000ADF80C004FF6FF70ADF810000020ADF8EA
:101720001200ADF80E0003A9134802F0C1FE002319
:101730001A460321104802F096FC684602F01CFD90
:101740000A20ADF8080069460B4802F0BFFC0121F1
:10175000094802F067FC01221146074802F015FD16
:101760000021054802F075FE0121034802F060FCEB
:1017700007B000BD000C01400008004000B587B074
:101780000121042001F052FA0121082001F03EFA63
:101790000320ADF8180004208DF81B0006A91C4892
:1017A00000F0B8F803A802F0D5FE0020ADF80C0058
:1017B0004FF6FF70ADF810000020ADF81200ADF844
:1017C0000E0003A9134802F073FE00231A460321FA
:1017D000104802F048FC684602F0CEFC0A20ADF842
:1017E000080069460B4802F071FC0121094802F02B
:1017F00019FC01221146074802F0C7FC00210548E8
:1018000002F027FE0121034802F012FC07B000BDE0
:1018100000080140000C00402DE9F04704460D4649
:1018200029462046FEF73EFD2F490860084601681C
:101830002E480068FEF7E1FC2C4908602C492B4833
:101840000068FEF7C3FF03D229482849086008E072
:10185000284926480068FEF7AFFF02D225482349F1
:1018600008602548016820480068FEF718FD80469A
:10187000224923480068FEF74AFD81464146FEF7AB
:1018800014FD06461D491F480068FEF740FD8246CC
:10189000164801685046FEF708FD804617491A4869
:1018A0000068FEF734FD82460F4801685046FEF797
:1018B000FCFC81464146FEF7A0FC07463146FEF798
:1018C0009CFC12490860084800680B4908601048F1
:1018D000006802F048FE012802D100200349086098
:1018E0000A480068BDE8F087EC000020F400002002
:1018F00000007A4400007AC4F80000200000C842CA
:10190000400000203C00002038000020F0000020B3
:10191000080000202DE9F0410246002500260020A5
:1019200000230024002791F803C00CF00F0591F864
:1019300003C00CF0100CBCF1000F03D091F802C0F2
:101940004CEA050591F800C0BCF1000F31D01468D5
:1019500000202BE04FF0010C0CFA00F3B1F800C0AE
:101960000CEA03069E4220D183004FF00F0C0CFAC4
:1019700003F7BC4305FA03FC4CEA040491F803C0E6
:10198000BCF1280F06D14FF0010C0CFA00FCC2F894
:1019900014C00AE091F803C0BCF1480F05D14FF024
:1019A000010C0CFA00FCC2F810C0401C0828D1D36E
:1019B0001460B1F800C0BCF1FF0F34DD54680020A2
:1019C0002EE000F1080C4FF0010808FA0CF3B1F812
:1019D00000C00CEA03069E4221D183004FF00F0C99
:1019E0000CFA03F7BC4305FA03FC4CEA040491F833
:1019F00003C0BCF1280F05D100F1080C08FA0CF85F
:101A0000C2F8148091F803C0BCF1480F07D100F16F
:101A1000080C4FF0010808FA0CF8C2F81080401CBE
:101A20000828CED35460BDE8F0810000F0B50A4626
:101A3000002300240021002500F00046B6F1004FED
:101A400002D11D4EF16901E01B4E7168C0F30345E0
:101A500083B200F44016B6F5401F08D121F0706142
:101A6000154E766826F07066134F7E6012E000F423
:101A70008016B6F5801F06D1032606FA05F4A143A9
:101A800041F0706106E0460D360103FA06F6B143F7
:101A900041F0706122B1460D360103FA06F631437A
:101AA00000F00046B6F1004F02D1034EF16101E0B3
:101AB000014E7160F0BD00000000014041617047BF
:101AC00010B504460723012221460948FFF72EF8E6
:101AD00001210748FFF78BF800BF02210448FEF7F9
:101AE000EAFF0028F9D00248FEF7E1FF10BD000030
:101AF000002401402DE9FF5F052001F011F945495F
:101B00000860032001F00CF942494860042001F00C
:101B100007F940498860022001F002F93D49C86098
:101B200008460068039008464068029008468068AE
:101B300001900846C06800906422039901FB02F0FE
:101B4000FEF7B9FD8246344A344BFEF7C5FC8046A9
:101B50004FF0C042324BFEF7BFFC06460022314B2D
:101B6000FEF72CFD0446FEF70AFE2F4908606422AA
:101B7000029901FB02F0FEF79EFD0646264A274B1E
:101B8000FEF7AAFC04464FF0C042254BFEF7A4FC2A
:101B900080460022234BFEF711FD8246FEF7EFFD43
:101BA000224908606422019901FB02F0FEF783FDDF
:101BB0008046194A194BFEF78FFC06464FF0C0428B
:101BC000174BFEF789FC04460022164BFEF7F6FC85
:101BD0008246FEF7D4FD164908606422009901FB95
:101BE00002F0FEF768FD80460B4A0C4BFEF774FCD2
:101BF00006464FF0C0420A4BFEF76EFC0446002238
:101C0000084BFEF7DBFC8246FEF7B9FD0949086088
:101C1000BDE8FF9F282600209A9999999999B93F84
:101C2000FB2109400080A640F82500200426002062
:101C3000102600201C2600202DE9F04107460C4606
:101C40000025002608E03846FFF73AFF0544052046
:101C500003F0D2FD701CC6B2A642F4DBB5FBF4F073
:101C600080B2BDE8F08100BFFEE7000070B5044619
:101C70000D462A462146024803F066FF70BD00006B
:101C80004426002070B504460D462A4621460248E7
:101C900003F05AFF70BD00004C26002070B50446CA
:101CA0000D462A462146024803F04EFF70BD000053
:101CB0005426002070B504460D462A4621460248A7
:101CC00003F042FF70BD00005C2600200148007850
:101CD000704700009C00002001464906084A9269AE
:101CE00042F00102064B9A61064A526822F0E06215
:101CF000044B5A601A4652680A435A607047000003
:101D0000001002400000014008B50121082000F049
:101D10008DFF4FF40040ADF8000048208DF803001F
:101D200069460248FFF7F6FD08BD0000000C0140BF
:101D300010B50024322003F0B3FB0446012C0FD170
:101D40001848007801282CD117480078401C164903
:101D5000087008460078032823D10020087020E08E
:101D6000022C1ED10F48007860B901200D4908707F
:101D700000200D4908700D4908600D4908600D49A3
:101D800008600EE00748007801280AD100200749C2
:101D9000086007490860074908600249087002495D
:101DA000087010BD0D0000200C0000208C000020E9
:101DB000900000209400002008B50121082000F0C8
:101DC00035FF4FF48040ADF8000010208DF803007F
:101DD00003208DF8020069460148FFF79BFD08BD0E
:101DE000000C01400448006808B9012000E0002010
:101DF0000149086070470000B88121422DE9F04197
:101E000000262C482C49086000242AE02B4901EBCD
:101E1000C40148682A49FEF7D9FC21D2274901EBC1
:101E2000C40148682749FEF7C7FC19D22648006854
:101E300048B9224830F83400244908602248006834
:101E4000401C214908601D4830F834101F480068C4
:101E50006430814204D2701CC6B2184830F8345045
:101E6000641CB4F5E17FD1DB18480068FEF71EFC66
:101E700007462846FEF71AFC80463946FEF7FEFF65
:101E800080F00040124908600A480B4908600020B1
:101E9000104908601EB90E4908600E4908600D48D7
:101EA00002680B48016804480068FFF7C9FABDE8FA
:101EB000F08100009A99993E8C0000204C0500208A
:101EC0000000864300008843C8000020C4000020B2
:101ED00090000020940000202DE9F0470024002508
:101EE0000026002700BF58E0434901EBC4014868C1
:101EF0004249FEF76BFC07D33F4901EBC401486838
:101F00003F49FEF759FC47D23B4830F834000028DF
:101F100042DD394830F83400B0F5E17F3CDA681C26
:101F2000C5B2354901EBC40148683549FEF744FCA8
:101F30000FD23046FEF7B1FB81462F4800EBC400BC
:101F400041684846FEF759F98046FEF7D2FB06463F
:101F50001AE0294901EBC40148682849FEF736FC1C
:101F600012D2254901EBC40148682649FEF797F9CA
:101F700081463046FEF791FB82464946FEF73DF921
:101F80008046FEF7B6FB06461B4830F83400B0F535
:101F9000967F01DA781CC7B2641CB4F5E17FA3DB3D
:101FA00019481A4908601DB900201949086018E04D
:101FB000082F06DD174815490860002014490860FD
:101FC0000FE0002E07DD0020104908604FF07E5022
:101FD0000F49086005E000200C4908600E480C49D4
:101FE00008600B4802680D48016808480068FFF760
:101FF00027FABDE8F08700004C050020000096435A
:10200000000070420000B4439A99993E8C00002071
:10201000940000209A9999BE000080BF9000002093
:102020002DE9F04100264FF6FF75002419E06C48B9
:1020300030F83400642813DD694830F83400B0F516
:10204000C86F0DDA761C664830F83400A84207DA0B
:10205000634830F8345000EBC400406861490860C0
:10206000641CB4F5E17FE2DB5F495E480068FEF77F
:10207000ADFB06D25D495B480068FEF710F959498F
:1020800008605B48016857480068FEF708F9074692
:102090005849FEF79BFB0AD3554801685148006830
:1020A000FEF7FDF807465449FEF786FB0ED253486B
:1020B0000078401CC0B2514908701E280DDD002078
:1020C0000870484800684A49086006E000204B490B
:1020D00008704448006846490860062E12DA4848ED
:1020E0000088282804DA46480088401C44490880B3
:1020F00043480088282868DB00204249086042499C
:10210000086062E000203E49088040493D48006880
:10211000FEF75CFB05D33E493A480068FEF74CFBEE
:1021200020D2B5F52F7F13DA3A4931480068FEF71F
:102130004DFB05D338492E480068FEF73DFB07D21A
:102140002B4801683548FEF7B0F82F4908600CE0CD
:10215000002127480068FFF75FFB80F000402A4914
:10216000086002E00020284908602D491D480068E9
:10217000FEF72CFB05D32B491A480068FEF71CFB21
:1021800012D22846FEF792FA07462749FFF7DCF8F5
:1021900080F000401B490860154801681F48FEF7A1
:1021A00084F81949086008E02846FEF77FFA0746D8
:1021B0001D49FFF7C9F8134908601C4A1C4911481A
:1021C000006803F02DFD0F4908600F4802681948A8
:1021D00001680C480068FFF733F9BDE8F0810000A2
:1021E0004C050020D0000020000034430000B44320
:1021F000D400002000002041000020C1D8000020B1
:10220000CC0000208C000020940000208FC2753D7F
:102210008FC275BD00007042000070C2211FF4BC67
:1022200000001643000016C30000C8439A99193FE6
:102230009A9919BF9000002010B50020114908702C
:102240001149087011490870114908701149087046
:102250001149087011490860114908601149086066
:10226000642003F0C9FA00F0D1FD012240F22551AB
:102270000D4802F057FC0DA002F0CEFB14A002F0B6
:10228000CBFB10BDB0000020B1000020B200002048
:10229000B3000020B4000020B50000208C00002016
:1022A0009000002094000020004800404C696E65BA
:1022B00020466F6C6C6F7765722053656E736F721A
:1022C00020496E697469616C697A65640D0A000061
:1022D0004D6F64653A204175746F204C6576656C6E
:1022E000202831290D0A000030B58DB04E48007805
:1022F00040B900204D4908604D4908604D490860CB
:102300000DB030BD4C48007800286ED04B480078A6
:1023100003F00BFC04464AA002F07EFB07250BE00D
:102320000120A840204018B149A002F075FB02E04E
:1023300048A002F071FB6D1E002DF1DA23463F48E4
:10234000027845A1684602F051FE684602F064FB3F
:10235000FF2C00D054B9002034490860344908608B
:102360003449086042A002F057FB57E004F018001F
:1023700018280CD14FF07C502C49086000202C49C3
:1023800008602C4908603EA002F046FB46E004F0DD
:10239000E00060B10020254908603E4824490860FB
:1023A0000020244908603CA002F036FB36E004F02F
:1023B000070060B100201D4908603C481C490860C6
:1023C00000201C4908603AA002F026FB26E0802C81
:1023D0000CD1002015490860154908603A48154994
:1023E00008603AA002F018FB18E01BE0012C0BD1AA
:1023F00000200E4908600E4908603A480D490860FF
:1024000039A002F009FB09E00020084908600849EA
:102410000860084908603AA002F0FEFA0020064968
:10242000087000BF00BF6BE7AF0000208C000020E9
:102430009000002094000020B1000020B000002097
:1024400053656E736F72204C6576656C733A20002D
:10245000312000003020000028307825303258200C
:102460002D3E20307825303258290D0A000000001A
:10247000416374696F6E3A2053746F700D0A0000E7
:10248000416374696F6E3A20466F72776172640DB2
:102490000A000000CDCCCCBE416374696F6E3A2057
:1024A0005475726E204C6566740D0A00CDCCCC3E1E
:1024B000416374696F6E3A205475726E2052696779
:1024C00068740D0A00000000000020404163746938
:1024D0006F6E3A20537472616665204C6566740DA8
:1024E0000A000000000020C0416374696F6E3A204A
:1024F0005374726166652052696768740D0A000042
:10250000416374696F6E3A20556E6B6E6F776E2003
:102510002D2053746F700D0A0000000000BFFEE70D
:1025200010B5FEF7C1FE02F071FC10BD0EB502F051
:1025300089F830B1684602F091F8684600F028FD4D
:1025400000BF0EBD08B50121382000F06FFB102040
:102550008DF8030003208DF802004FF44C70ADF8A5
:10256000000069461148FFF7D5F94FF44C710F4848
:10257000FFF7A4FA47F20400ADF8000069460C48E2
:10258000FFF7C8F947F204010948FFF797FA04205A
:10259000ADF8000069460748FFF7BCF9042105487B
:1025A000FFF78CFA00200449086008BD000C0140C8
:1025B00000100140001401408801224210B500BF04
:1025C00000201749086017490880091D0880091D67
:1025D0000880091D08801449C1F8B80110492C3140
:1025E000086012490860091F08600D492831086019
:1025F0000F4908600D4910390860091F086000BFC5
:10260000C82003F0F9F801200549086000200549B9
:102610000880091D0880091D0880091D088010BD5B
:10262000880122423434014000002242A481214228
:102630008881224210B51E48007800B110BD1D4BA4
:102640009A6819685868002303F0DEF9B8B91A4B84
:102650009A6819685868012303F0D6F978B9174BBE
:102660009A6819685868022303F0CEF938B9144BF8
:102670009A6819685868032303F0C6F9A8B10120C5
:102680000B49087000200F4908600F4908600F4986
:10269000086000F077FB00F07DFB00F01BF80020E5
:1026A0000B49087048708870C87000BFC6E700000A
:1026B000BD000020F8250020042600201026002060
:1026C0001C2600208C000020900000209400002098
:1026D000B900002000200F490880091D08800D491D
:1026E00008390880091D08800B4908600B49C1F8AA
:1026F000B4010B490860091F0860074908390860E0
:10270000084908600649103908600749C1F8900176
:10271000704700003C340140B801224200002242D0
:10272000A48121428881224200802142704700001A
:1027300070B5002100230F22C47804B3154C24681F
:1027400004F4E064C4F5E064210AC1F10403CA4062
:10275000447804FA03F184781440214309010E4CB3
:102760000678A155047804F01F050124AC400578D3
:102770006D11AD0005F1E025C5F8004109E00478D0
:1027800004F01F050124AC40044D0678761145F88D
:10279000264070BD0CED00E000E400E080E100E0C8
:1027A00002490143024A1160704700000000FA0527
:1027B0000CED00E030B500240CE0002506E0002020
:1027C000074901EBC5010855681CC5B2802DF6DB31
:1027D000601CC4B2082CF0DB00F0F8F830BD00003B
:1027E0001C010020F0B5144600267F2801DC3F299B
:1027F00000DDF0BD0B46CF1701EB5777FF10C7F197
:102800000707FAB2CF1701EB5777FF10A1EBC70705
:10281000FDB2C5F107070123BB40DEB24CB10A4B44
:1028200003EBC0039B5C3343074F07EBC007BB546C
:1028300008E0054B03EBC0039B5CB343024F07EB7F
:10284000C007BB5400BFD4E71C01002008B502201C
:10285000FFF742FA0120FFF73FFA0121082000F0BC
:10286000E5F90121142000F0E1F94FF40050ADF832
:10287000000010208DF8030003208DF80200694647
:102880004D48FFF747F84FF48050ADF80000102096
:102890008DF8030003208DF8020069464648FFF7D3
:1028A00039F81020ADF800008DF8030003208DF8F2
:1028B000020069464148FFF72DF82020ADF80000DE
:1028C00010208DF8030003208DF8020069463C4873
:1028D000FFF720F800203B490860642002F08CFFDD
:1028E00001203949C1F890010021AE2000F054F9CF
:1028F0000021D52000F050F90021502000F04CF9C3
:102900000021A82000F048F900213F2000F044F900
:102910000021D32000F040F90021084600F03CF9E6
:102920000021402000F038F900218D2000F034F91A
:102930000021142000F030F90021202000F02CF9B3
:102940000021022000F028F90021A12000F024F944
:102950000021C02000F020F90021DA2000F01CF94D
:102960000021122000F018F90021812000F014F954
:102970000021EF2000F010F90021D92000F00CF91F
:102980000021F12000F008F90021DB2000F004F91B
:102990000021302000F000F90021A42000F0FCF814
:1029A0000021A62000F0F8F80021AF2000F0F4F894
:1029B000FFF700FF08BD0000000C014000100140BF
:1029C00000080140900122420000224230B500245C
:1029D0001CE004F1B001C8B2002100F0DDF80021D4
:1029E000084600F0D9F80021102000F0D5F80025A5
:1029F00008E0084901EBC501085D012100F0CCF8B1
:102A0000681CC5B2802DF4DB601CC4B2082CE0DB6E
:102A100030BD00001C0100202DE9F04F80460C461F
:102A200015461E46A346A5F12000C5B200273EE08C
:102A30000C2E07D105EB45001F4901EB800010F873
:102A4000079004E01D4800EB051010F807904FF0C8
:102A5000000A26E009F0800028B121464046099A84
:102A6000FFF7C0FE09E0099808B9012000E0002046
:102A7000024621464046FFF7B5FE4FEA49604FEA5D
:102A80001069601CC4B2A4EB0B00B04205D15C46D7
:102A900008F1010000F0FF0806E00AF1010000F073
:102AA000FF0ABAF1080FD5DB00BF781CC7B2B742E6
:102AB000BEDBBDE8F08F0000645C0008D860000851
:102AC0002DE9FF4F81B0074691461E460E9D4FF0FF
:102AD000000A002439E0301B401EC1B20A2002F077
:102AE000CFFFB9FBF0F00A21B0FBF1F201FB1208B5
:102AF000BAF1000F16D1701EA04213DDB8F1000F1D
:102B00000ED10120AB4605EBDB71491001FB0471CE
:102B10000090C8B22B4620220299FFF77DFF12E0F9
:102B20004FF0010A0120AB4605EBDB71491001FBB8
:102B300004710090C8B208F13001CAB22B46029964
:102B4000FFF76AFF00BF601CC4B2B442C3DB05B02C
:102B5000BDE8F08F78B505460E46144618E07A2D8C
:102B600003DD002506F11000C6B23A2E04DD002078
:102B700005460646FFF71EFE0120009022780C2332
:102B800031462846FFF748FF05F10800C5B2641C2E
:102B900020780028E3D178BD10B50A461AB1012388
:102BA000114C236002E000230F4C2360002114E04D
:102BB00000230E4C236000F080031BB10123241F6F
:102BC000236003E00023094C241F23600123074CEA
:102BD00023604306180E4B1CD9B20829E8DB0123F9
:102BE000014C236010BD000094012142B4812142B8
:102BF0007047000001460020034A506820F440401E
:102C000008435060704700000010024029B1064A96
:102C1000D2690243044BDA6104E0034AD269824379
:102C2000014BDA61704700000010024029B1064AEA
:102C300092690243044B9A6104E0034A9269824319
:102C4000014B9A61704700000010024030B500212E
:102C50000022002400232D4D6D6805F00C0121B1E8
:102C6000042905D0082923D105E0294D056022E07B
:102C7000274D05601FE0254D6D6805F47012234D4A
:102C80006D6805F48034022505EB92421CB9214D94
:102C9000554305600BE01D4D6D6805F400351DB111
:102CA0001C4D5543056002E0194D5543056002E097
:102CB000174D056000BF00BF144D6D6805F0F001B1
:102CC0000909154D6B5C0568DD4045600F4D6D6869
:102CD00005F4E061090A104D6B5C4568DD408560D4
:102CE0000A4D6D6805F46051C90A0B4D6B5C45686F
:102CF000DD40C560054D6D6805F44041890B074D09
:102D00006B5CC568B5FBF3F5056130BD0010024092
:102D100000127A0000093D006C0000207C000020B9
:102D20000146022906D003290DD0042912D0052915
:102D30001ED116E04FF08042928C10B200224FF06C
:102D400080439A8416E00C4A128810B200220A4B83
:102D50001A800FE0094A128810B20022074B1A802D
:102D600008E0074A128810B20022054B1A8001E0E1
:102D7000002000BF00BF704724040040240800402A
:102D8000240C0040002002490860486088607047B9
:102D90003826002010B50020164908604860886079
:102DA00000211448C1600020124908610021114827
:102DB000416100200F49886100210E48C161002057
:102DC0000D4948600D4948600D4948600D4948600B
:102DD000094988600949886009498860094988600B
:102DE00000231A461946184600F0D8F9FFF772FC7E
:102DF00010BD000044260020F825002004260020F5
:102E0000102600201C2600207047000010B588B056
:102E100055208DF81800AA208DF8190001208DF892
:102E20001A0000208DF81B0002210DF11A00FEF798
:102E30002BFA8DF81C0011A001F0EEFD002416E025
:102E400006A8025D14A101A802F0D0F801A801F0C3
:102E5000E3FD06A8015D124801F0FBFE00BF8021E2
:102E60000F4801F028FE0028F9D0601CC4B2052CE0
:102E7000E6DB0CA001F0D0FD08B010BD53656E6418
:102E8000696E67206175746F206D6F646520636F74
:102E90006D6D616E643A20002530325820000000CC
:102EA000004800400D0A000010B500F001F810BD08
:102EB0000CB50020019000903348006840F4803049
:102EC0003149086000BF3048006800F400300090CD
:102ED0000198401C0190009818B90198B0F5A06FB6
:102EE000F1D12948006800F4003010B101200090B1
:102EF00001E0002000900098012843D12348006899
:102F000040F01000214908600846006820F00300E6
:102F100008600846006840F0020008601A484068EF
:102F2000194948600846406848600846406840F4CF
:102F3000806048600846406820F47C10486008467D
:102F4000406840F4E81048600846006840F080702F
:102F5000086000BF0C48006800F000700028F9D03D
:102F60000948406820F00300074948600846406867
:102F700040F00200486000BF0348406800F00C00C9
:102F80000828F9D10CBD00000010024000200240CA
:102F900010B504467CB126A12046FDF720F920B1EA
:102FA00024A12046FDF71BF928B9FEF77DF920A0E2
:102FB00001F036FF10BD204600F04AF800B1F9E7F5
:102FC00000201E4908602BE01D481C4A126800EBD7
:102FD00002112046FDF703F9E8B9FDF7CFFF1848C5
:102FE0001649096800EB011040681649086014484A
:102FF0001249096800EB0110806813490860104805
:103000000E49096800EB0110C068104908602046AD
:1030100001F006FFCEE709480068401C0749086038
:10302000064800681728CFD3FEF73EF900BFC1E776
:103030005300000073746F700000000098000020BF
:10304000087100088C0000209000002094000020EF
:103050007CB504460020019000902CB120785628C1
:1030600004D02078422801D000207CBD2046FDF706
:10307000AFF8072801D20020F7E701A9601C02F091
:1030800029FD08B90020F0E725796946601D02F0A6
:1030900002FD08B90020E8E7FDF770FF207842281C
:1030A0001DD1019830B9FEF7FFF832A001F0B8FE4B
:1030B0000120DAE70198FDF7F0FA06462E49FDF700
:1030C00026F980F000402D49086000202C49086056
:1030D0002C4908602CA001F0A3FE0120C5E701984F
:1030E000FDF7DBFA06462449FDF711F9234908608C
:1030F0004E2D0AD1019840B9009830B9FEF7D4F8A6
:103100001CA001F08DFE0120AFE74C2D0ED10098E0
:10311000FDF7C3FA06461849FDF7F9F880F00040BC
:103120001749086019A001F07BFE1EE0522D0CD15A
:103130000098FDF7B2FA06460F49FDF7E8F8104986
:10314000086013A001F06CFE0FE000200C4908603D
:1031500010490A480068FDF739FB03D20EA001F0C0
:103160005FFE02E003A001F05BFE0020054908605D
:1031700001207AE7530000000000C8428C000020C4
:103180009000002094000020423100004C310000EB
:10319000523100000AD7233C473100002DE9F041AD
:1031A00007460C4615461E4601204E49086001217F
:1031B0004D4800F049FF57B900204A4930310860B6
:1031C0004A49C1F8B40148493C31088019E0002F50
:1031D0000CDA012043493031086000204349C1F82E
:1031E000B401784240493C3108800AE000203D4962
:1031F0003031086001203D49C1F8B4013A493C3101
:103200000F804CB900203A4908603A49C1F8A00142
:1032100035494031088017E0002C0BDA0120344991
:10322000086000203349C1F8A00160422E494031B6
:10323000088009E000202E49086001202D49C1F8CE
:10324000A001294940310C8055B900202549283179
:1032500008602949C1F8880123493431088019E000
:10326000002D0CDA01201F49283108600020224976
:10327000C1F8880168421C49343108800AE0002006
:1032800018492831086001201B49C1F888011649F6
:1032900034310D8056B900201549103908601549A0
:1032A000C1F8900110493831088019E0002E0CDA7D
:1032B00001200F491039086000200E49C1F8900123
:1032C00070420949383108800AE000200849103965
:1032D000086001200749C1F89001034938310E8088
:1032E000BDE8F08188012242003401400000224202
:1032F000A48121420080214200802242F8B54FF48F
:103300008061FA48FCF74DFFF9A200210846FFF75B
:1033100021FCF848007828B9F7A200215020FFF7D7
:1033200019FC08E0F3480078012804D1F4A2002138
:103330005020FFF70FFCF4A20A210020FFF70AFC3F
:10334000F24908680021FDF741FA16D2F0A20A21DD
:103350001220FFF7FFFBED490868EE49FCF7A5FFD7
:103360000546FDF7DFF904460C20052322460A2115
:1033700000901E20FFF7A4FB18E0E7A20A2112200C
:10338000FFF7E8FBE148006880F00046E14930467D
:10339000FCF78BFF0546FDF7C5F904460C20052315
:1033A00022460A2100901E20FFF78AFBD749886831
:1033B0000021FDF70BFA16D2D5A20A214E20FFF705
:1033C000C9FBD2498868D349FCF76FFF0546FDF772
:1033D000A9F904460C20052322460A2100905A2010
:1033E000FFF76EFB18E0CCA20A214E20FFF7B2FBDC
:1033F000C648806880F00046C6493046FCF755FF55
:103400000546FDF78FF904460C20052322460A21C4
:1034100000905A20FFF754FBC0A214210020FFF7B0
:1034200099FBBF4908680021FDF7D0F916D2B8A270
:1034300014211220FFF78EFBB9490868B549FCF743
:1034400034FF0546FDF76EF904460C20052322469D
:10345000142100901E20FFF733FB18E0AEA21421C8
:103460001220FFF777FBAE48006880F00046A949BC
:103470003046FCF71AFF0546FDF754F904460C20C8
:1034800005232246142100901E20FFF719FBA449B2
:1034900088680021FDF79AF916D29DA214214E20CA
:1034A000FFF758FB9E4988689A49FCF7FEFE0546DF
:1034B000FDF738F904460C2005232246142100901C
:1034C0005A20FFF7FDFA18E093A214214E20FFF7CF
:1034D00041FB9348806880F000468E493046FCF7F7
:1034E000E4FE0546FDF71EF904460C20052322469E
:1034F000142100905A20FFF7E3FA8AA21E2100202F
:10350000FFF728FB884908680021FDF75FF916D20C
:103510007FA21E211220FFF71DFB834908687D4909
:10352000FCF7C3FE0546FDF7FDF804460C20052315
:1035300022461E2100900846FFF7C2FA18E076A244
:103540001E211220FFF706FB7748006880F0004636
:1035500070493046FCF7A9FE0546FDF7E3F804463E
:103560000C20052322461E2100900846FFF7A8FAEA
:103570006D4988680021FDF729F916D264A21E2141
:103580004E20FFF7E7FA684988686249FCF78DFE2C
:103590000546FDF7C7F804460C20052322461E21E8
:1035A00000905A20FFF78CFA18E05BA21E214E20F3
:1035B000FFF7D0FA5C48806880F0004655493046F5
:1035C000FCF773FE0546FDF7ADF804460C20052315
:1035D00022461E2100905A20FFF772FA53A228219A
:1035E0000020FFF7B7FA524908680021FDF7EEF80E
:1035F00016D247A228211220FFF7ACFA4C490868DE
:103600004449FCF752FE0546FDF78CF804460C20B1
:1036100005232246282100901E20FFF751FA18E0CA
:103620003DA228211220FFF795FA4148006880F05A
:10363000004638493046FCF738FE0546FDF772F87B
:1036400004460C2005232246282100901E20FFF767
:1036500037FA374988680021FDF7B8F816D22CA24E
:1036600028214E20FFF776FA314988682949FCF76E
:103670001CFE0546FDF756F804460C20052322469D
:10368000282100905A20FFF71BFA18E022A22821D7
:103690004E20FFF75FFA2648806880F000461D49FB
:1036A0003046FCF702FE0546FDF73CF804460C20C8
:1036B00005232246282100905A20FFF701FA0D48E1
:1036C000007890B91B480078012805D11AA2322150
:1036D0000020FFF73FFA58E016480078A0BB18A278
:1036E00032210020FFF736FA4FE02EE01C010020C7
:1036F0004D6563000D0000202020202020000000E8
:103700004C69646172000000413A0000F825002015
:103710002B00000000007A442D000000423A000017
:1037200004260020433A000010260020443A0000FE
:103730001C2600200C0000204150502020200000BA
:10374000524F5320202000000BE02748007801282A
:103750001BD12648007828B925A232210020FFF786
:10376000F9F912E021480078022805D122A232217D
:103770000020FFF7EFF908E01C480078012804D189
:103780001FA232210020FFF7E5F91FA232213620C7
:10379000FFF7E0F91E4800686421B0FBF1F40C204B
:1037A00002232246322100905420FFF789F919A202
:1037B00032216020FFF7CEF9154800686421B0FB84
:1037C000F1F201FB12040C20022322463221009068
:1037D0006620FFF775F910A232217220FFF7BAF9BF
:1037E000FFF7F4F8F8BD00000D0000200C000020E9
:1037F00041766F6964200000416C6F6E67200000A5
:10380000466F6C6C6F770000566F6C3A00000000DA
:10381000080000202E000000560000002DE9F047AF
:1038200006460C461546544F00213046FCF7CEFFA5
:1038300007D2524908683946FCF7DFFC4F49086057
:1038400018E000213046FCF7B7FF07D24B49086863
:103850003946FCF724FD494908600BE00021304659
:10386000FCF7AAFF06D1454908684549FCF71DFD4C
:103870004249086000212046FCF7A8FF07D23F49D3
:1038800048683946FCF7B9FC3C49486018E000211B
:103890002046FCF791FF07D2384948683946FCF7C3
:1038A000FEFC364948600BE000212046FCF784FF0F
:1038B00006D1324948683249FCF7F7FC2F49486085
:1038C00000212846FCF782FF07D22C498868394638
:1038D000FCF793FC2949886018E000212846FCF792
:1038E0006BFF07D2254988683946FCF7D8FC234985
:1038F00088600BE000212846FCF75EFF06D11F49D7
:1039000088681F49FCF7D1FC1C498860304601F0EB
:10391000AFFF8146304601F0ABFF80F00048174909
:103920004A460868414602F07BF91449086020467F
:1039300001F09EFF8146204601F09AFF80F000488A
:103940000E494A464868414602F06AF90B49486008
:10395000284601F08DFF8146284601F089FF80F05E
:10396000004806494A468868414602F059F9034929
:103970008860BDE8F0870000CDCCCC3D3826002023
:103980006666663F02480068401C0149086070474F
:103990004C00002010B51348006840F001001149A8
:1039A000086008464068104908400E4948600846CB
:1039B00000680E4908400B4908600846006820F47A
:1039C000802008600846406820F4FE0048604FF4FC
:1039D0001F008860FFF768FA4FF000600449086034
:1039E00010BD0000001002400000FFF8FFFFF6FECF
:1039F00008ED00E0F0B50C46154600220021068CCB
:103A00004FF6FE773E400684028B018C4FF60C7613
:103A100032407E1C06EA03162E433243104EB0425B
:103A20000ED0104EB0420BD0B0F1804F08D00E4EE9
:103A3000B04205D00D4EB04202D00D4EB04206D17C
:103A40004FF6FD76314044F00106314305E04FF674
:103A5000F576314044F00106314302830184F0BD24
:103A6000002C0140003401400004004000080040E8
:103A7000000C0040F0B50C4615460022002100263F
:103A8000078C4FF6EF7C07EA0C070784028B018C4A
:103A90004FF6FF7707EA041640F6FF473A404FF625
:103AA000FF7707EA03373A434FF6FF7707EA052720
:103AB0003A43114FB8420ED0104FB8420BD0B0F17C
:103AC000804F08D00E4FB84205D00E4FB84202D0FA
:103AD0000D4FB84206D14FF6DF77394046F0100758
:103AE000394305E04FF65F77394044F0100739431A
:103AF00002830184F0BD0000002C0140003401402D
:103B00000004004000080040000C0040F0B50C46E6
:103B10001546002200210026078C4FF6FF6C07EAAD
:103B20000C070784828B018C4FF6FF7707EA042687
:103B30004FF60C773A404FF6FF7707EA03172F430B
:103B40003A43114FB8420ED0104FB8420BD0B0F1EB
:103B5000804F08D00E4FB84205D00E4FB84202D069
:103B60000D4FB84206D14FF6FF57394046F48077E3
:103B7000394305E04FF2FF57394044F48077394329
:103B800082830184F0BD0000002C0140003401401C
:103B90000004004000080040000C0040F0B50C4656
:103BA0001546002200210026078C4EF6FF7C07EA0E
:103BB0000C070784828B018C4FF6FF7707EA0436E7
:103BC00040F6FF473A404FF6FF7707EA05273A43AA
:103BD0004FF6FF7707EA03373A43114FB8420ED04A
:103BE000104FB8420BD0B0F1804F08D00E4FB84202
:103BF00005D00E4FB84202D00D4FB84206D14DF657
:103C0000FF77394046F48057394305E047F6FF57C0
:103C1000394044F48057394382830184F0BD000069
:103C2000002C014000340140000400400008004026
:103C3000000C00404FF08040008A4FF08040008A26
:103C400020F001004FF0804108827047044800884E
:103C50000348008820F001000149088070470000F7
:103C600010040040044800880348008820F0010048
:103C7000014908807047000010080040044800888F
:103C80000348008820F001000149088070470000C7
:103C9000100C00402DE9F0410121744800F004FAB5
:103CA00000287DD00121714800F0BFF970480068FC
:103CB000401C6F49086008460068642801DB00204A
:103CC0000860FDF717FFFEF733F8FEF7B3FC69480D
:103CD000007840B968480268684801686848006828
:103CE000FDF7AEFB16E063480078012812D1654865
:103CF000007810B9FEF7F0F80CE06248007802286E
:103D000002D1FEF77BF805E05E480078012801D17A
:103D1000FEF786F95C48006800F025FC00287DD19C
:103D20005A48007830B100231A4619461846FFF762
:103D300035FA7CE05648007800284ED040F2DC543A
:103D4000544988685449FCF737FD11D353498868B2
:103D50005149FCF731FD0BD3514988684E49FCF7B6
:103D60002BFD05D34F4988684B49FCF725FD01D24F
:103D70004D4C1DE0474988684C49FCF727FD13D39B
:103D8000464988684949FCF721FD0DD344498868B4
:103D90004649FCF71BFD07D342498868434900E0C8
:103DA00061E0FCF713FD02D240F2DC5400E0002495
:103DB0002046FCF772FC374948602046FCF76DFC52
:103DC000364948602046FCF768FC35494860204683
:103DD000FCF763FC3349486029E02E4A916810687B
:103DE000FDF744FF0446FCF758FC2A4948602B4A7B
:103DF00091681068FDF746FF0446FCF74EFC274922
:103E00004860274A91681068FDF748FF0446FCF7B0
:103E100044FC23494860234A916800E021E010688F
:103E2000FDF748FF0446FCF738FC1E4948601D4971
:103E30004868FCF75EFC044619494868FCF759FCE1
:103E4000054616494868FCF754FC0646114948687F
:103E5000FCF74FFC074623462A463146FFF79EF9FA
:103E600001E0FEF797FF0020BDE8F0810010004060
:103E7000C00000200D0000209400002090000020D1
:103E80008C0000200C00002008000020BD00002055
:103E9000B8000020F82500200AD723BC0426002003
:103EA000102600201C26002024FAFFFF0AD7233CFE
:103EB0007FB505460C4601211020FEF7A7FEADF8A0
:103EC0000850ADF804400020ADF80600ADF80A0037
:103ED00001A90D4800F0ECFA012211460A4800F051
:103EE00054F936208DF8000002208DF801000120E1
:103EF0008DF802008DF803006846FEF719FC0121D9
:103F0000014800F095F87FBD0010004010B5FDF7A6
:103F1000A7F810BD30B589B005460C46012148030D
:103F2000FEF784FE01211020FEF780FE4FF4707032
:103F3000ADF8200010208DF8230003208DF822001A
:103F400008A93048FDF7E6FC4FF470712D48FDF7E5
:103F5000B5FDADF81850ADF814400020ADF81A00CA
:103F6000ADF8160005A9284800F0A2FA6020ADF8C7
:103F700004000120ADF806000020ADF80800ADF8FF
:103F80000A00ADF80C00ADF80E00ADF81000ADF869
:103F9000120001A91C4800F001F901A91A4800F01B
:103FA00053F901A9184800F0AFF901A9164800F02B
:103FB00005FA0821144800F03DF90821124800F0E4
:103FC00095F90821104800F0EFF908210E4800F09B
:103FD00033FA01210C4800F019F818208DF823005D
:103FE00008A90848FDF796FC0121074800F020F8D1
:103FF0000121054800F028F80020034924310880F9
:1040000009B030BD001001400034014021B10288E8
:1040100042F08002028004E002884FF67F731A406B
:1040200002807047CA4302827047CA4302827047C7
:1040300021B1028842F00102028004E002884FF6BA
:10404000FE731A400280704731B1B0F8442042F448
:104050000042A0F8442005E0B0F84420C2F30E026C
:10406000A0F844207047F0B50C4615461E460021C6
:10407000002200230189028B038C4FF6F877394028
:1040800021434FF6FC473A4040F201173A434FF6BE
:10409000DD773B404FF6FF7707EA06172F433B4398
:1040A000018102830384F0BD30B502460020002365
:1040B0000024158A05EA0103958905EA010413B174
:1040C0000CB1012000E0002030BD000070B50546B5
:1040D0000C46244885420ED0234885420BD0B5F1CA
:1040E000804F08D02148854205D02148854202D022
:1040F0002048854200D100E000BF208850B92389C4
:10410000A28861882846FFF775FCE188284600F000
:10411000A2F925E0208804280AD12389A288618891
:104120002846FFF7A7FCE188284600F09DF917E034
:10413000208808280AD12389A28861882846FFF7A9
:10414000E5FCE188284600F09CF909E02389A28873
:1041500061882846FFF722FDE188284600F09AF999
:1041600070BD0000002C01400034014000040040FC
:1041700000080040000C0040002101804180012126
:1041800081800021C180018170471AB183890B436E
:10419000838102E083898B438381704770B500245B
:1041A00000220023058C4FF6FE7635400584028CF4
:1041B0008388048B4FF68F752C40B51E2C400D88DC
:1041C0002C43751E2A400D892A434D882A43144DDD
:1041D000A8420BD0134DA84208D0134DA84205D0D9
:1041E000124DA84202D0124DA84213D14FF6F775D6
:1041F0002A404D892A434FF6FB752A408D882A4371
:104200004FF6FF652B404FF6FF552B408D892B4312
:10421000CD892B4383800483CD888586028470BD3D
:10422000002C0140003401400040014000440140A6
:10423000004801400A460021018B4FF6F7731940F0
:10424000114301837047000070B500240022002351
:10425000058C4FF6EF7635400584028C8388048BFD
:1042600048F6FF752C404FF6FF452C400D884FF661
:10427000FF7606EA05252C434FF6DF752A400D89A7
:1042800006EA05152A434D8806EA05152A43154D09
:10429000A84202D0144DA8421DD14FF67F752A4086
:1042A0004D894FF6FF7606EA05152A434FF6BF758E
:1042B0002A408D8806EA05152A434FF6FF352B4024
:1042C0004FF2FF752B408D8906EA85052B43CD897A
:1042D00006EA85052B4383800483CD880587028405
:1042E00070BD0000002C0140003401400A4600214E
:1042F000018B4FF2FF7319404FF6FF7303EA02235D
:10430000194301837047000070B500240022002388
:10431000058C4FF6FF6635400584028C8388848BBC
:104320004FF68F752C404FF6FC752C400D882C43B2
:104330004FF6FF552A400D894FF6FF7606EA052510
:104340002A434D8806EA05252A43154DA84202D086
:10435000144DA8421DD14FF2FF752A404D894FF6EA
:10436000FF7606EA05252A434FF6FF352A408D8859
:1043700006EA05252A434EF6FF752B404DF6FF75DC
:104380002B408D8906EA05152B43CD8906EA0515D4
:104390002B4383808483CD888587028470BD000091
:1043A000002C0140003401400A460021818B4FF669
:1043B000F7731940114381837047000070B50022E4
:1043C00000230024058C4EF6FF7635400584038CCF
:1043D0008488828B48F6FF752A404FF6FF452A40B5
:1043E0000D884FF6FF7606EA05252A434DF6FF7540
:1043F0002B400D8906EA05352B434D8806EA053525
:104400002B430B4DA84202D00A4DA84208D14BF6CF
:10441000FF752C408D894FF6FF7606EA85152C43F3
:1044200084808283CD88A0F84050038470BD000052
:10443000002C0140003401400A460021818B4FF2DC
:10444000FF7319404FF6FF7303EA02231943818378
:10445000704781847047028B4FF6F3731A400283D2
:10446000028B0A4302837047028B4FF2FF331A40DC
:104470000283028B4FF6FF7303EA01231A43028380
:104480007047828B4FF6F3731A408283828B0A4304
:1044900082837047828B4FF2FF331A408283828B74
:1044A0004FF6FF7303EA01231A438283704700002B
:1044B000002202881D4B98420ED01D4B98420BD013
:1044C000B0F1804F08D01B4B984205D01A4B984250
:1044D00002D01A4B984204D14FF68F731A404B8882
:1044E0001A43174B984207D0164B984204D04FF608
:1044F000FF431A40CB881A4302808B8883850B8840
:1045000003850A4B98420BD0094B984208D00E4BBA
:10451000984205D00D4B984202D00D4B984201D1E4
:104520000B7A03860123838270470000002C014030
:10453000003401400004004000080040000C00402E
:1045400000100040001400400040014000440140C1
:10455000004801404FF6FF71818000210180C18039
:10456000418001727047014609B900207047B1F5DA
:104570007A7F01DA0120F9E70020F7E710B540F271
:104580002551284800F0A4FA002848D040F22551CF
:10459000244800F075FA234800F056FBC4B22248C4
:1045A0002249097844547B2C03D020480078002805
:1045B00005DD1E480078401C1C49087002E0002000
:1045C0001A490870194800780B2828D1002017498B
:1045D00008701548807A7D2821D100210920FCF738
:1045E00083FE1149497A884219D100201049087088
:1045F000104908700C4A1179D07800F0B7FC0E49C8
:104600000860094A9179507900F0B0FC0B490860C4
:10461000054A117AD07900F0A9FC09490860002008
:1046200010BD00000038014010010020880000206B
:104630000D0000200C0000208C00002090000020C5
:10464000940000200448007820B10020024908703E
:10465000012070470020FCE7AE00002003490A68F3
:1046600002604A684260098901817047EE25002096
:1046700003490A6802604A6842608968816070473D
:10468000E225002010B540F225513D4800F020FA07
:10469000002874D03A4800F0D7FAC4B240F225514D
:1046A000374800F0EDF90A2C01D00D2C4BD13548DC
:1046B0000078002843DD00203349324A12788854BC
:1046C000FBF752FD006830490978405C202823D16F
:1046D0002C480078012817D12B48007836280BD0B9
:1046E00029480078372807D027480078382803D091
:1046F00025480078392807D10C21244800F038FFDC
:104700000120234908701AE04021224800F030FFC0
:1047100001202149087012E0FBF726FD00681A49C4
:104720000978405C00F0980048B11C48007830B926
:104730000C21164800F01CFF0120154908700020CC
:10474000104908701AE00F4800783F2816D2FBF78E
:104750000BFD0068005D202808D02C2C06D0FBF74C
:1047600003FD0068005D00F0980038B1054801784D
:104770000078401C034A10700348445400BF10BD29
:1047800000440040AA00002056250020D625002025
:10479000AC00002096250020AB000020AF000020D8
:1047A00000B587B001210520FEF740FA0121480439
:1047B000FEF72CFA0420ADF8180018208DF81B0025
:1047C00003208DF81A0006A91C48FDF7A3F808205D
:1047D000ADF8180004208DF81B0006A91748FDF756
:1047E00099F84FF4E13002900020ADF80C00ADF8DC
:1047F0000E00ADF81000ADF814000C20ADF812005A
:1048000002A90F4800F0B4F926208DF8040000201A
:104810008DF805008DF8060001208DF8070001A82D
:10482000FDF786FF012240F22551054800F07AF994
:104830000121034800F033F907B000BD0008014032
:10484000004400403EB55A480078002840D05948FE
:104850000023009301930293002100221AE00378C1
:10486000302B0FDB0378392B0CDC0378303B3DF821
:10487000114004EB840403EB44039BB22DF8113088
:10488000012206E003782C2B03D112B14B1CD9B2C4
:104890000022401C03780BB10629E0DBBDF8003094
:1048A000454C2380BDF802306380BDF80430A380FE
:1048B000BDF80630E380BDF808302381BDF80A302A
:1048C000638101233D4C23700023394C237000BFCA
:1048D0003B48007800286AD009223A493A48FBF759
:1048E0006BFC00203849487238A13748FBF777FC49
:1048F00060B9012036490870002036490860364901
:10490000086036490860FDF76DFA4DE034A12E4885
:10491000FBF765FC58B900202D4908702D49086047
:104920002D4908602D490860FDF75CFA3CE02DA197
:104930002548FBF754FC60B90120FCF781FB00F02F
:1049400043FA00202349086023490860234908608E
:104950002AE025A11C48FBF742FC18B90020FCF70F
:104960006FFB21E021A11848FBF739FC70B900204A
:1049700017490870FCF764FB00F03CFA0020154969
:10498000086015490860154908600DE018A10E4837
:10499000FBF725FC10B900F017FA05E00C48007889
:1049A00010B90120134908700020054908703EBD68
:1049B000AB00002096250020E2250020AD0000205D
:1049C000AC000020D6250020EE2500203800000095
:1049D000AF0000208C0000209000002094000020F8
:1049E00039000000360000003700000041000000E0
:1049F00042000000AE00002010B5044621460548E4
:104A000000F027F900BF8021024800F054F8002888
:104A1000F9D010BD0044004010B5044603E014F87E
:104A2000010BFFF7E9FF20780028F8D110BD000046
:104A30000448007820B10020024908700120704726
:104A40000020FCE7AD00002010B540F225510948D8
:104A500000F03EF868B1074800F0F6F8C4B2064826
:104A6000047001200549087040F22551014800F00A
:104A700007F810BD00480040B0000020B100002041
:104A800010B50022002340F66A14A14200D100BFF5
:104A90000A1201249440A3B2DC43048010BD21B16A
:104AA000828942F40052828104E082894DF6FF73CC
:104AB0001A408281704702460020B1F5007F00D184
:104AC00000BF13880B400BB1012000E000207047AD
:104AD00070B50246002400230025002040F66A1627
:104AE000B14200D100BFC1F3421501F01F030126FE
:104AF00006FA03F3012D02D19689334006E0022D18
:104B000002D1168A334001E0968A33400C12012606
:104B100006FA04F41688344013B10CB1012000E009
:104B2000002070BDF0B503460024002600250020BB
:104B300040F66A17B94200D100BF1846C1F34214CB
:104B400001F01F06012707FA06F5012C01D10C30F0
:104B500004E0022C01D1103000E014301AB10768D3
:104B60002F43076002E00768AF430760F0BD000015
:104B70002DE9F04786B005460E460024A24600BF48
:104B8000A1460027B08900B100BF2F462C8A4CF601
:104B9000FF700440F08804432C82AC894EF6F31079
:104BA0000440B08831890843718908430443AC81CB
:104BB000AC8A4FF6FF400440B0890443AC8201A8A0
:104BC000FEF744F81F48874202D1DDF810A001E04B
:104BD000DDF80CA0A88900F4004040B10AEBCA003F
:104BE00000EB0A1031684900B0FBF1F807E00AEB6E
:104BF000CA0000EB0A1031688900B0FBF1F86420AC
:104C0000B8FBF0F004012009642101FB1089A88998
:104C100000F4004040B1322000EBC900B0FBF1F0DD
:104C200000F00700044308E0322000EB0910642183
:104C3000B0FBF1F000F00F0004432C8106B0BDE89A
:104C4000F08700000038014001468888C0F3080062
:104C50007047C1F308028280704700BFFEE7000082
:104C600010B586B00446012144F20400FDF7DEFFD2
:104C70004FF40070ADF8140003208DF816001820D2
:104C80008DF8170005A91C48FCF744FE4FF480601E
:104C9000ADF8140004208DF8170005A91648FCF79C
:104CA00039FE01940020ADF80800ADF80A00ADF817
:104CB0000C00ADF810000C20ADF80E0001A90F4853
:104CC000FFF756FF25208DF8000001208DF8010028
:104CD0008DF802008DF803006846FDF729FD0122DA
:104CE00040F225510548FFF71DFF01210348FFF75A
:104CF000D6FE06B010BD000000080140003801409B
:104D000010B586B0044601218804FDF77FFF01211C
:104D10001120FDF78BFF01212848FCF787FE4FF497
:104D20008060ADF8140003208DF8160018208DF86F
:104D3000170005A92248FCF7EDFD4FF40060ADF81F
:104D4000140004208DF8170005A91D48FCF7E2FDAA
:104D500001940020ADF80800ADF80A00ADF80C0091
:104D6000ADF810000C20ADF80E0001A91548FFF7B2
:104D7000FFFE27208DF8000001208DF801008DF83E
:104D800002008DF803006846FDF7D2FC012240F2D4
:104D900025510C48FFF7C6FE272000F01F02012115
:104DA00091404209920002F1E022C2F8001100BFD6
:104DB00001210448FFF773FE06B010BD1000140077
:104DC00000100140004800400020054908700549D6
:104DD0000870054908600549086005490860704782
:104DE000A8000020A90000208C00002090000020D6
:104DF0009400002001200349087000200249087037
:104E000070470000A8000020A900002000200249EF
:104E10000870024908707047A8000020A90000200F
:104E200010B5044604B910BD2078472803D10120ED
:104E3000184908702CE02078422803D10220154937
:104E4000087025E014A12046FBF7C9F918B9052020
:104E5000104908701CE011A12046FBF7C0F918B9F1
:104E600006200C49087013E020784C2803D1032059
:104E7000084908700CE02078522803D10420054925
:104E8000087005E02078532802D1002001490870FD
:104E900000BFC8E7A9000020544C00005452000095
:104EA00010B586B000242C48007810B12B4800784B
:104EB00008B906B010BD6846FFF7DAFB9DE80700A9
:104EC00003AB07C325480078072837D2DFE800F096
:104ED0003604181E242A3000BDF80E0000F0E2FC53
:104EE00048B9BDF80C0000F0DDFC20B9BDF8100099
:104EF00000F0D8FC08B1012000E0002004461EE0CC
:104F0000BDF8120000F0CEFC044618E0BDF80C001D
:104F100000F0C8FC044612E0BDF8100000F0C2FC2E
:104F200004460CE0BDF80C0000F0BCFC044606E0B2
:104F3000BDF8100000F0B6FC044600E000BF00BF62
:104F400044B1002006490860064908600649086027
:104F50000249087000BFACE7A8000020A9000020AB
:104F60008C00002090000020940000202DE9FF5FBD
:104F70000446894609EB04200FFA80FA4FF47A7050
:104F80009AFBF0F100FB11AB5846FBF794FB074688
:104F90000C4A0D4BFBF7A0FA05460E464FF47A700B
:104FA0009AFBF0F73846FBF786FB2A463346CDE9F5
:104FB0000001FBF7EAF9CDE90201FBF7E0FB04B0E1
:104FC000BDE8F09FFCA9F1D24D62503F0FB4054BF4
:104FD00010B503A9044A029800F02CF810BC5DF843
:104FE00014FB000089580008680000200FB4084B2B
:104FF00010B504A902AA039800F01CF8044602A9FF
:10500000002000F048FA204610BC5DF814FB0000B8
:105010009754000802E008C8121F08C1002AFAD1FC
:1050200070477047002001E001C1121F002AFBD128
:10503000704700002DE9FF4F8DB00F460546002652
:1050400006E025280BD0DDE90F1290476D1C761C79
:1050500028780028F5D111B03046BDE8F08F002443
:10506000A246A1460122EC4900E0044315F8013FA5
:10507000203B02FA03F00842F7D128782A2810D002
:105080006FF02F022878A0F13001092914D80AEB1B
:105090008A0102EB410144F0020400EB010A6D1C9D
:1050A000F0E701CF5FEA000A03D544F40054CAF1E7
:1050B000000A44F002046D1C28782E2817D115F838
:1050C000010F44F004042A280ED06FF02F02287834
:1050D000A0F1300109290AD809EB890102EB41014D
:1050E00000EB01096D1CF2E757F8049B6D1C287852
:1050F0006C280FD006DC4C2817D068280DD06A2801
:1051000014D104E0742810D07A280FD10DE044F4B3
:1051100000140AE044F4801401E044F44014697877
:10512000814202D104F580146D1C6D1C2A786E2A10
:105130001FD00CDC632A31D004DC002A8BD0582A23
:1051400011D1A3E0642A68D0692A0CD165E0732AE2
:105150002ED004DC6F2A73D0702A04D19BE0752A0C
:105160006FD0782A6ED01046DDE90F129047761C7A
:1051700050E1C4F30250022806D0032809D00428C5
:1051800001CF09D0066045E101CFF117C0E9006108
:1051900040E101CF06803DE106703BE117F8040BCA
:1051A0008DF8000000208DF80100EB46012003E09F
:1051B00057F804BB4FF0FF3061074FF0000102D4F5
:1051C0000DE008F10101884649450FDA8045F8DB1A
:1051D0001BF808100029F4D108E008F10101884605
:1051E0008142FADB1BF808100029F6D1DDE90F2314
:1051F000AAEB08008146214600F036F9304400EB66
:10520000080604E0DDE90F121BF8010B9047B8F126
:105210000108F7D221464846F7E00A21C4F30253B9
:105220004FF0000B0891022B04D001CFC117032BC4
:1052300009D00AE0FF1D27F00707F7E8020108E0A0
:1052400032E01FE020E000B2C117042B01D140B2D0
:10525000C117031E71F1000307DA4FF0000CD0EB09
:105260000C006CEB01012D2302E0230504D52B2358
:105270008DF82430012303E0E30701D02023F7E772
:10528000984658E00A2110E010210EE010204FF05F
:10529000000B08900CE010214FF0000B44F00404C8
:1052A0004FF00809089103E008214FF0000B089126
:1052B000C4F30253022B04D001CF0021032B06D0EC
:1052C00006E0FF1D27F00707F7E8020103E080B2C0
:1052D000042B00D1C0B24FF0000823072BD5702A51
:1052E00007D0DDF820C08CF0100C5CEA0B0C05D068
:1052F0000EE040238DF82430012308E050EA01033A
:1053000006D030238DF824308DF8252002239846CE
:10531000DDF820C08CF0080C5CEA0B0C0BD150EAD5
:10532000010301D1630706D530238DF824304FF0F7
:105330000108A9F10109582A04D038A20B9208AA41
:105340000A920BE03AA2F9E75B46089AFBF748FAA3
:105350000B9B9B5C0A9A521E0A92137050EA010240
:10536000F2D10A98ADEB000000F1200B600702D5E6
:1053700024F4803401E04FF00109D94502DDA9EBA6
:105380000B0000E0002000EB0B0141440890AAEB69
:10539000010AE00306D4DDE90F232146504600F060
:1053A00063F806444FF0000908E009A911F8090064
:1053B000DDE90F12904709F10109761CC145F4DBC4
:1053C000E0030CD5DDE90F232146504600F04CF8F0
:1053D000064404E0DDE90F1230209047761C08995E
:1053E000481E08900029F5DC08E00A980A99007820
:1053F000491C0A91DDE90F129047761CBBF10001B0
:10540000ABF1010BF1DC21465046DDE90F2300F042
:1054100019F806446D1C1BE60928010030313233AF
:1054200034353637383961626364656600000000E0
:1054300030313233343536373839414243444546CA
:10544000000000002DE9F041044600251E461746E5
:10545000880404D405E039462020B0476D1C641E42
:10546000F9D52846BDE8F0812DE9F0410446002534
:105470001E469046C80301D5302700E02027880447
:1054800004D505E041463846B0476D1C641EF9D589
:105490002846BDE8F0810A68531C0B601070704705
:1054A00001462D48006828B92C480088401C2B4A2A
:1054B000108002E00020294A10802748006828B99F
:1054C0002748007810B90120254A10702548007837
:1054D000B0B923480078012807D123480078401C40
:1054E000214A107001201F4A10701F4800780228BE
:1054F00006D100201C4A10701C4A10800220704700
:1055000015480068012804D10020154A1070154A7A
:1055100010701548007801281CD114480088401CE0
:10552000124A10801046008888420ADD0B48008825
:10553000884206DA00200C4A10700C4A10800120C4
:10554000DDE706480088884204DD0020064A107026
:10555000064A10800020D2E73C81214286000020CC
:1055600081000020820000208300002084000020B1
:1055700070B506460C4606480578A54200D3651E60
:105580002A4604493046FAF7F3FD0020705570BDF5
:10559000AA000020562500202DE9F05F7B207C49E1
:1055A00008767D217A4880F82E107A4A11687A4A66
:1055B0001068FAF722FE8046784801684046FAF7FC
:1055C0001CFE0746764801683846FAF716FE06467E
:1055D0004FF08141FAF79BFE05467249FAF765FEE6
:1055E0000446FBF786F801B269484183694A1168AD
:1055F000694A1068FAF753FE8046684801684046D9
:10560000FAF7FBFD0746664801683846FAF747FE99
:1056100006464FF08141FAF77AFE05466149FAF7EE
:1056200044FE0446FBF765F801B2594881835E48A1
:1056300001685E480068FAF7E0FD83465648006856
:1056400080F0004A534801685046FAF728FE814628
:10565000524801684846FAF7D0FD80465048016834
:105660004046FAF7CAFD07464FF08141FAF74FFE70
:1056700006465946FAF74BFE05464A49FAF715FE23
:105680000446FBF736F801B24148C1834848018C13
:105690003F4841844648C08B404201B23C48818427
:1056A0004348418C3A48C1844148418B3848018580
:1056B0003F48008B404201B2354841853C48818BD0
:1056C000334841853B48008800EB8000400001B230
:1056D0002F480184007E2E4908700020487008463B
:1056E000408B000A88700846807EC8700846808B10
:1056F000000A08710846007F48710846C08B000AFE
:1057000088710846807FC8710846408C000A08727C
:10571000084690F8220048720846808C000A887279
:10572000084690F82400C8720846C08C000A087326
:10573000084690F8260048730846008D000A8873D2
:10574000084690F82800C8730846408D000A08747F
:10575000084690F82A0048740846808D000A88742C
:10576000084690F82C00C8740846008C000A08759A
:10577000084690F82000487501211620FBF7B4FD7B
:1057800003498875084690F82E00C875BDE8F09F5B
:105790001C05002004260020F825002010260020EB
:1057A0001C26002000007A44140000201000002075
:1057B000C6240020080000204FF0E021096921F0F4
:1057C00004014FF0E0221161C21700EB5272C2F3E4
:1057D000C702074B1A701946097801EB4102C2EB68
:1057E000C1114FF6FF7202EAC101024A11807047EF
:1057F000640000206600002001460D4A12884A43DA
:105800004FF0E0235A6100229A6101221A6100BF21
:105810004FF0E022106900F001021AB100F480326A
:10582000002AF5D000224FF0E0231A619A617047F8
:105830006600002001460D4A12784A434FF0E023EB
:105840005A6100229A6101221A6100BF4FF0E022E2
:10585000106900F001021AB100F48032002AF5D07C
:1058600000224FF0E0231A619A6170476400002023
:1058700010B5044600212046FAF7A8FF01D82046BB
:1058800010BD84F00040FBE700BF054A128802F01B
:105890004002002AF9D0C2B2014B1B1D1A8070478A
:1058A000003801400146002903DD0F2901DA0120FB
:1058B00070470020FCE70000FEF76CF84FF4A06092
:1058C000FCF76EFF4820FFF777FFFCF73BFE4FF435
:1058D0009670FFF791FFFBF755FEFBF7B3FEFBF762
:1058E000FFFEFBF74BFFFCF767FAFBF781F8FCF7CD
:1058F0000BFA4FF4E130FFF7B3F9FEF751FF4FF425
:10590000E130FFF7FDF9FCF7A1FF42F20F714720EC
:10591000FEF7CEFAFCF752FE002141F61F40FEF7DB
:10592000F9FA00202C4908702C490870FCF7F8FDA2
:10593000FBF73EFBFCF780FC294800684FF47A72C5
:10594000B0FBF2F1B1F1807F00D31DE021F07F4088
:10595000401E4FF0E022506150170F22002807DA56
:1059600013071D0E1F4B00F00F04241F1D5503E0ED
:1059700013071C0E1C4B1C5400BF00204FF0E022EC
:1059800090610720106100BF24E0FEF75BFF17481D
:105990000078B0B9FBF7A0FBFCF798F918B9FCF751
:1059A000C5FDFFF77DFAFCF791F960B90A48007868
:1059B00048B90A48007830B9FFF7EEFDFBF7B2FCB2
:1059C00001E0FCF791FCFDF799FCFBF721F964205D
:1059D000FFF730FFD9E700000D0000200C00002089
:1059E0005000002018ED00E000E400E0AF000020CF
:1059F00010B5044600212046FAF7DEFE02D284F0FC
:105A0000004010BD2046FCE72DE9F04707460D4653
:105A100016461C463846FFF7EBFF80462846FFF740
:105A2000E7FF81463046FFF7E3FF824612494046D2
:105A3000FAF7CCFE1BD84FF082415046FAF7C6FE6B
:105A400015D24FF081414846FAF7B6FE0FD20B4807
:105A5000005DFF2804DA0948005D401C074908552D
:105A60000648005D192805DB0120BDE8F08700200D
:105A7000024908550020F8E700009644B9000020CC
:105A800010B50246012000E050430B1EA1F10104B5
:105A9000E1B2F9D110BD70B504460D466CB1FAF70C
:105AA00063FB00682178405C202806D1FAF75CFB94
:105AB00000686178405C202801D0002070BD6078CB
:105AC00030382178303901EB810100EB410028604A
:105AD0000120F3E770B504460D46A4B1FAF744FB84
