:020000040800F2
:1000000098070020B94300083D0300083F0300089B
:1000100043030008470300084B03000800000000EA
:100020000000000000000000000000004F03000876
:1000300051030008000000005303000831030008CA
:10004000D3430008D3430008D3430008D343000838
:10005000D3430008D3430008D3430008DB21000842
:10006000D3430008D3430008D3430008D343000818
:10007000D3430008D3430008D3430008D343000808
:10008000D3430008D3430008D3430008D3430008F8
:10009000D3430008D3430008D343000815220008C7
:1000A000D3430008D3430008D3430008D3430008D8
:1000B00079440008FD100008D3430008D34300082A
:1000C000D3430008D3430008D3430008D3430008B8
:1000D000D3430008BF06000811230008D3430008DB
:1000E000D3430008D3430008D3430008D343000898
:1000F000D3430008D3430008D3430008D343000888
:10010000D3430008D3430008D3430008D343000877
:10011000D3430008D3430008D3430008D343000867
:10012000D3430008D3430008D3430008D343000857
:1001300000F002F800F090F80AA090E8000C824469
:100140008344AAF10107DA4501D100F085F8AFF246
:10015000090EBAE80F0013F0010F18BFFB1A43F0A5
:100160000103184790600000B0600000103A24BFFF
:1001700078C878C1FAD8520724BF30C830C144BF0C
:1001800004680C607047000000230024002500264E
:10019000103A28BF78C1FBD8520728BF30C148BFEA
:1001A0000B6070476E2904F09D83702904F0DF8492
:1001B000662905F06587652905F06287672905F0DE
:1001C0005F87612905F05E8703681B0A28BF41F03D
:1001D0008001692904F04A83642904F04783752962
:1001E00004F044836F2904F06C84782904F0AB8414
:1001F000E92904F00784E42904F00484F52904F0D3
:100200000184EF2904F06984F82904F0AA840368C2
:10021000DB0928BF41F08001632905F0AD81732916
:1002200005F0B281E32905F0BD81F32905F0C28113
:10023000002070471FB505F00FFA040000200021D0
:1002400005F008FF401C60600020002105F0ECFE76
:10025000E0601FBD10B510BD05F0D0F91146FFF7E5
:10026000E9FF00F009F805F0ADFA03B4FFF7F2FF7B
:1002700003BC00F05CFA000040F6B83000F073F9FF
:1002800000F0D9F84FF4E13000F0D6F94FF4E13046
:1002900000F06CFA4FF4E13000F02EFB00F00FFF9D
:1002A00000F07AF900F090F900F0DFFB01F0C6FCF5
:1002B00002F00AF800F05EFF1A4800684FF47A7204
:1002C000B0FBF2F1B1F1807F01D301201DE021F0FC
:1002D0007F40401E4FF0E022506150170F2200284F
:1002E00007DA13071D0E104B00F00F04241F1D55D5
:1002F00003E013071C0E0D4B1C5400BF00204FF0F1
:10030000E022906107201061002008B100BFFEE7E5
:1003100006E001F0FFFE02F034F8012000F023F9BE
:10032000F7E700000400002018ED00E000E400E022
:1003300008480068401C074908607047704700BFC4
:10034000FEE700BFFEE700BFFEE700BFFEE7704725
:1003500070477047000000200CB50020019000900D
:100360006C48006840F480306A49086000BF694802
:10037000006800F4003000900198401C0190009843
:1003800018B90198B0F5A06FF1D16248006800F487
:10039000003010B10120009001E000200090009892
:1003A000012843D15C48006840F010005A490860B9
:1003B0000846006820F0030008600846006840F026
:1003C0000200086053484068524948600846406847
:1003D00048600846406840F48060486008464068CD
:1003E00020F47C1048600846406840F4E8104860FB
:1003F0000846006840F08070086000BF454800680B
:1004000000F000700028F9D04248406820F0030056
:10041000404948600846406840F00200486000BF1C
:100420003C48406800F00C000828F9D10CBD10B51C
:10043000FFF792FF10BD10B53648006840F001008C
:1004400034490860084640683449084031494860EA
:1004500008460068324908402E490860084600688E
:1004600020F4802008600846406820F4FE004860C0
:100470004FF41F008860FFF7DAFF4FF00060294952
:10048000086010BD10B5002100200022214B5B68E0
:1004900003F00C0121B1042906D0082928D107E076
:1004A000214B224C236027E01F4B204C236023E08C
:1004B000184B5B6803F47010164B5B6803F48032D2
:1004C000022303EB904022B9194B4343174C23609E
:1004D0000DE0104B5B6803F4003323B1144B43432E
:1004E000124C236003E0104B4343104C236003E0A5
:1004F0000D4B0E4C236000BF00BF064B5B68C3F37F
:1005000003130C4CE15C094B1B68CB40074C236088
:1005100010BD000000100240002002400000FFF863
:10052000FFFFF6FE08ED00E000127A000400002054
:1005300000093D000800002000EBC001C9004FF099
:10054000E0225161002191610521116100BF4FF04E
:10055000E021096901F480310029F8D004214FF02D
:10056000E0221161704700B5034603E04FF47A7052
:10057000FFF7E2FF181EA3F10103F7D100BD10B58C
:10058000044603E04FF47A70FFF7EDFF201EA4F15C
:100590000104F7D110BD000008B50121102002F0C0
:1005A00095FD10208DF803004002ADF800000320F7
:1005B0008DF802006946154802F0D8F84FF4005152
:1005C000124802F080F908BD10B54FF400510F48F1
:1005D00002F07BF910BD10B54FF400510B4802F04A
:1005E00072F910BD10B54FF40051084802F05EF9E1
:1005F00028B94FF40051054802F065F904E04FF4C2
:100600000051024802F061F910BD000000100140E5
:1006100008B54FF4806001F04DFF25208DF80000F3
:1006200003208DF801008DF8020001208DF80300F1
:10063000684601F044FF08BD10B586B004460121AC
:1006400044F2040002F042FD4FF40070ADF81400D3
:1006500018208DF8170003208DF8160005A94148D1
:1006600002F084F84FF48060ADF8140004208DF897
:10067000170003208DF8160005A93A4802F076F815
:1006800001940020ADF80800ADF80A00ADF80C00A8
:10069000ADF810000C20ADF80E00FFF7B9FF01A96E
:1006A000314803F0C8FC012240F225512E4803F0E6
:1006B0005AFD01212C4803F04AFD06B010BD10B5CB
:1006C00040F22551284803F033FE30B1264803F0AC
:1006D000AFFDC4B2204600F08FFC10BD70B50446DB
:1006E0000D462946204603F09FFD00BF802120468D
:1006F00003F008FE0028F9D070BD70B505460E461F
:10070000002400BF295D1848FFF7E8FF641CB442CD
:10071000F8D370BD70B50446002500BF615D124876
:10072000FFF7DCFF6D1C605D0028F7D170BD00BFD6
:10073000704700BF0C4A128802F04002002AF9D02C
:10074000C2B2094B1B1D1A80704710B5044600BF8A
:100750002021054803F0D6FD0028F9D0024803F017
:1007600067FD10BD000801400038014010B586B09B
:1007700004460121480402F0B6FC0121042002F0E5
:10078000A5FC18208DF817000420ADF814000320F4
:100790008DF8160005A9544801F0E8FF48208DF8AF
:1007A00017000820ADF8140005A94F4801F0DEFF3E
:1007B00001940020ADF810000C20ADF80E000020D0
:1007C000ADF80C00ADF80A00ADF8080001A94748E3
:1007D00003F031FC012240F22551444803F0C3FCF0
:1007E0004FF4A06001F066FE26208DF80000012085
:1007F0008DF803008DF801008DF80200684601F0C5
:100800005EFE0121394803F0A2FC06B010BD10B510
:1008100004462146354803F007FD00BF80213348D8
:1008200003F070FD0028F9D010BD70B505460E46E6
:10083000002404E0285DFFF7EAFF601C84B2B442A4
:10084000F8DB70BD10B5044603E014F8010BFFF7A8
:10085000DEFF20780028F8D110BD10B50246012037
:1008600000E050430B1EA1F10101FAD110BD2DE9AA
:10087000F04106460C46002512E0601B411E0A208E
:10088000FFF7EBFFB6FBF0F00A21B0FBF1F201FB42
:10089000120000F130073846FFF7B9FF681CC5B2F7
:1008A000A542EADBBDE8F0810FB400B59BB01DA8FE
:1008B000019002A8019A1C9903F0FCFD0020019010
:1008C00002A8FFF7BFFF1BB05DF814FB08480078D3
:1008D00020B1002006490870012070470020FCE785
:1008E00004480078704700000008014000440040C0
:1008F000190000201800002010B586B00446012120
:10090000092002F0E3FB0121880402F0ECFB4FF424
:100910008060ADF8140003208DF8160018208DF8C3
:10092000170005A9284801F021FF4FF40060ADF839
:10093000140048208DF8170005A9234801F016FF80
:1009400001940020ADF80800ADF80A00ADF80C00E5
:100950000C20ADF80E000020ADF8100001A91B48D6
:1009600003F069FB012240F22551184803F0FBFB1C
:100970000121164803F0EBFB27208DF80000012031
:100980008DF801008DF802008DF80300684601F033
:1009900096FD06B010BD10B5044600BF80210B487F
:1009A00003F0B0FC0028F9D02146084803F03CFCD5
:1009B00010BD10B5044603E014F8010BFFF7EBFF80
:1009C00020780028F8D110BD000C014000480040FC
:1009D00008B50121480502F086FB0121092002F03B
:1009E00075FB4020ADF8000003208DF802001C20AC
:1009F0008DF803006946D54801F0B8FE8020ADF8B7
:100A0000000003208DF802001C208DF803006946C9
:100A1000CE4801F0ABFE08BD1FB50121480502F02C
:100A20007CFB00214FF4001002F077FBC84801F076
:100A3000EBFF0020ADF804004BF6FF70ADF80600A8
:100A40000A20ADF808004FF48060ADF80A000001FC
:100A5000ADF80C00BF4800906946BD4801F0EDFFBD
:100A60000121BB4802F067F81FBD10B5FFF7B0FFCA
:100A7000FFF7D2FF10BD10B50121B54802F08BF889
:100A8000002010BD70B504460D464FF48050B249A9
:100A9000086008E0B0490868411EAF4A116010B90B
:100AA000FFF7E9FF70BD4FF40031A94802F05CF98F
:100AB0000028EFD10121A64802F061F84FF48050E0
:100AC000A549086008E0A4490868411EA24A1160CF
:100AD00010B9FFF7D0FFE5E7A0499D4802F022F9E1
:100AE0000028F0D000225D21994802F09EF84FF4D2
:100AF00080509949086008E097490868411E964A65
:100B0000116010B9FFF7B7FFCCE79549904802F0A4
:100B100009F90028F0D021468D4802F080F84FF402
:100B200080508D49086008E08B490868411E8A4A58
:100B3000116010B9FFF79FFFB4E78949891C844809
:100B400002F0F0F80028EFD02946814802F067F85B
:100B50004FF480508049086008E07F490868411ED2
:100B60007D4A116010B9FFF786FF9BE77C49891C1D
:100B7000774802F0D7F80028EFD00121744802F03E
:100B80000AF80120FFF7EFFC01208BE72DE9F04187
:100B900007460D4614464FF420406F490860012671
:100BA0000AE06D490868411E6B4A116020B96DA0CA
:100BB000FFF7B0FD0026B8E04FF40031644802F0C2
:100BC000D3F80028EDD10121614801F0D8FF4FF49E
:100BD0008050614908600AE05F490868411E5E4A2A
:100BE000116020B966A0FFF795FD00269DE05B49E6
:100BF000574802F097F80028EED00022BA21544856
:100C000002F013F84FF48050534908600AE052494B
:100C10000868411E504A116020B961A0FFF77AFDB3
:100C2000002682E04E494A4802F07CF80028EED0C7
:100C30003946474801F0F3FF4FF4805046490860B9
:100C40000AE045490868411E434A116020B95CA08A
:100C5000FFF760FD002668E04149891C3C4802F02E
:100C600061F80028EDD00121394801F088FF4FF4E8
:100C70008050394908600AE037490868411E364A01
:100C8000116020B956A0FFF745FD00264DE033491D
:100C90002F4802F047F80028EED00122BB212C4853
:100CA00001F0C3FF4FF480502B4908600AE02A4945
:100CB0000868411E284A116020B951A0FFF72AFD9B
:100CC000002632E02549491C214802F02BF8002873
:100CD000EDD027E0012C07D100211D4801F067FF6E
:100CE00001211B4801F057FF4FF480501A4908605A
:100CF0000AE019490868411E174A116020B948A046
:100D0000FFF708FD002610E014493F31104802F0BB
:100D100009F80028EDD00E4801F083FF28706D1C03
:100D2000601EC4B2002CD5D100BF0121084801F0DB
:100D30003EFF1EB90121064801F02DFF16B940A063
:100D4000FFF7E8FC3046BDE8F0810000000C0140F0
:100D500000540040A08601001C0000200100030098
:100D6000820007004572726F723A204275732062EA
:100D70007573792074696D656F7574210D0A0000B3
:100D80004572726F723A204556352074696D656FF1
:100D900075742028535441525429210D0A00000033
:100DA0004572726F723A204556362074696D656FD0
:100DB000757420284164647220545829210D0A005A
:100DC0004572726F723A204556382074696D656FAE
:100DD0007574202852656720545829210D0A000097
:100DE0004572726F723A204556352074696D656F91
:100DF000757420285265535441525429210D0A001C
:100E00004572726F723A204556362074696D656F6F
:100E1000757420284164647220525829210D0A00FB
:100E20004572726F723A204556372074696D656F4E
:100E3000757420284461746120525829210D0A00DC
:100E40004932432072656164206661696C65642182
:100E50000D0A00002DE9F04F87B006460C461546F6
:100E6000602C3EDBB4F57A6F3BDCF7B207200690CE
:100E7000032005902A2004904FEA142804F0FF096B
:100E80004FEA152A05F0FF0B07F1340040444844AF
:100E900050445844C043C0B20390002000900190D9
:100EA0000290FF208DF800008DF801008DF802708F
:100EB00007208DF8030003208DF804002A208DF808
:100EC00005008DF806808DF807908DF808A08DF844
:100ED00009B003988DF80A000B216846FFF70DFC56
:100EE00000BF07B0BDE8F08F2DE9FC470446012C98
:100EF0002ADBFA2C28DCFE274FF004084FF0030908
:100F00004FF0050A254605F58570C043C6B200209E
:100F100000900190FF208DF800008DF80100FE2068
:100F20008DF8020004208DF8030003208DF80400E2
:100F300005208DF805008DF806508DF80760082112
:100F40006846FFF7DAFB00BFBDE8FC872DE9FC47E8
:100F50000446002C2ADDFA2C28DCE5B204274FF0E9
:100F600002084FF038094FF0020A05F14000C04373
:100F7000C6B2002000900190FF208DF800008DF88F
:100F800001008DF8025004208DF8030002208DF836
:100F9000040038208DF8050002208DF806008DF839
:100FA000076008216846FFF7A8FB00BFBDE8FC8783
:100FB00010B534488078334AD2781044314A1279D7
:100FC0001044304A527910442E4A92791044C0435A
:100FD000C1B22C48C079884209D1002200230020E8
:100FE000284C6279A37903EB0224A0B210BD002043
:100FF000FCE72548007870472449097821B1012988
:1010000018D002293BD126E0FF2806D1FF211D4A36
:10101000117001211D4A11700BE0F52809D1FF2143
:10102000184A1170F52151700221184A1170184A9E
:10103000117025E0F52808D1F521124A51700221DE
:10104000124A1170124A117004E000210F4A117007
:101050000C4A117014E00B490D4A127888540C495F
:101060000978491C0A4A117011460978082905DBDC
:101070000021064A11700121034A117000E000BFEF
:1010800000BF7047200000202A0000202900002017
:101090002800002008B54FF4A06001F00BFA1D20D5
:1010A0008DF8000003208DF8010002208DF8020069
:1010B00001208DF80300684601F001FA08BD0EB565
:1010C0000121022002F00FF84FF47A70ADF804000D
:1010D0004720ADF800000020ADF80600694618482A
:1010E00002F02CF90121164802F04AFF01221146B4
:1010F000134802F09AFCFFF7CDFF0EBD10B5012199
:101100000F4802F040FF40B10E480068401E0D49F4
:10111000086001210A4802F047FF10BD10B50446DF
:10112000084804600121064802F064FC00BF05483D
:1011300000680028FBD10021014802F05BFC10BDD3
:10114000000400402C00002010B540F6B83240F2F8
:10115000A461FE480078FFF77DFE40F6B83240F605
:101160003401FB480078FFF775FE40F6B830FFF712
:10117000D5FF10BD10B5FFF7E7FF40F6B8324FF4CA
:10118000E161F4480078FFF765FE40F6B832114699
:10119000F1480078FFF75EFE40F6B83240F29E71EB
:1011A000EE480078FFF756FE40F6B8324FF4FA6189
:1011B000EB480078FFF74EFE40F6B8324FF4AF61CF
:1011C000E8480078FFF746FE40F6B8324FF4C861B1
:1011D000E5480078FFF73EFE40F6B83240F686312B
:1011E000E2480078FFF736FE40F6B8324FF4FA6175
:1011F000DF480078FFF72EFE40F6B8324FF4FA6170
:10120000DC480078FFF726FE40F6B83240F67A5107
:10121000D9480078FFF71EFE40F6B830FFF77EFF92
:1012200010BD2DE9F04104460D46A01DC6B240F2A6
:10123000771229462046FFF70DFEC6480078844203
:101240000CD140F63400401B00F2DC5087B240F273
:10125000771239463046FFF7FDFD05E040F2771280
:1012600029463046FFF7F6FDBDE8F08170B504462B
:101270000D46BC480078844202D140F6AC5001E0F3
:1012800040F2DC50064640F2EE2229462046FFF7A7
:10129000E1FD40F2EE223146B7480078FFF7DAFD73
:1012A00070BD10B540F2EE2240F2A461A74800786C
:1012B000FFF7D0FD40F2EE2240F63401A44800785A
:1012C000FFF7C8FD10BD10B540F2EE224FF461618A
:1012D0009E480078FFF7BEFD40F2EE224FF46161B8
:1012E0009B480078FFF7B6FD10BD70B505460C466B
:1012F00040F26C70844202DCFFF7D3FF01E0FFF79D
:10130000E2FF70BD2DE9F041012600274FF00008F3
:10131000002551E000242DE0002E11DD974830F823
:10132000140040F63401884207DA944830F814007B
:101330006430924921F8140012E04FF0FF360FE0BC
:101340008E4830F8140040F2DC51884207DD8B48AB
:1013500030F814006438894921F8140000E00126AF
:10136000864A32F814107B4A12782244D0B2FFF732
:1013700058FF641C042CCFDB3FB940F6AC517948D0
:101380000078FFF773FF012706E040F2DC51754853
:101390000078FFF76BFF0027B8F1000F04D1FFF7CB
:1013A00080FF4FF0010803E0FFF78DFF4FF00008CA
:1013B0009620FFF7B3FE6D1C282DABDBFFF7DAFE9E
:1013C000BDE8F0812DE9FC4101274FF000086C4990
:1013D00003C9CDE90001002657E000253EE00024C6
:1013E0002AE0002F0FDD3DF8140040F6340188425A
:1013F00006DA3DF81400323080B22DF8140010E007
:101400004FF0FF370DE03DF8140040F2DC51884208
:1014100006DD3DF81400323880B22DF8140000E0EB
:1014200001273DF814104B4A12782244D0B240F202
:101430007712FFF70FFD641C042CD2DBB8F1000F0C
:1014400004D1FFF72EFF4FF0010803E0FFF73BFF49
:101450004FF000084B20FFF761FE6D1C142DBEDB22
:10146000012700240EE04FF4FA602DF814003DF837
:101470001410384A12782244D0B240F27712FFF7A3
:10148000E9FC641C042CEEDB761C032EA5DBFFF7C5
:1014900071FEBDE8FC8170B504460D461646324625
:1014A00029462046FFF7D6FC70BD10B540F2EE226B
:1014B0004FF4486127480078FFF7EDFF40F2EE2235
:1014C00040F61C4124480078FFF7E5FF40F2EE2289
:1014D00040F29E7121480078FFF7DDFF40F2EE22D6
:1014E0004FF4FA611E480078FFF7D5FF40F2EE2274
:1014F0004FF4C8611B480078FFF7CDFF40F2DC5085
:10150000FFF70CFE40F2EE2240F65A210F48007819
:10151000FFF7C1FF40F2EE20FFF700FE002434E0A9
:10152000FA2240F6B8310B480078FFF7B4FF4FF4C9
:10153000FA70FFF7F3FDFA224FF44861054800788E
:10154000FFF7A9FF4FF4FA701CE0000035000020FF
:101550003B0000203000002031000020320000203D
:101560003300002034000020360000203700002027
:1015700038000020390000203A00002048000020F8
:1015800088600008FFF7CAFD641C022CC8DBFFF767
:10159000F1FD10BD10B540F2EE229100FE4800783A
:1015A000FFF779FF40F2DC50FFF7B8FD40F2EE2282
:1015B0004FF46161F9480078FFF76DFF40F2DC50AD
:1015C000FFF7ACFD10BD10B540F2EE229100F248DD
:1015D0000078FFF760FF40F2EE224FF4C871F04848
:1015E0000078FFF758FF40F6B830FFF797FD40F25C
:1015F000EE224FF46161E9480078FFF74CFF4B2081
:10160000FFF78CFD40F2EE224FF46161E54800786F
:10161000FFF741FF10BD10B540F2EE2240F6FC018D
:10162000E1480078FFF737FF4B20FFF777FD40F2E6
:10163000EE2240F61C41DD480078FFF72CFF3220F7
:10164000FFF76CFD40F2EE2240F6FC01D84800782E
:10165000FFF721FF4B20FFF761FD40F2EE2240F63D
:101660001C41D4480078FFF716FF10BD10B540F2BA
:10167000EE2240F2A461C8480078FFF70CFF4B202F
:10168000FFF74CFD40F2EE2240F2A461C44800781E
:10169000FFF701FF4B20FFF741FD40F2EE2240F63D
:1016A000C411C1480078FFF7F6FE4B20FFF736FD66
:1016B00040F2EE2240F6C411BD480078FFF7EBFE81
:1016C00010BD10B540F2EE2240F2A461B34800789C
:1016D000FFF7E1FE40F27710FFF720FD40F2EE2227
:1016E00040F6E441AC480078FFF7D5FE40F2EE2228
:1016F0004FF44861AC480078FFF7CDFE40F2EE228F
:101700004FF41661A9480078FFF7C5FE40F2EE22BB
:101710004FF4E161A8480078FFF7BDFE40F2EE22E9
:101720004FF4AF61A5480078FFF7B5FE40F2DC50FA
:10173000FFF7F4FC40F2EE224FF461619748007825
:10174000FFF7A9FE40F2EE20FFF7E8FC40F2EE22A0
:1017500040F29E7195480078FFF79DFE40F2EE2220
:101760004FF4FA6194480078FFF795FE4FF4FA7051
:10177000FFF7D4FC10BD10B540F2EE224FF42F61FC
:1017800085480078FFF787FE40F2EE2240F62821D8
:1017900085480078FFF77FFE40F2EE2240F6980180
:1017A00082480078FFF777FE40F2EE224FF4FA61AC
:1017B00081480078FFF76FFE40F2EE224FF4C861D7
:1017C0007E480078FFF767FE40F2DC50FFF7A6FC8A
:1017D00040F2EE2240F2A46170480078FFF75BFE11
:1017E00040F2EE20FFF79AFCFFF7C4FC10BD10B5E5
:1017F00040F2EE22910068480078FFF74CFE40F27C
:10180000EE2240F61C4168480078FFF744FE40F2A3
:10181000EE224FF4C87162480078FFF73CFE40F2B8
:10182000EE22910062480078FFF735FE40F2DC506E
:10183000FFF774FC10BD2DE9F04F95B0604903C966
:10184000CDE913015E49083103C9CDE911015648BC
:1018500000788DF84000554800788DF841005648D2
:1018600000788DF84200524800788DF83C005148CD
:1018700000788DF83D00534800788DF83E004FF019
:10188000000915E013AA32F8191010AA12F809007D
:1018900040F2EE22FFF7FFFD11AA32F819100FAA4D
:1018A00012F8090040F2EE22FFF7F5FD09F10109F7
:1018B000B9F1030FE6DB4FF4FA70FFF72FFC4FF49A
:1018C00096744FF47A600E903C254FF014080E98F1
:1018D000B0FBF5FA002600274FF0010B701E0D90AB
:1018E0000020009047E00BFB086006B2A64203DB35
:1018F00026464FF0FF3B06E06042864203DC604232
:1019000006B24FF0010B0D9800FB087007B2A7421A
:1019100004DB27464FF0FF300D9006E0604287421F
:1019200003DC604207B201200D904FF0000919E07E
:1019300013AA32F81920324491B210AA12F8090001
:10194000C5F34F02FFF7A7FD11AA32F819203A4458
:1019500091B20FAA12F80900C5F34F02FFF79BFDE1
:1019600009F10109B9F1030FE2DBA8B2FFF7D6FBD9
:101970000098401C009000985045B4D340F2EE22ED
:10198000910005480078FFF786FD40F2EE2240F610
:101990001C410548007817E0300000203500002089
:1019A000360000203B0000203100002032000020E3
:1019B00037000020380000203300002034000020D1
:1019C0009060000839000020FFF765FD40F2EE222C
:1019D0004FF4C87190480078FFF75DFD40F2EE22A9
:1019E00091008E480078FFF756FD40F2DC50FFF77B
:1019F00095FB8B4903C9CDE90B018949083103C91E
:101A0000CDE90901874800788DF8200086480078E4
:101A10008DF82100854800788DF81C0084480078F6
:101A20008DF81D004FF47A6006900698B0FBF5FA29
:101A3000002600274FF0010B701E0D900020009033
:101A40004BE00BFB086006B2A64203DB26464FF0D4
:101A5000FF3B06E06042864203DC604206B24FF084
:101A6000010B0D9800FB087007B2A74204DB274664
:101A70004FF0FF300D9006E06042874203DC604289
:101A800007B201200D904FF000091DE00BAB09F1EA
:101A9000010233F81220324491B208AA12F8090068
:101AA000C5F34F02FFF7F7FC09AB09F1010233F868
:101AB00012203A4491B207AA12F80900C5F34F0266
:101AC000FFF7E9FC09F10109B9F1020FDEDBA8B269
:101AD000FFF724FB0098401C009000985045B0D3BD
:101AE00040F2EE2240F26C7152480078FFF7D3FCCE
:101AF00040F2EE224FF4C86147480078FFF7CBFC74
:101B000040F2EE224FF47A714B480078FFF7C3FCA5
:101B100040F2EE224FF4617140480078FFF7BBFCC1
:101B200040F2DC50FFF7FAFA3D48103000680590AB
:101B30003B481430006804903A4800788DF80C0057
:101B4000394800788DF80D00384800788DF8080085
:101B5000374800788DF809004FF4FA500190019849
:101B6000B0FBF5FA002600274FF0010B701E0D9018
:101B70000020009047E00BFB086006B2A64203DBA2
:101B800026464FF0FF3B06E06042864203DC60429F
:101B900006B24FF0010B0D9800FB087007B2A74288
:101BA00004DB27464FF0FF300D9006E0604287428D
:101BB00003DC604207B201200D904FF0000919E0EC
:101BC00005AA32F81920324491B203AA12F809008A
:101BD000C5F34F02FFF75FFC04AA32F819203A441C
:101BE00091B202AA12F80900C5F34F02FFF753FCA5
:101BF00009F10109B9F1020FE2DBA8B2FFF78EFA91
:101C00000098401C009000985045B4D3FFF7B2FAFA
:101C100015B0BDE8F08F000036000020370000202E
:101C2000A0600008320000203300002038000020AF
:101C300039000020300000203100002000B587B0BE
:101C4000002006900490059003900090019002906F
:101C500001210D2001F03AFA03208DF81A0010201E
:101C60008DF81B005120ADF8180006A9FD4800F0C2
:101C70007DFD4FF40070ADF8180006A9FA4800F099
:101C800075FD48208DF81B00A220ADF8180006A9AC
:101C9000F44800F06BFD4FF48070ADF8180006A911
:101CA000F14800F063FD0121002000F075FE0521E0
:101CB000002000F071FE0721002000F06DFE0821D9
:101CC000012000F069FE4FF4D170049000208DF8DF
:101CD000140010208DF8150001208DF8160004A8BE
:101CE00000F064FC0F208DF80D008DF80E0001202F
:101CF0008DF80F0007208DF80C0003A800F0DFFB23
:101D000017208DF80C0003A800F0D9FB012108462C
:101D100001F0E9F94FF6FF70ADF804004720ADF887
:101D200000000020ADF80600ADF8020069464FF053
:101D3000804001F003FB0121880701F05BFE0020D9
:101D4000CA490870CA490870CA490860CA49086087
:101D5000CA49087007B000BDC8490870704730B55F
:101D60004FF6FF7398420ED1452415786B1C137003
:101D70004C55522415786B1C13704C5515786B1C00
:101D800013704C5530BD642821D36423B0FBF3F3AA
:101D90003033DCB215786B1C13704C556423B0FBE8
:101DA000F3F403FB14000A23B0FBF3F33033DCB28B
:101DB00015786B1C13704C550A23B0FBF3F403FB2E
:101DC0001403303315786C1C14704B551CE00A2832
:101DD00013D30A23B0FBF3F33033DCB215786B1C5A
:101DE00013704C550A23B0FBF3F403FB1403303398
:101DF00015786C1C14704B5506E000F13003DCB212
:101E000015786B1C13704C5500BFBBE710B502462C
:101E100014680B689C4201D9012010BD9C4202D27B
:101E20004FF0FF30F9E70020F7E72DE9F04786B0E3
:101E30000746884607EB8700914901EBC0044FF045
:101E40000009002694F8201004F10C0040F82180CD
:101E500094F82000401C052190FBF1F201FB1200D8
:101E600084F82000142204F10C0101A802F066FCA1
:101E7000844B0422052101A802F01DFCDDF80CA012
:101E8000002513E001A951F82510A1EB0A00002854
:101E900001DB014600E04142142905DA01A850F8AF
:101EA00025008144701CC6B2681CC5B2052DE9DB53
:101EB00026B1B9FBF6F006B0BDE8F0875046FAE768
:101EC00030B50246914201D3881A02E0C2F1FF30D8
:101ED0000844044604EB04104FF47A75B0FBF5F3A4
:101EE000FA2B01D9FA2030BD1846FCE7C00000E00B
:101EF00000BF011EA0F10100FAD1704710B50446E1
:101F0000042C00DB10BD002004EB84015C4A02EBD2
:101F1000C101087204EB840102EBC10148725A4A04
:101F200002EB04129188584A02EB0412106800F088
:101F3000CCFC0220FFF7DAFF534A02EB041291882F
:101F4000514A02EB0412106800F0BDFC0A20FFF7B2
:101F5000CDFF4D4A02EB041291884B4A02EB04126A
:101F6000106800F0B2FC00BFCCE710B58AB03F4863
:101F7000007820B1012818D0022815D186E000246D
:101F800004E02046FFF7BAFF601CC4B2042CF8DB63
:101F90000120364908700020354908704FF0804014
:101FA00001F0DFFF33490860AAE03148007800EB18
:101FB0008000334901EBC000007A38B92C48007822
:101FC00000EB800001EBC000407AA0B32848007805
:101FD00000EB80002A4901EBC000007AF0B1244AEE
:101FE000127802EB82020B4603EBC2025168204AD0
:101FF000127802EB820253F83200FFF761FF0446C9
:1020000021461B480078FFF710FF1949097801EBBA
:1020100081011B4A02EBC101486200BF14480078ED
:10202000401C1349087008460078042818DB022079
:102030000E49087014E0FFE74FF0804001F091FF77
:102040000C490968401A47F23051884208D90120EA
:102050000749097801EB8101094A02EBC101487285
:102060004EE0000000080140000C0140600000202C
:102070006100002064000020680000206C00002047
:10208000880000200D1E0008B860000800200190A4
:10209000002415E004EB8401844A02EBC10101AA8B
:1020A000486A02A9FFF75BFE032C07DA2C219DF892
:1020B0000420501CC0B2019002A88154601CC4B21C
:1020C000042CE7DB0D219DF80420501CC0B20190C8
:1020D00002A881540A229DF80410481CC0B2019045
:1020E00002A84254002002A99DF80420885402A8A6
:1020F000FEF75FFC00206E49087001200AB010BD99
:1021000000BF0020FAE76A48007808B10120704754
:102110000020FCE710B56748007800B910BD66489C
:102120000468FFF722FF10B16448046009E0FFF77C
:10213000EAFF30B961480068201A642801D3FFF72C
:1021400014FF00BFEAE70146042902DB4FF6FF70E7
:10215000704701EB8100554A02EBC000406AF7E787
:1021600000B50120FFF7EFFF00BD10B58AB00020D9
:102170000190002415E004EB84014C4A02EBC101FC
:1021800001AA486A02A9FFF7EAFD032C07DA2C210D
:102190009DF80420501CC0B2019002A88154601C1C
:1021A000C4B2042CE7DB0D219DF80420501CC0B202
:1021B000019002A881540A219DF80420501CC0B24D
:1021C000019002A88154002002A99DF8042088549F
:1021D00002A8FEF7EEFB0AB010BD70B5022000F0B9
:1021E0004BFAB0B14FF0804001F0BBFE0446022133
:1021F000334800F04EFB054615B12C48046004E05E
:102200002A484460012029490872022000F045FA5A
:1022100000BF70BD70B54FF0804001F0A2FE0446D3
:10222000202000F029FA88B12021254800F031FB58
:10223000054615B11D48846204E01C48C4620121B2
:1022400080F83010202000F028FA00BF802000F035
:1022500013FA88B180211A4800F01BFB054615B11E
:102260001248046504E011484465012180F85810C3
:10227000802000F012FA00BF4FF4807000F0FCF9EB
:1022800098B14FF480710F4800F003FB054615B17B
:102290000648846704E00548C467012180F880107F
:1022A0004FF4807000F0F9F900BF70BD8800002085
:1022B000600000206C00002000000020680000206A
:1022C00000080140000C014010B573480021016076
:1022D000416001810020714908707149087071499D
:1022E00008707149087071490870012240F2255147
:1022F0006F4801F038FF262000F01F0201219140B5
:102300004209920002F1E022C2F8001100BF10BDA4
:1023100010B540F22551664802F00AF880B36448CF
:1023200001F086FFC4B25C485D49097844545C48BA
:102330000078401C0A2190FBF1F201FB1200584981
:102340000870584800780A2805DA56480078401C7A
:102350005449087009E051480078401C0A2190FB5C
:10236000F1F201FB12004D49087001204E4908703E
:102370004E49087040F225514D4802F003F800BF65
:1023800010BD10B55FE0444844490978445C4348B7
:102390000078401C0A2190FBF1F201FB12003F493A
:1023A000087040480078401E3E4908702046372C8F
:1023B0002AD009DCA0F13000072841D2DFE800F084
:1023C00013181D282B402000472830D006DC382861
:1023D00024D0392825D0412832D125E0502829D0D1
:1023E00051282DD129E0FEF7F6F8FEF7EBFF28E0A3
:1023F000FEF7EAF8FFF759F823E0FEF783FF20E045
:102400000120FFF7A9FC1CE00020FFF7A5FC18E065
:10241000FFF7C0F815E0FFF7D6F812E0FFF7FBF87A
:102420000FE0FEF7A7FE0CE0FFF720F909E0FFF749
:1024300002FA06E0FFF745F903E0FFF79CF900E038
:1024400000BF00BF00BF1748007800289BDC10BD0C
:102450001648007870471348007808B90020704784
:102460000D480E4A1278815C0C480078401C0A2204
:1024700090FBF2F302FB1300084A10700948007841
:10248000401E084A10701046007810B90020074A14
:1024900010700846E3E70000280100206D000020CE
:1024A0006E0000206F0000207000002071000020EE
:1024B0000044004031490143314A1160704770B512
:1024C000002100230F22C47804B32D4C246804F4A7
:1024D000E064C4F5E064210AC1F10403CA40447811
:1024E00004FA03F18478144021430901254C06784D
:1024F000A155047804F01F050124AC4005786D1146
:10250000AD0005F1E025C5F8004109E0047804F0CC
:102510001F050124AC401C4D0678761145F8264075
:1025200070BD1A4A0A400243154B1B1F1A607047C0
:1025300039B1134A121D12680243114B1B1D1A6058
:1025400006E00F4A121D126882430D4B1B1D1A60D4
:102550007047042808D14FF0E021096941F00401D7
:102560004FF0E022116107E04FF0E021096921F00E
:1025700004014FF0E0221161704700000000FA05ED
:102580000CED00E000E400E080E100E080FFFF1FD0
:10259000002044490860091D0860091D0860091DE4
:1025A000086041483F4914310860704700213D49A7
:1025B0008279002A3AD00A46126803689A430B4689
:1025C0001A600A1D126803689A430B1D1A6002798B
:1025D00011440A6803681A430A60324A08321268D2
:1025E00003689A432F4B08331A601A1D1268036858
:1025F0009A432C4B0C331A604279102A0ED11A1FC1
:10260000126803681A43274B08331A601A1D1268B0
:1026100003681A43234B0C331A600DE021494279B9
:1026200011440A6803681A430A6005E002791144FC
:102630000A6803689A430A607047002101600171CB
:102640000C214171002181717047164910310968D0
:102650000143144A10321160704701460020114AAC
:10266000143212680A400AB1012000E000207047CD
:102670000C49143108607047014600200022094BC4
:102680001B6803EA0102074B14331B680B4013B1AC
:102690000AB1012000E000207047024914310860AF
:1026A0007047000000040140FFFF0F0010B5044612
:1026B000CC48844208D10121042000F021FD0021F2
:1026C000042000F01DFD46E0C748844208D10121E6
:1026D000082000F015FD0021082000F011FD3AE06F
:1026E000C248844208D10121102000F009FD0021D8
:1026F000102000F005FD2EE0BD48844208D10121E4
:10270000202000F0FDFC0021202000F0F9FC22E058
:10271000B848844208D10121402000F0F1FC00219A
:10272000402000F0EDFC16E0B348844208D10121BE
:10273000802000F0E5FC0021802000F0E1FC0AE0B0
:10274000AE48844207D10121801500F0D9FC002158
:10275000A01500F0D5FC10BD10B50121084600F011
:10276000CFFC0021012000F0CBFC10BD2DE9F04191
:10277000024600250026002000230024002791F8AF
:1027800003C00CF00F0591F803C00CF0100CBCF165
:10279000000F03D091F802C04CEA050591F800C083
:1027A000BCF1000F31D0146800202BE04FF0010C79
:1027B0000CFA00F3B1F800C00CEA03069E4220D1E7
:1027C00083004FF00F0C0CFA03F7BC4305FA03FC2F
:1027D0004CEA040491F803C0BCF1280F06D14FF075
:1027E000010C0CFA00FCC2F814C00AE091F803C016
:1027F000BCF1480F05D14FF0010C0CFA00FCC2F8F7
:1028000010C0401C0828D1D31460B1F800C0BCF13E
:10281000FF0F34DD546800202EE000F1080C4FF06B
:10282000010808FA0CF3B1F800C00CEA03069E4256
:1028300021D183004FF00F0C0CFA03F7BC4305FACB
:1028400003FC4CEA040491F803C0BCF1280F05D145
:1028500000F1080C08FA0CF8C2F8148091F803C0D3
:10286000BCF1480F07D100F1080C4FF0010808FA3D
:102870000CF8C2F81080401C0828CED35460BDE884
:10288000F0814FF6FF710180022181700421C17037
:1028900070470246002093680B400BB1012000E016
:1028A000002070470146886880B2704702460020C9
:1028B000D3680B400BB1012000E0002070470146B7
:1028C000C86880B2704701617047416170470AB1C2
:1028D000016100E041617047C16070474FF4803290
:1028E0000A4382618161826182698269704702461E
:1028F0000020434B18684FF68073184040EA0210DE
:1029000008433F4B186070473E49C8617047F0B5B7
:102910000A46002300240021002500F00046B6F1FD
:10292000004F02D1364EF16901E0354E7168C0F3B7
:10293000034583B200F44016B6F5401F08D121F0DC
:1029400070612F4E766826F070662D4F7E6012E023
:1029500000F48016B6F5801F06D1032606FA05F4AA
:10296000A14341F0706106E0460D360103FA06F618
:10297000B14341F0706122B1460D360103FA06F60B
:10298000314300F00046B6F1004F02D11C4EF16118
:1029900001E01B4E7160F0BD30B500228B071C0FAB
:1029A0000F2303FA04F2164B08338C1053F824302B
:1029B0009343134C08348D1044F8253023468C1073
:1029C00053F824308C07240F00FA04F423430C4CF2
:1029D00008348D1044F8253030BD0A49DC310860D8
:1029E0007047000000080140000C01400010014049
:1029F0000014014000180140001C0140002001406B
:102A0000000001400000204210B50446F448844212
:102A100009D10121480500F080FB00214FF400108E
:102A200000F07BFB08E00121880500F076FB002127
:102A30004FF4800000F071FB10BD2DE9F04385B02C
:102A400004460D460026B1460427DFF89883A68881
:102A50004FF6C0700640684600F0CBFADDF80880FB
:102A6000E148B8FBF0F01FFA80F946EA0906A680B3
:102A700020884FF6FE71084020800026DB49286838
:102A800088420CD828684000B8FBF0F087B2042FC9
:102A900000DA04273E4309F10100208427E0E8889A
:102AA0004BF6FF71884206D1286800EB4000B8FB66
:102AB000F0F087B209E0286800EBC00101EB0010DC
:102AC000B8FBF0F087B247F48047C7F30B0008B9B2
:102AD00047F0010747F4004006434FF4967009FBA6
:102AE00000F04FF47A7190FBF1F0401C2084A68333
:102AF000208840F00100208026884FF6F5300640FF
:102B0000A8886989084306432680A889298908433B
:102B1000208105B0BDE8F08341F2883101600021D9
:102B200081804BF6FF71C1800021018141814FF40A
:102B300080418181704721B1028842F00102028008
:102B400004E002884FF6FE731A400280704721B1FC
:102B5000828842F40062828004E082884FF2FF7330
:102B60001A408280704721B1828842F4805282806C
:102B700004E082884EF6FF731A408280704721B1CC
:102B8000028842F48072028004E002884FF6FF63FC
:102B90001A400280704721B1028842F4007202801C
:102BA00004E002884FF6FF531A400280704721B1BB
:102BB000028842F48062028004E002884FF6FF330C
:102BC0001A40028070470A46002181894FF601733E
:102BD000194002F0FE0319438181704721B18289B7
:102BE00042F00102828104E082894FF6FE731A40AE
:102BF0008281704721B1028842F04002028004E0E5
:102C000002884FF6BF731A40028070471AB183885A
:102C10000B43838002E083888B438380704701826B
:102C200070470146088AC0B2704712B141F00101F5
:102C300002E04FF6FE7319400182704708B5024664
:102C400000200090009200980844009000980088AE
:102C500008BD21B1028842F40042028003E00288EC
:102C6000C2F30E0202807047B1F5005F04D1028802
:102C700042F40052028004E002884DF6FF731A40CD
:102C80000280704721B1028842F48052028004E041
:102C900002884EF6FF731A4002807047B1F5006F4C
:102CA00004D1028842F40062028004E002884FF2FC
:102CB000FF731A400280704721B1028842F020025F
:102CC000028004E002884FF6DF731A4002807047EA
:102CD0000146088B0012704721B1028842F01002B1
:102CE000028004E002884FF6EF731A4002807047BA
:102CF00021B9028842F08002028004E002884FF687
:102D00007F731A4002807047B1F5804F05D0828BE7
:102D10004BF6FF731A40828303E0828B42F48042B9
:102D20008283704770B502460024002500230020EE
:102D3000958A138B1B0445EA030626F07F4404EAB8
:102D400001068E4201D1012000E0002070BD10B5C7
:102D500001460020002300228B8A0A8B120443EADA
:102D6000020424F07F4010BD0CB502460020002371
:102D70000193009300920B0F019321F07F41019B7F
:102D80001BB1009B1433009303E0090C009B183324
:102D90000093009B1B680B400BB1012000E000205A
:102DA0000CBD002221F07F42D3438382704730B5AF
:102DB000024600200023948801F0E06504EA1543F0
:102DC00021F07F41948A0C4014B10BB1012000E046
:102DD000002030BD002221F07F42D3438382704720
:102DE0000054004000127A0040420F00A08601000B
:102DF000DF48006840F00100DD490860084640688F
:102E0000DC490840DA49486008460068DA49084069
:102E1000D74908600846006820F48020086008460A
:102E2000406820F4FE0048604FF41F00886070473F
:102E3000CF49096821F48031CD4A116011460968F3
:102E400021F480211160B0F5803F03D0B0F5802FD0
:102E50000ED106E0C649096841F48031C44A1160C8
:102E600007E0C349096841F4A021C14A116000E0AC
:102E700000BF00BF704710B50146002200230020AC
:102E80004A11012A02D1BA4C236806E0022A02D173
:102E9000B74C236A01E0B64C636A01F01F020124BB
:102EA00094401C400CB1012000E0002010BD38B55A
:102EB000002000900024002500BF3120FFF7DBFF39
:102EC00005460098401C00900098B0F5A06F01D016
:102ED000002DF2D03120FFF7CEFF08B1012400E031
:102EE0000024204638BD01460020A14A106820F089
:102EF000F80040EAC10010607047A04908607047C0
:102F0000024600209A4B586820F47C1042EA0103E4
:102F10001843974B586070479849086670470146B8
:102F20000020934A506820F0030008435060704727
:102F30008F48406800F00C007047014600208C4A22
:102F4000506820F0F00008435060704701460020B0
:102F5000874A506820F4E06008435060704701469B
:102F60000020834A506820F4605040EAC10050605D
:102F7000704729B17E4A527A02437D4B5A7204E06F
:102F80007B4A527A82437A4B5A7270477B49D831D6
:102F90000860704701460020754A506820F44040A0
:102FA0000843506070470021714A20321170704A06
:102FB00082F82010012802D004280AD104E001215F
:102FC0006B4A2032117005E00521694A20321170E8
:102FD00000E000BF00BF704769490860704764495E
:102FE000096A0143624A11627047654944390860C1
:102FF000704730B500210022002400235C4D6D682D
:1030000005F00C0121B1042905D0082923D105E0E0
:103010005C4D056022E05B4D05601FE0544D6D681E
:1030200005F47012524D6D6805F48034022505EBED
:1030300092421CB9544D554305600BE04C4D6D68F0
:1030400005F400351DB1504D5543056002E04D4D6E
:103050005543056002E04B4D056000BF00BF444D85
:103060006D6805F0F0010909484D6B5C0568DD40AD
:1030700045603F4D6D6805F4E061090A434D6B5CA6
:103080004568DD4085603A4D6D6805F46051C90AB8
:103090003E4D6B5C4568DD40C560354D6D6805F49F
:1030A0004041890B3A4D6B5CC568B5FBF3F5056192
:1030B00030BD29B12E4A526902432D4B5A6104E0BA
:1030C0002B4A526982432A4B5A61704729B1284AD8
:1030D00092690243264B9A6104E0254A9269824331
:1030E000234B9A61704729B1214AD2690243204B90
:1030F000DA6104E01E4AD26982431D4BDA617047EF
:1031000029B11B4AD2680243194BDA6004E0184A1D
:10311000D2688243164BDA60704729B1144A1269AB
:103120000243134B1A6104E0114A12698243104BA7
:103130001A61704712494039086070470F49C864E6
:1031400070470B49C87170470948406A40F0807069
:1031500007494862704701460020054A92680A40C4
:103160000AB1012000E000207047014988727047D1
:10317000001002400000FFF8FFFFF6FE0000424290
:103180008004424200127A0000093D0072000020D3
:103190008200002010B50446FE48844208D1012177
:1031A000C014FFF7ADFF0021E014FFF7A9FFC4E052
:1031B000B4F1804F08D101210846FFF7AEFF00218E
:1031C0000120FFF7AAFFB8E0F348844208D10121AB
:1031D0000220FFF7A2FF00210220FFF79EFFACE0D4
:1031E000EE48844208D101210420FFF796FF002118
:1031F0000420FFF792FFA0E0E948844208D10121B2
:103200000820FFF78AFF00210820FFF786FF94E0DF
:10321000E448844208D101211020FFF77EFF0021FD
:103220001020FFF77AFF88E0DF48844208D10121AF
:103230002020FFF772FF00212020FFF76EFF7CE0C7
:10324000DA48844208D101214014FFF759FF0021D8
:103250006014FFF755FF70E0D548844209D1012181
:10326000C804FFF74DFF00214FF40020FFF748FF8F
:1032700063E0D048844209D101210805FFF740FFEF
:1032800000214FF48010FFF73BFF56E0CA4884420C
:1032900009D101214805FFF733FF00214FF4001049
:1032A000FFF72EFF49E0C548844208D101214020A4
:1032B000FFF733FF00214020FFF72FFF3DE0C0481C
:1032C000844208D101218020FFF727FF00218020C0
:1032D000FFF723FF31E0BB48844208D1012180156C
:1032E000FFF71BFF0021A015FFF717FF25E0B648E9
:1032F000844209D101210804FFF702FF00214FF4A5
:103300008030FFF7FDFE18E0B048844209D101216A
:103310004804FFF7F5FE00214FF40030FFF7F0FE00
:103320000BE0AB48844208D101218804FFF7E8FE96
:1033300000214FF48020FFF7E3FE10BD0022028839
:10334000944B98420ED0994B98420BD0B0F1804FDD
:1033500008D0914B984205D0904B984202D0904BA8
:10336000984204D14FF68F731A404B881A438D4B05
:10337000984207D08C4B984204D04FF6FF431A4036
:10338000CB881A4302808B8883850B880385814B09
:1033900098420BD0854B984208D08B4B984205D071
:1033A0008A4B984202D08A4B984201D10B7A03860D
:1033B00001238382704770B5002400220023058C0E
:1033C0004FF6FE7635400584028C8388048B4FF6D9
:1033D0008F752C40B51E2C400D882C43751E2A403D
:1033E0000D892A434D882A436A4DA8420BD06F4D60
:1033F000A84208D0744DA84205D0744DA84202D00E
:10340000734DA84213D14FF6F7752A404D892A43D0
:103410004FF6FB752A408D882A434FF6FF652B40F7
:103420004FF6FF552B408D892B43CD892B4383804D
:103430000483CD888586028470BD70B50024002287
:103440000023058C4FF6EF7635400584028C838887
:10345000048B48F6FF752C404FF6FF452C400D8835
:103460004FF6FF7606EA05252C434FF6DF752A4016
:103470000D8906EA05152A434D8806EA05152A43F3
:10348000444DA84202D0494DA8421DD14FF67F7548
:103490002A404D894FF6FF7606EA05152A434FF676
:1034A000BF752A408D8806EA05152A434FF6FF3579
:1034B0002B404FF2FF752B408D8906EA85052B4383
:1034C000CD8906EA85052B4383800483CD88058753
:1034D000028470BD70B5002400220023058C4FF6D5
:1034E000FF6635400584028C8388848B4FF68F7588
:1034F0002C404FF6FC752C400D882C434FF6FF55A1
:103500002A400D894FF6FF7606EA05252A434D88A5
:1035100006EA05252A431F4DA84202D0234DA842A2
:103520001DD14FF2FF752A404D894FF6FF7606EA0E
:1035300005252A434FF6FF352A408D8806EA0525E2
:103540002A434EF6FF752B404DF6FF752B408D89B3
:1035500006EA05152B43CD8906EA05152B43838022
:103560008483CD888587028470BD70B500220023D6
:103570000024058C4EF6FF7635400584038C848844
:10358000828B48F6FF752A404FF6FF452A400D888A
:1035900020E00000002C0140000400400008004032
:1035A000000C0040001000400014004000340140B6
:1035B000004C014000500140005401400018004000
:1035C000001C004000200040004001400044014039
:1035D000004801404FF6FF7606EA05252A434DF6DE
:1035E000FF752B400D8906EA05352B434D8806EA09
:1035F00005352B43FA4DA84202D0FA4DA84208D116
:103600004BF6FF752C408D894FF6FF7606EA85153F
:103610002C4384808283CD88A0F84050038470BD01
:10362000828B4FF2FF331A408283828B4FF6FF73F7
:1036300003EA01231A4382837047F0B50C4615460E
:10364000002200210026078C4EF6FF7C07EA0C07BB
:103650000784828B018C4FF6FF7707EA043640F629
:10366000FF473A404FF6FF7707EA05273A434FF600
:10367000FF7707EA03373A43D94FB8420ED0D94F04
:10368000B8420BD0B0F1804F08D0D74FB84205D028
:10369000D64FB84202D0D64FB84206D14DF6FF778A
:1036A000394046F48057394305E047F6FF57394023
:1036B00044F48057394382830184F0BD828B4FF6F6
:1036C000F3731A408283828B0A4382837047F0B57A
:1036D0000C461546002200210026078C4FF6FF6C91
:1036E00007EA0C070784828B018C4FF6FF7707EA05
:1036F00004264FF60C773A404FF6FF7707EA031798
:103700002F433A43B64FB8420ED0B64FB8420BD013
:10371000B0F1804F08D0B44FB84205D0B34FB84293
:1037200002D0B34FB84206D14FF6FF57394046F4A6
:103730008077394305E04FF2FF57394044F48077F2
:10374000394382830184F0BD028B4FF2FF331A406C
:103750000283028B4FF6FF7303EA01231A430283AD
:103760007047F0B50C461546002200210026078C54
:103770004FF6EF7C07EA0C070784028B018C4FF6AB
:10378000FF7707EA041640F6FF473A404FF6FF7707
:1037900007EA03373A434FF6FF7707EA05273A432C
:1037A0008F4FB8420ED08F4FB8420BD0B0F1804F40
:1037B00008D08D4FB84205D08C4FB84202D08C4F04
:1037C000B84206D14FF6DF77394046F0100739434B
:1037D00005E04FF65F77394044F010073943028324
:1037E0000184F0BD028B4FF6F3731A400283028B03
:1037F0000A4302837047F0B50C46154600220021AB
:10380000068C4FF6FE773E400684028B018C4FF605
:103810000C7632407E1C06EA03162E433243704E6D
:10382000B0420ED06F4EB0420BD0B0F1804F08D0F6
:103830006D4EB04205D06D4EB04202D06C4EB042DB
:1038400006D14FF6FD76314044F00106314305E0E4
:103850004FF6F576314044F001063143028301848E
:10386000F0BD70B505460C465D4885420ED05D48FA
:1038700085420BD0B5F1804F08D05B48854205D01A
:103880005A48854202D05A48854200D100E000BF24
:10389000208850B92389A28861882846FFF7ABFFAA
:1038A000E1882846FFF79EFF25E0208804280AD1FA
:1038B0002389A28861882846FFF753FFE1882846BC
:1038C000FFF742FF17E0208808280AD12389A28841
:1038D00061882846FFF7FBFEE1882846FFF7EEFEE9
:1038E00009E02389A28861882846FFF7A6FEE188BF
:1038F0002846FFF795FE70BD2DE9F04105460C46C0
:1039000000260127608808B9022600E00026A0886A
:10391000012801D1022700E001272088A0B92389CE
:10392000A28861882846FFF766FFE1882846FFF7EE
:1039300059FF23893A4631462846FFF712FFE188AE
:103940002846FFF701FF13E02389A28861882846F3
:10395000FFF707FFE1882846FFF7F6FE23893A467E
:1039600031462846FFF747FFE1882846FFF73AFF30
:10397000BDE8F0810A884B881A438B881A43CB88AC
:103980001A430B891A434B891A438B891A43A0F8AF
:10399000442070474FF6FF71818000210180C18073
:1039A0004180017270470021018041808180C18087
:1039B000018141818181C181704700210180418065
:1039C000012181800021C180018170470021018097
:1039D00041808180C18001814181818170470000E7
:1039E000002C014000340140000400400008004069
:1039F000000C004021B1028842F00102028004E084
:103A000002884FF6FE731A400280704731B1B0F859
:103A1000442042F40042A0F8442005E0B0F84420DD
:103A2000C2F30E02A0F8442070471AB183890B43F9
:103A3000838102E083898B43838170478182704751
:103A400041EA0203A0F8483070471AB183890B435A
:103A5000838102E083898B438381704701894FF61C
:103A6000F8721140018170470A46002101894FF622
:103A70008F73194011430181704730B504460D46DC
:103A800029462046FFF7F0FF208940F007002081FB
:103A900030BD2DE9F04104460D4616461F46602D07
:103AA00006D13B46012231462046FFF75AFE05E08B
:103AB0003B46012231462046FFF79DFE294620461F
:103AC000FFF7D2FF208940F007002081BDE8F08198
:103AD00030B50C4600210189C9B24FF6FF7505EAE1
:103AE0000325154325432943018130BD2DE9F041CC
:103AF00005460E4617469846002443463A46314648
:103B00002846FFF7E5FF2C894FF6F870044044F093
:103B100007044FF68F70044044F070042C81BDE818
:103B2000F081F0B504460D4616461F463B46324628
:103B300029462046FFF7CCFF208940F480402081B1
:103B4000F0BD0185828270470A46002101884FF648
:103B50008F731940114301807047F0B50C4615462C
:103B60001E460021002200230189028B038C4FF6A0
:103B7000F877394021434FF6FC473A4040F20117AD
:103B80003A434FF6DD773B404FF6FF7707EA0617DB
:103B90002F433B43018102830384F0BD0A46002189
:103BA000018B4FF68F7319401143018370470A460A
:103BB0000021018B48F6FF7319404FF6FF7303EAAB
:103BC00002231943018370470A460021818B4FF677
:103BD0008F7319401143818370470A460021818BFE
:103BE00048F6FF7319404FF6FF7303EA02231943A7
:103BF0008183704721B1028842F08002028004E094
:103C000002884FF67F731A400280704721B1828884
:103C100042F00402828004E082884FF6FB731A406F
:103C20008280704721B1828842F00802828004E0DD
:103C300082884FF6F7731A408280704721B18288DC
:103C400042F00102828004E082884FF6FE731A403F
:103C5000828070470A460021018B4FF6F7731940A6
:103C60001143018370470A460021018B4FF2FF7315
:103C700019404FF6FF7303EA02231943018370478B
:103C80000A460021818B4FF6F77319401143818357
:103C900070470A460021818B4FF2FF7319404FF69F
:103CA000FF7303EA02231943818370470A46002108
:103CB000018B4FF6FB7319401143018370470A468D
:103CC0000021018B4FF6FF3319404FF6FF7303EAD3
:103CD00002231943018370470A460021818B4FF666
:103CE000FB7319401143818370470A460021818B81
:103CF0004FF6FF3319404FF6FF7303EA02231943CF
:103D0000818370470A460021018B4FF67F7319406B
:103D10001143018370470A460021018BC1F30E0154
:103D20004FF6FF7303EA02231943018370470A46E3
:103D30000021818B4FF67F731940114381837047B7
:103D40000A460021818BC1F30E014FF6FF7303EA8F
:103D500002231943818370470A460021018C4FF6E4
:103D6000FD7319401143018470470A460021018CFC
:103D70004FF6F77319401143018470470A4600213A
:103D8000018C4FF6DF7319404FF6FF7303EA0213FD
:103D90001943018470470A460021018C4FF67F7356
:103DA00019404FF6FF7303EA021319430184704769
:103DB0000A460021018C4FF6FF5319404FF6FF735E
:103DC00003EA02231943018470470A460021018C4B
:103DD0004FF2FF7319404FF6FF7303EA02231943B2
:103DE000018470470A460021018C4DF6FF7319408B
:103DF0004FF6FF7303EA023319430184704730B56D
:103E0000002301248C40A3B2048C9C430484048CC2
:103E100002FA01F5ADB22C43048430BD30B5002365
:103E200004248C40A3B2048C9C430484048C02FAC6
:103E300001F5ADB22C43048430BD70B503460020BB
:103E400000241846183001258D40ACB21D8CA543C6
:103E50001D8409B1082909D100EB6100056825F02E
:103E6000700505600568154305600EE00D1FC5F37C
:103E70004E052844056825F4E045056005684FF6C1
:103E8000FF7606EA02263543056070BD21B102883F
:103E900042F00202028004E002884FF6FD731A40ED
:103EA0000280704721B1028842F00402028004E0DF
:103EB00002884FF6FB731A400280704721B1828856
:103EC00042F08002828004E082884FF67F731A40BD
:103ED0008280704702884FF6F7731A40028002888A
:103EE0000A430280704782884FF68F731A4082809F
:103EF00082880A438280704702894FF6F8731A401D
:103F0000028102890A430281704702894FF67F735A
:103F10001A40028102890A430281704781847047F6
:103F20008185704781867047018770478187704718
:103F3000A0F84010704702884FF6FF431A400280F5
:103F400002880A43028070470146888E7047014606
:103F5000088F70470146888F70470146B1F84000CE
:103F600070470146888C70470146088D70470246AD
:103F70000020138A0B400BB1012000E000207047A5
:103F8000CA430282704730B5024600200023002455
:103F9000158A05EA0103958905EA010413B10CB1FC
:103FA000012000E0002030BDCA43028270470000BB
:103FB00010B50446FB48844209D101218803FFF76C
:103FC0009FF800214FF48040FFF79AF832E0F6485E
:103FD000844209D101214804FFF79FF800214FF4E2
:103FE0000030FFF79AF825E0F048844209D101211A
:103FF0008804FFF792F800214FF48020FFF78DF836
:1040000018E0EB48844209D10121C804FFF785F884
:1040100000214FF40020FFF780F80BE0E5488442D0
:1040200008D101210805FFF778F800214FF480102E
:10403000FFF773F810BD2DE9F04786B005460E4630
:104040000024A24600BFA1460027B08900B100BFEE
:104050002F462C8A4CF6FF700440F08804432C82D3
:10406000AC894EF6F3100440B08831890843718959
:1040700008430443AC81AC8A4FF6FF400440B0894A
:104080000443AC8201A8FEF7B4FFC648874202D1C0
:10409000DDF810A001E0DDF80CA0A88900F40040D4
:1040A00040B10AEBCA0000EB0A1031684900B0FBCE
:1040B000F1F807E00AEBCA0000EB0A10316889004A
:1040C000B0FBF1F86420B8FBF0F004012009642192
:1040D00001FB1089A88900F4004040B1322000EBB8
:1040E000C900B0FBF1F000F00700044308E0322003
:1040F00000EB09106421B0FBF1F000F00F00044365
:104100002C8106B0BDE8F0874FF416510160002104
:104110008180C18001810C21418100218181704712
:1041200010B502460020108A4FF2FF0318400B889A
:104130004C8823438C882343CC8823431843108224
:1041400010BD0021018041808180C180704721B174
:10415000828942F40052828104E082894DF6FF7325
:104160001A4082817047F0B50346002400260025DE
:10417000002040F66A17B94200D100BF1846C1F3CB
:10418000421401F01F06012707FA06F5012C01D1A0
:104190000C3004E0022C01D1103000E014301AB1D0
:1041A00007682F43076002E00768AF430760F0BD70
:1041B0001AB1838A0B43838202E0838A8B43838212
:1041C0007047028A4FF6F0731A400282028A0A434D
:1041D0000282704782894FF2FF731A40828182897E
:1041E0000A438281704721B1828942F002028281B2
:1041F00004E082894FF6FD731A4082817047028A7B
:104200004FF6DF731A400282028A0A430282704725
:1042100021B1028A42F48042028204E0028A4BF613
:10422000FF731A4002827047C1F308028280704710
:1042300001468888C0F308007047818941F0010178
:1042400081817047028BD2B20283028B42EA012243
:1042500002837047028B02F47F420283028B0A437F
:104260000283704721B1828A42F02002828204E0F8
:10427000828A4FF6DF731A408282704721B1828AA8
:1042800042F01002828204E0828A4FF6EF731A40F5
:104290008282704721B1828A42F00802828204E061
:1042A000828A4FF6F7731A408282704721B1828961
:1042B00042F40042828103E08289C2F30E028281CD
:1042C000704721B1828A42F40062828204E0828ACD
:1042D0004FF2FF731A4082827047828A4FF6FB7357
:1042E0001A408282828A0A438282704721B1828A7E
:1042F00042F00202828204E0828A4FF6FD731A4085
:104300008282704702460020B1F5007F00D100BFD5
:1043100013880B400BB1012000E00020704701F42E
:104320000072B2F5007F00D100BFCA43028070471F
:1043300070B50246002400230025002040F66A16CE
:10434000B14200D100BFC1F3421501F01F030126A5
:1043500006FA03F3012D02D19689334006E0022DBF
:1043600002D1168A334001E0968A33400C120126AE
:1043700006FA04F41688344013B10CB1012000E0B1
:10438000002070BD10B50022002340F66A14A1423F
:1043900000D100BF0A1201249440A3B2DC43048080
:1043A00010BD0000003801400044004000480040BB
:1043B000004C004000500040094880470948004731
:1043C000FEE7FEE7FEE7FEE7FEE7FEE7FEE7FEE7C5
:1043D000FEE7FEE704480549054A064B7047000022
:1043E00037040008310100089801002098070020D8
:1043F00098030020980300201FB500202A49088058
:1044000001210846FEF76FFE4FF08040FFF726FBC4
:104410000020ADF80A00ADF8060041F61F40ADF8E7
:1044200008000020ADF804008DF80C0001A94FF041
:104430008040FEF783FF01218807FFF7A1FD0122DD
:1044400011469007FFF7F1FA4FF4A060FEF732F83B
:104450001C208DF8000001208DF8030002208DF84B
:10446000010001208DF802006846FEF728F80121BE
:104470008807FFF7BFFA1FBD10B501218807FFF7B6
:1044800082FD01280ED102210848FEF702FA012818
:1044900004D105480088401C034908800121880791
:1044A000FFF782FD10BD00008600002000080140DB
:1044B000704700001CB50C46064B7B4469460090D3
:1044C000204600F028FA04460020694600F036FA3B
:1044D00020461CBD7F0400002DE9F04F9B46164688
:1044E0004FF00109C1B020910090A9F1010920A865
:1044F0005DF8295050F82900C5E04FEA6A00704382
:104500002C185FEACA7100D1801B5A462146271831
:104510002846904700280EDD304646EA0501890707
:1045200065D022782978401E05F8012B04F8011B7C
:10453000F7D1AD1BA41B5A463946204690470028A8
:1045400023DD5A4639462846904700280EDD30467E
:1045500046EA0501890751D03A782978401E05F8C6
:10456000012B07F8011BF7D1AD1BBF1B304646EAF4
:104570000401890749D03A782178401E04F8012BBC
:1045800007F8011BF7D1A41BBF1B314646EA040202
:10459000B81B920740D003782278491E04F8013BEB
:1045A00000F8012BF7D12C46871BB84634445A46F5
:1045B0004146204690470028F8DB5A464146BF1B3B
:1045C000384690470028F8DC304646EA0401A74206
:1045D0004FEA81712ED931B33A782178401E04F820
:1045E000012B07F8011BF7D1A41BBF1BDEE72268D4
:1045F0002968001F04C502C4F9D19AE73A682968FE
:10460000001F04C502C7F9D1AEE73A682168001F50
:1046100004C402C7F9D1B6E703682268091F08C4B9
:1046200004C0F9D1BFE73A682168001F04C402C77B
:10463000F9D1D9E7E1B198F800202178401E04F8BB
:10464000012B08F8011BF6D1A21B501BB0FBF6F0A2
:10465000401EAAEB0001491E884216DD0A2910DD22
:1046600020AB4DF8295043F8290009F1010918E061
:10467000D8F800202168001F04C448F8041BF7D1B3
:10468000E2E70A2810DD824637E70A2807DD4DF801
:10469000292020AA42F8291009F10109F3E70A2983
:1046A00002DD15468A4628E7B9F1000F7FF41DAFF9
:1046B00041B0BDE8F08F2DE9F04799460F46064618
:1046C000140039D0002F37D00A2F01D9FFF704FF8B
:1046D0007F1E354607FB04582CE02F46254400E09A
:1046E0003F1BB74205D34A46294638469047002823
:1046F000F6DC44EA05003B1980070CD0002117E0E6
:1047000029180A1B0F6802E011681151121B9A4206
:10471000FAD2001D1751A0420CD2F1E768180278B6
:1047200001E007780755001B9842FAD2491C025550
:10473000A142F3D34545D0D3BDE8F08710B5203A68
:10474000C0F00B80B1E81850203AA0E81850B1E84A
:104750001850A0E81850BFF4F5AF5FEA027C24BF00
:10476000B1E81850A0E8185044BF18C918C0BDE8F7
:1047700010405FEA827C24BF51F8043B40F8043BC0
:1047800008BF7047D20728BF31F8023B48BF11F875
:10479000012B28BF20F8023B48BF00F8012B7047CF
:1047A000704770477047704770B504468569006868
:1047B000C10601D5302600E02026C00707D070BD15
:1047C000D4E9012130469047206A401C20626D1ECA
:1047D000F6D570BD70B5044685690078C00707D16D
:1047E00070BDD4E9012120209047206A401C20623E
:1047F0006D1EF6D570BD09684A0501D540B27047F7
:10480000C905FCD500B2704709684A0501D5C0B298
:104810007047C905FCD580B2704770B50C46054697
:10482000012A05D02878800600D5EA69002302E035
:10483000012305E05B1C934202D2E05C0028F9D121
:10484000A869E618C01AA861286A18442862284690
:10485000FFF7AAFF04E0D5E9012114F8010B904706
:10486000B442F8D32846FFF7B5FF70BD2DE9F041FB
:104870000646002410687529314616A510D0FFF7AA
:10488000BAFF002802DA404213A507E031688A0720
:1048900001D512A502E0490704D511A5012401E0C4
:1048A000FFF7B2FF00210A2206F1240709E0B0FB5E
:1048B000F2FCB0FBF2F302FB1C00303078541846D7
:1048C000491C0028F3D123462A463046BDE8F04172
:1048D00000F061BA000000002D0000002B00000075
:1048E0002000000011680268006A530501D50870B5
:1048F0000AE0D30501D5088006E0130603D5C217E8
:10490000C1E9000200E008600120704701694A1C0B
:1049100002610878704700B58FB0CDE90131002100
:10492000059105497944CDE903101146684600F028
:1049300029F90FB000BD0000E5FFFFFF0A6802F88B
:10494000010B0A60704700002DE9FF5F15468A469B
:104950000446DFF8AC80F8440027D8E900103E4652
:10496000CDE9001010E03AF816106A4602A800F0EF
:1049700025FE411C07D02178890603D5E269391844
:1049800091420DD80744761C2078800602D5E06954
:10499000B84205DDAE42E6DB3AF816000028E2D167
:1049A000A069C01BA0612046FFF7FEFED8E90010F9
:1049B000CDE90010002017E03AF818106A4602A866
:1049C00000F0FCFDB0F1FF3F81460BD000250DF15A
:1049D000080B05E0D4E901211BF8050090476D1C88
:1049E0004D45F7D308F10100B0428046E4DB206A70
:1049F000384420622046FFF7EDFEBDE8FF9F00002F
:104A00009E1700002DE9F0418046D21D22F00702DA
:104A10000025D2E90002F52915A614D0011E72F175
:104A2000000106DA0023D0EB030063EB020211A6BB
:104A300008E0D8F800108B0701D50FA602E049075F
:104A400001D50EA601251146002408F1240704E033
:104A500000F05CF930323A55641C50EA0102F7D19B
:104A60002B46324621464046BDE8F04100F093B95E
:104A7000000000002D0000002B00000020000000BE
:104A800030B4002100F1240408E002F00705D20848
:104A9000303542EA4372DB086554491C52EA03058B
:104AA000F3D10468002310A2250707D5A40600D47B
:104AB00021B1C46901230DA2641EC46130BC00F0A1
:104AC0006AB910B5044621461068FFF79DFE0246FC
:104AD0002046BDE810400023D2E7D21D22F0070196
:104AE000D1E90023CCE70000000000003000000006
:104AF000F0B40D460188090502D5214C7C4402E042
:104B00001F4C7C440E34002100F1240608E002F022
:104B10000F071209E75D42EA03721B097754491C2B
:104B200052EA0307F3D102780023120704D5702D4F
:104B300006D009B1022311342246F0BC00F02BB993
:104B400001231034F8E770B504460D46214610687D
:104B5000FFF75AFE024629462046BDE87040002372
:104B6000C6E7D21D22F00703D3E90023C0E703689C
:104B7000126843F0200303600823C3610023B7E7F2
:104B8000001600002DE9F05F894604464FF0000A48
:104B9000DFF874B1FB44C0F820A02046E1688847E4
:104BA000002874D0252806D0D4E901219047206A36
:104BB000401C2062F1E700265F462046E1688847F6
:104BC0002028054607DB312D05D2781910F8200C76
:104BD00008B10643F1E7B00701D526F00406C4F892
:104BE0001CA00027C4F818A02A2D09D0284601F0DF
:104BF00013FA38B304EB8708303DC8F8185019E0B1
:104C000059F8041B204604EB87029161E16888474C
:104C1000012F054618D1E069002820DA26F0200689
:104C20001DE0D8F8180000EB800005EB400030389C
:104C3000C8F818002046E1688847054601F0ECF9FD
:104C40000028EED1012F0AD02E2D08D12046E16890
:104C500088477F1C0546022F46F02006C4DBA0696A
:104C6000002803DA404246F00106A061F00701D0B7
:104C700026F010066C2D0BD0682D09D04C2D39D0A4
:104C80006A2D35D0742D35D07A2D33D016E038E02A
:104C9000E1682F4620468847B842054609D16C2F67
:104CA00026D04FF48060E1680643204688470546D9
:104CB00004E06C2F1AD04FF4807006430DB3A5F1B9
:104CC0004100192802D8203546F400664A46294694
:104CD000204626604E46FBF765FA80B101280BD0CE
:104CE000F61D26F0070000F1080956E74020E4E72A
:104CF0008020D8E70020D6E706F104094DE72846D2
:104D000052E7206ABDE8F09F9015000030B5B0F181
:104D10000A024FEA900E71F100034EEA817EB0EB79
:104D20000E0061EB91014FEA101E4EEA017E10EB7E
:104D30000E0041EB11114FEA102E4EEA016E10EBFE
:104D40000E0041EB11214FEA104E4EEA014E10EBDE
:104D50000E0041EB1141401841F100014FEAD00033
:104D600040EA41704FEAD10110EB80054FEA81041F
:104D700044EA907444EB01046D1944EB0404521BA3
:104D8000A3414FF0000348BF0A3200D530BD401C9C
:104D900041F1000130BD2DE9F0470D46994692469C
:104DA000044600F124080168880604D5E06921F072
:104DB0001001216000E00120A84201DD471B00E056
:104DC0000027A1697A1902EB0900081AA06120786E
:104DD000C00602D42046FFF7E7FC002608E0D4E92D
:104DE00001211AF806009047206A401C761C2062B8
:104DF0004E45F4DB2078C0060AD52046FFF7D4FCE8
:104E000006E0D4E9012130209047206A401C20624E
:104E1000381EA7F10107F4DC07E0D4E9012118F8F6
:104E200005009047206A401C2062281EA5F101055C
:104E3000F3DC2046FFF7CEFC2078000602D50220E6
:104E4000BDE8F0870120FBE770472DE9FF4F0C46D6
:104E50001E464FF0FF378BB0D2E90001DDF86080CD
:104E60000A908A46C1F30A5505B93D460021084615
:104E70004FF00000BAF1000F00F4400005DA00EB3B
:104E800080004FF4400101EA50004FEA9059B9F117
:104E9000010F00DDB9460A9850EA4A000ED044F6E8
:104EA0001050A5F2FF3545432F14B8F1000F1ED066
:104EB0007542291E1EDDC9F100021CE0B8F1010F88
:104EC0004FF0000001D0302103E0F24305E021540F
:104ED000401CB042FBDB30460022002121540B99DC
:104EE000C1F80880C1E900200FB0BDE8F08FBD1BFC
:104EF0006D1CDEE74A4600DA694206A800F0F0FBC6
:104F000006AB93E8070003AB83E8070050460A9915
:104F100000F0A6FC8DE80700A0F500501F380090B7
:104F20000398002D0ADD42F21F014A46084400237F
:104F300003A90390684600F00FFF09E0A0F50050B8
:104F40004A461F38002303A90390684600F019FF62
:104F50008DE807000004000C03D04FF0FF3041083B
:104F600000E01046B8F1000F03D000220092154671
:104F70001EE0751E05D4FFF7C9FE303262556D1E66
:104F8000F9D5B3460122084302D000227F1C04E079
:104F90002078302801D100227F1E002A099784D072
:104FA0001DE0112D07DAFFF7B1FE303262556D1C9E
:104FB00050EA0102F5D1084302D00098C8B10EE0D2
:104FC0000021681E05E0235C625C63542254401E8D
:104FD000491C8142F7DBAB46A81B401E099000200C
:104FE00004F80B000B98099AC0F80880C0E9002B60
:104FF0007AE711264FF0000857E72DE9F04F884671
:105000000446D21D22F0070191B0D1E90001CDE99B
:105010000A0100F0EDFF02460B98C00F01D02D20D1
:1050200007E02068810701D52B2002E0202101EA5A
:10503000C000032A099001D0072A05DB0346414638
:10504000204600F00DFB0BE12078800601D5E069D9
:1050500000E00620B8F1650F814606D0B8F1660F72
:1050600018D0B8F1670F70D131E00020B9F1110FFD
:10507000009001DB112301E009F101030AAA01A953
:105080000CA8FFF7E2FEDDE90C70002609F101052E
:10509000834647E001204B4600904FF000470AAAA4
:1050A00001A90CA8FFF7D1FEDDE90DB00C995D4612
:1050B000002610B909F101000D18B9EB050003D461
:1050C000C0F1FF3609F10105A5EB09002BE0B9F1AC
:1050D000010F01DA4FF001090020B9F1110F009022
:1050E000484601DD112300E003460AAA01A90CA8E5
:1050F000FFF7ABFEDDE90C704D46002683462078B5
:1051000000070AD4AB4500DA5D4601A8012D04DD95
:10511000411911F8011C302907D04F4502DA17F167
:10512000040F04DA012082460FE06D1EEEE7002F27
:1051300002DCED1B3E4403E0781CA84200DD7D1C30
:10514000B81B00F1010A4FF000472078000703D494
:10515000AA4501DB4FF0FF3A0021B7F1004F0DF1F6
:1051600043088DF8431024D002202B23002F01DAAE
:105170007F422D230A21021EA0F1010000DC5FB155
:1051800097FBF1FC97FBF1F201FB1C7C17460CF13D
:10519000300C08F801CDEEE7A8F10100037021887A
:1051A000090501D5452100E06521A0F1010800F8BD
:1051B000011C09980FA9A1EB0807FF1D00B10120F0
:1051C000411901EBEA70A1693844081A401EA06138
:1051D0002078C00602D42046FFF7E6FA099828B1E5
:1051E000D4E901219047206A401C20622078C00643
:1051F00022D52046FFF7D8FA1EE0002E04DBB34587
:1052000002DD01A8805D00E03020D4E90121904753
:10521000206A401C2062761CAAF101005FEA000AA5
:105220000AD100F019FAC0680168405CD4E9012194
:105230009047206A401C2062281EA5F10105DCDC95
:1052400007E0D4E9012118F8010B9047206A401CBF
:105250002062381EA7F10107F3DC2046FFF7BAFAF7
:10526000032011B041E600002DE9F04F04460D4641
:10527000D21D22F0070089B0D0E900974846394690
:1052800000F0B6FE0246F80F01D02D2307E020689B
:10529000810701D52B2302E0202101EAC0038DF80C
:1052A00020300BB1012000E00020032A824601D00B
:1052B000072A04DB2946204600F0D2F93FE1207896
:1052C000800601D40D2500E0E569C7F30A560D2DCF
:1052D00049DA00214FEA175B08464FF00000002F23
:1052E00000F4400007DA00EB80004FF4400100EBCF
:1052F000D07001EA60008115012901DD4FF0FF3116
:1053000000224FEA850CBCF1180F06D31346ACF10E
:1053100018004FF08052C24003E04FF4801323FA8C
:105320000CF30CF10C0CBCF1200F04D3ACF1200CED
:1053300009FA0CF001E007FA0CF000294FF00048E0
:1053400001DD18B90FE00ED140450CD319EB02096D
:105350005F4121B9404502D19F4329EA0209BBEBD5
:10536000175F00D0761C2088000502D57B48784462
:1053700002E07A487844193808AA302302F80A3043
:10538000037C0AF10101002E0AF1020A53546A4615
:1053900002DC4FF0300101E04FF031014FF0010825
:1053A0008DF8001002D0A6F2FF3603E059EA47015B
:1053B00000D06B4E002D02DC2178090704D54FF098
:1053C00002082E218DF80110C44600210BE0C7F31E
:1053D00003433F01C35C491C6D1E02F808300529D8
:1053E00008F1010801DA002DF1DC00210CE000EBEE
:1053F0001973491C1B786D1E082902F808304FEA02
:10540000091908F1010801DA002DF0DC21688B068A
:1054100002D516E0A8F10108E04505DD02EB08031E
:1054200013F8013C302BF5D0B8F1000F09DD02EB89
:10543000080313F8013C2E2B03D1090701D4A8F16E
:105440000108002D05DD3E2102F808106D1E08F14F
:105450000108407C002E02F8080008F1010804DA77
:105460002D20764202F8080002E02B2002F8080006
:105470000A214FF47A70864208F101080BDB96FB93
:10548000F0F3303302F8083096FBF0F308F101082E
:1054900000FB136601E0642E0CDB642096FBF0F346
:1054A000303302F8083096FBF0F308F1010800FBF6
:1054B000136601E00A2E06DB96FBF1F0303002F8AD
:1054C000080008F1010896FBF1F001FB1060303094
:1054D00002F80800A16908F1010808EB050202EBD7
:1054E0000A00081AA0612078C00602D42046FFF7FF
:1054F0005BF9216A08AE01EB0A00206204E0D4E9FE
:10550000012116F8010B9047BAF1010AF7D2207871
:10551000C00602D52046FFF747F96E4609E016F8A7
:10552000010B3E280FD0D4E901219047206A401C8E
:105530002062B8F10108F2D22046FFF74BF909B01A
:105540000320BDE8F08F206A2844206203E0D4E9FC
:105550000121302090476D1EEBD3F8E7DA0D0000F3
:1055600002FCFFFF10B5436913B1AFF3008001E007
:10557000FFF753F9012010BD127800F124010A70E1
:1055800000224A700122EDE711684FF0FF32E9E78F
:1055900010B5436913B1AFF3008001E0FFF7D4F910
:1055A000012010BD128800F1240182840022C284EF
:1055B0000122EDE711684FF0FF32E9E770B51646BA
:1055C0000C46054600F040F8036893F801010128F5
:1055D00006D0FF2C0FD8185D68B101202C7070BD6B
:1055E000D3F807013246214603F207130344284645
:1055F000BDE8704018474FF0FF3070BD754600F0B1
:10560000EBF8AE4605006946534620F00700854694
:1056100018B020B5FEF7DEFEBDE820404FF00006D2
:105620004FF000074FF000084FF0000B21F007018A
:10563000AC46ACE8C009ACE8C009ACE8C009ACE8CD
:10564000C0098D467047000010B500F005F8001D38
:1056500010BD00BF010A000000487047540100203F
:105660002DE9F0411F46044603260168072A01F48C
:10567000006004DB08B116A505E016A503E008B13B
:1056800015A500E015A521F010002060A069C01E3E
:10569000A0610FB1401EA0612046FFF785F84FB111
:1056A000D4E9012138469047206A401C2062C01C82
:1056B000206206E0206AFAE7D4E9012115F8010B1F
:1056C0009047761EF8D22046FFF784F8BDE8F081B7
:1056D0004E414E006E616E00494E4600696E660096
:1056E0002DE9F047814616468AB0354878440DC802
:1056F0008DE80D0032487844801C03AC0DC884E866
:105700000D0041F69B300844372190FBF1F290FBED
:10571000F1F5A5F1800501FB12041B3C02D56442A2
:10572000012000E00020DFF898A080460027FA441E
:10573000AAF1BE0A0EE0E0070AD03246684607EB3F
:10574000470101230AEB810100F01BFB8DE80700F4
:1057500064107F1C002CEED1194F7F44AE3F19E03E
:10576000E80715D007EB04100DF1180A90E80E00B9
:105770008AE80E00C068F04201D1981908903246BC
:10578000012306A903A800F0FCFA03AB83E8070095
:105790006D10641C002DE3D14FF0010332466946C1
:1057A000B8F1000F03A802D000F0D6FA01E000F033
:1057B000E8FAC9E90001C9F808200AB0BDE8F08795
:1057C000EC0A000010B50446AFF300802046BDE8A7
:1057D0001040FAF74ABD000000487047340100202D
:1057E0004FF0013C50F8042B51F8043B9A4221D170
:1057F000A2EB0C03934313EACC1317D150F8042BFC
:1058000051F8043B9A4215D1A2EB0C03934313EADF
:10581000CC130BD150F8042B51F8043B9A4209D118
:10582000A2EB0C03934313EACC13DBD04FF0000040
:10583000704700BFD01A01BAB1FA81F101F0180126
:1058400022FA01F0CB40C1F12001DBB2C0B2C01A94
:105850002CFA01F3D11A914311EAC311E6D1704732
:105860005FEA400C08BF91F0000F4FEA8C234FEA2B
:10587000C12243EA51514FEA1C5018BF00F5F040D5
:105880004FEA300018BF41F000415FEA6C5C00F065
:105890002980BCF1FF3F08BF40F080407047130CE7
:1058A00006BF12044FF0100C4FF0000C130E04BF93
:1058B00012020CF1080C130F04BF12010CF1040CBE
:1058C000930F04BF92000CF1020CD30F04BF5200DF
:1058D0000CF1010C11464FF00002A0F11F00A0EBEB
:1058E0000C00704711F0004F08BF704731F00041C5
:1058F0003FF4D5AF0B0C06BF09044FF0100C4FF06E
:10590000000C0B0E04BF09020CF1080C0B0F04BFB6
:1059100009010CF1040C8B0F04BF89000CF1020C7F
:10592000CB0F04BF49000CF1010CCCF12003A0EB1C
:105930000C0022FA03F302FA0CF241EA030100F12F
:105940000100704720F07F4C80EA030023F07F477E
:10595000ACEB070303F57C5300F0004003F1FF03B9
:105960002DE980494FEA154B09B44FEA144325EA63
:105970000B4E24EA03480FF2042606EB13274908CE
:105980003E785FEA320203FB0667C7F5000707FBB4
:1059900006F64FEA54374FEAD64606F1020607FBF1
:1059A000066CCCF1005C4FEA1C472CEA074C07FB65
:1059B00006F40CFB06F504EB15464FEA961634BFC9
:1059C00000204FF000404FEAD13706FB07FC4FEABA
:1059D0001C4C0CFB0BF7D21B03FB0CF761EB070114
:1059E0000CFB0EF7B0EB074072EB17420CFB08F70D
:1059F00034BFA2EB0742B2EB074261EB17414FEA1B
:105A00000C444FEA910706FB07FC4FEA1C4C0CFBC9
:105A10000BF7B0EBC74072EB573203FB0CF734BF08
:105A2000A2EBC742B2EBC74261EB57310CFB0EF75A
:105A3000B0EBC70072EB57720CFB08F734BFA2EB58
:105A4000C702B2EBC70261EB5771039F4FEA816156
:105A500041EA921104EBCC044FEAD1374FEA82625B
:105A600006FB07FC42EA90124FEA80604FEA1C4CAA
:105A70000CFB0BF7D21B03FB0CF761EB07010CFBD4
:105A80000EF7B0EB074072EB17420CFB08F734BF80
:105A9000A2EB0742B2EB074261EB17414FEA8C558C
:105AA0004FEA910704EB9C2406FB07FC4FEA1C4CD1
:105AB0000CFB0BF7B0EBC74072EB573203FB0CF754
:105AC00034BFA2EBC742B2EBC74261EB57310CFBCC
:105AD0000EF7B0EBC70072EB57720CFB08F734BF40
